{
  "contractName": "Flannel",
  "abi": [
    {
      "inputs": [
        {
          "internalType": "address",
          "name": "_uniswapExchange",
          "type": "address"
        },
        {
          "internalType": "address",
          "name": "_stdLinkToken",
          "type": "address"
        },
        {
          "internalType": "address",
          "name": "_aaveLinkToken",
          "type": "address"
        },
        {
          "internalType": "address",
          "name": "_aLinkToken",
          "type": "address"
        },
        {
          "internalType": "address",
          "name": "_oracle",
          "type": "address"
        },
        {
          "internalType": "address",
          "name": "_linkNode",
          "type": "address"
        },
        {
          "internalType": "address",
          "name": "_lendingPool",
          "type": "address"
        },
        {
          "internalType": "address",
          "name": "_lendingPoolApproval",
          "type": "address"
        }
      ],
      "payable": false,
      "stateMutability": "nonpayable",
      "type": "constructor"
    },
    {
      "anonymous": false,
      "inputs": [
        {
          "indexed": true,
          "internalType": "address",
          "name": "previousOwner",
          "type": "address"
        },
        {
          "indexed": true,
          "internalType": "address",
          "name": "newOwner",
          "type": "address"
        }
      ],
      "name": "OwnershipTransferred",
      "type": "event"
    },
    {
      "constant": true,
      "inputs": [],
      "name": "aaveBalance",
      "outputs": [
        {
          "internalType": "uint256",
          "name": "",
          "type": "uint256"
        }
      ],
      "payable": false,
      "stateMutability": "view",
      "type": "function"
    },
    {
      "constant": true,
      "inputs": [],
      "name": "getALinkBalance",
      "outputs": [
        {
          "internalType": "uint256",
          "name": "",
          "type": "uint256"
        }
      ],
      "payable": false,
      "stateMutability": "view",
      "type": "function"
    },
    {
      "constant": true,
      "inputs": [
        {
          "internalType": "uint256",
          "name": "_amount",
          "type": "uint256"
        }
      ],
      "name": "getLinkToEthPrice",
      "outputs": [
        {
          "internalType": "uint256",
          "name": "",
          "type": "uint256"
        }
      ],
      "payable": false,
      "stateMutability": "view",
      "type": "function"
    },
    {
      "constant": true,
      "inputs": [],
      "name": "getOracleWithdrawable",
      "outputs": [
        {
          "internalType": "uint256",
          "name": "",
          "type": "uint256"
        }
      ],
      "payable": false,
      "stateMutability": "view",
      "type": "function"
    },
    {
      "constant": true,
      "inputs": [],
      "name": "isOwner",
      "outputs": [
        {
          "internalType": "bool",
          "name": "",
          "type": "bool"
        }
      ],
      "payable": false,
      "stateMutability": "view",
      "type": "function"
    },
    {
      "constant": true,
      "inputs": [],
      "name": "owner",
      "outputs": [
        {
          "internalType": "address",
          "name": "",
          "type": "address"
        }
      ],
      "payable": false,
      "stateMutability": "view",
      "type": "function"
    },
    {
      "constant": true,
      "inputs": [],
      "name": "storeBalance",
      "outputs": [
        {
          "internalType": "uint256",
          "name": "",
          "type": "uint256"
        }
      ],
      "payable": false,
      "stateMutability": "view",
      "type": "function"
    },
    {
      "constant": true,
      "inputs": [],
      "name": "topUpBalance",
      "outputs": [
        {
          "internalType": "uint256",
          "name": "",
          "type": "uint256"
        }
      ],
      "payable": false,
      "stateMutability": "view",
      "type": "function"
    },
    {
      "constant": false,
      "inputs": [
        {
          "internalType": "address",
          "name": "newOwner",
          "type": "address"
        }
      ],
      "name": "transferOwnership",
      "outputs": [],
      "payable": false,
      "stateMutability": "nonpayable",
      "type": "function"
    },
    {
      "constant": true,
      "inputs": [],
      "name": "userStoredParams",
      "outputs": [
        {
          "internalType": "string",
          "name": "paramsName",
          "type": "string"
        },
        {
          "internalType": "uint256",
          "name": "pcUntouched",
          "type": "uint256"
        },
        {
          "internalType": "uint256",
          "name": "pcAave",
          "type": "uint256"
        },
        {
          "internalType": "uint256",
          "name": "pcTopUp",
          "type": "uint256"
        },
        {
          "internalType": "uint256",
          "name": "linkThreshold",
          "type": "uint256"
        },
        {
          "internalType": "uint256",
          "name": "ethThreshold",
          "type": "uint256"
        },
        {
          "internalType": "uint256",
          "name": "aaveThreshold",
          "type": "uint256"
        },
        {
          "internalType": "uint256",
          "name": "ethTopUp",
          "type": "uint256"
        }
      ],
      "payable": false,
      "stateMutability": "view",
      "type": "function"
    },
    {
      "constant": false,
      "inputs": [],
      "name": "flannelCoordinator",
      "outputs": [],
      "payable": false,
      "stateMutability": "nonpayable",
      "type": "function"
    },
    {
      "constant": false,
      "inputs": [
        {
          "internalType": "uint256",
          "name": "_amount",
          "type": "uint256"
        }
      ],
      "name": "manualWithdrawFromOracle",
      "outputs": [],
      "payable": false,
      "stateMutability": "nonpayable",
      "type": "function"
    },
    {
      "constant": false,
      "inputs": [
        {
          "internalType": "uint256",
          "name": "_amount",
          "type": "uint256"
        }
      ],
      "name": "manualLinkToEthTopUp",
      "outputs": [],
      "payable": false,
      "stateMutability": "nonpayable",
      "type": "function"
    },
    {
      "constant": false,
      "inputs": [
        {
          "internalType": "uint256",
          "name": "_amount",
          "type": "uint256"
        }
      ],
      "name": "manualDepositToAave",
      "outputs": [],
      "payable": false,
      "stateMutability": "nonpayable",
      "type": "function"
    },
    {
      "constant": false,
      "inputs": [
        {
          "internalType": "uint256",
          "name": "_amount",
          "type": "uint256"
        }
      ],
      "name": "manualWithdrawFromAave",
      "outputs": [],
      "payable": false,
      "stateMutability": "nonpayable",
      "type": "function"
    },
    {
      "constant": false,
      "inputs": [
        {
          "internalType": "address",
          "name": "_liveOracle",
          "type": "address"
        },
        {
          "internalType": "address",
          "name": "_linkNode",
          "type": "address"
        }
      ],
      "name": "configureOracleSetup",
      "outputs": [],
      "payable": false,
      "stateMutability": "nonpayable",
      "type": "function"
    },
    {
      "constant": false,
      "inputs": [
        {
          "internalType": "uint256",
          "name": "_param",
          "type": "uint256"
        },
        {
          "internalType": "uint256",
          "name": "_amount",
          "type": "uint256"
        }
      ],
      "name": "withdrawFromFlannel",
      "outputs": [],
      "payable": false,
      "stateMutability": "nonpayable",
      "type": "function"
    },
    {
      "constant": false,
      "inputs": [
        {
          "internalType": "string",
          "name": "_paramsName",
          "type": "string"
        },
        {
          "internalType": "uint256",
          "name": "_pcUntouched",
          "type": "uint256"
        },
        {
          "internalType": "uint256",
          "name": "_pcAave",
          "type": "uint256"
        },
        {
          "internalType": "uint256",
          "name": "_pcTopUp",
          "type": "uint256"
        },
        {
          "internalType": "uint256",
          "name": "_linkThreshold",
          "type": "uint256"
        },
        {
          "internalType": "uint256",
          "name": "_ethThreshold",
          "type": "uint256"
        },
        {
          "internalType": "uint256",
          "name": "_aaveThreshold",
          "type": "uint256"
        },
        {
          "internalType": "uint256",
          "name": "_ethTopUp",
          "type": "uint256"
        }
      ],
      "name": "createNewAllowance",
      "outputs": [],
      "payable": false,
      "stateMutability": "nonpayable",
      "type": "function"
    },
    {
      "constant": false,
      "inputs": [
        {
          "internalType": "uint256",
          "name": "_to",
          "type": "uint256"
        },
        {
          "internalType": "uint256",
          "name": "_from",
          "type": "uint256"
        },
        {
          "internalType": "uint256",
          "name": "_value",
          "type": "uint256"
        }
      ],
      "name": "rebalance",
      "outputs": [],
      "payable": false,
      "stateMutability": "nonpayable",
      "type": "function"
    },
    {
      "constant": false,
      "inputs": [],
      "name": "revertOracleOwnership",
      "outputs": [],
      "payable": false,
      "stateMutability": "nonpayable",
      "type": "function"
    },
    {
      "constant": true,
      "inputs": [],
      "name": "getAddresses",
      "outputs": [
        {
          "internalType": "address",
          "name": "",
          "type": "address"
        },
        {
          "internalType": "address",
          "name": "",
          "type": "address"
        }
      ],
      "payable": false,
      "stateMutability": "view",
      "type": "function"
    }
  ],
  "bytecode": "0x60806040523480156200001157600080fd5b506040516200347b3803806200347b83398181016040526101008110156200003857600080fd5b810190808051906020019092919080519060200190929190805190602001909291908051906020019092919080519060200190929190805190602001909291908051906020019092919080519060200190929190505050336000806101000a81548173ffffffffffffffffffffffffffffffffffffffff021916908373ffffffffffffffffffffffffffffffffffffffff1602179055506000809054906101000a900473ffffffffffffffffffffffffffffffffffffffff1673ffffffffffffffffffffffffffffffffffffffff16600073ffffffffffffffffffffffffffffffffffffffff167f8be0079c531659141344cd1fd0a4f28419497f9722a3daafe3b4186f6b6457e060405160405180910390a387600260006101000a81548173ffffffffffffffffffffffffffffffffffffffff021916908373ffffffffffffffffffffffffffffffffffffffff16021790555086600460006101000a81548173ffffffffffffffffffffffffffffffffffffffff021916908373ffffffffffffffffffffffffffffffffffffffff16021790555085600560006101000a81548173ffffffffffffffffffffffffffffffffffffffff021916908373ffffffffffffffffffffffffffffffffffffffff16021790555084600660006101000a81548173ffffffffffffffffffffffffffffffffffffffff021916908373ffffffffffffffffffffffffffffffffffffffff16021790555083600160006101000a81548173ffffffffffffffffffffffffffffffffffffffff021916908373ffffffffffffffffffffffffffffffffffffffff16021790555082600760006101000a81548173ffffffffffffffffffffffffffffffffffffffff021916908373ffffffffffffffffffffffffffffffffffffffff16021790555081600360006101000a81548173ffffffffffffffffffffffffffffffffffffffff021916908373ffffffffffffffffffffffffffffffffffffffff16021790555080600860006101000a81548173ffffffffffffffffffffffffffffffffffffffff021916908373ffffffffffffffffffffffffffffffffffffffff1602179055506200035d62000519565b60405180604001604052803373ffffffffffffffffffffffffffffffffffffffff1673ffffffffffffffffffffffffffffffffffffffff168152602001600760009054906101000a900473ffffffffffffffffffffffffffffffffffffffff1673ffffffffffffffffffffffffffffffffffffffff1673ffffffffffffffffffffffffffffffffffffffff168152509050806009906002620004019291906200053b565b506040518061010001604052806040518060400160405280600781526020017f44656661756c7400000000000000000000000000000000000000000000000000815250815260200160148152602001603c815260200160148152602001670de0b6b3a76400006005028152602001670de0b6b3a76400006001028152602001670de0b6b3a76400006003028152602001670de0b6b3a7640000600502815250600b6000820151816000019080519060200190620004c0929190620005bd565b506020820151816001015560408201518160020155606082015181600301556080820151816004015560a0820151816005015560c0820151816006015560e08201518160070155905050505050505050505050620006b2565b6040518060400160405280600290602082028038833980820191505090505090565b8260028101928215620005aa579160200282015b82811115620005a95782518260006101000a81548173ffffffffffffffffffffffffffffffffffffffff021916908373ffffffffffffffffffffffffffffffffffffffff160217905550916020019190600101906200054f565b5b509050620005b9919062000644565b5090565b828054600181600116156101000203166002900490600052602060002090601f016020900481019282601f106200060057805160ff191683800117855562000631565b8280016001018555821562000631579182015b828111156200063057825182559160200191906001019062000613565b5b5090506200064091906200068a565b5090565b6200068791905b808211156200068357600081816101000a81549073ffffffffffffffffffffffffffffffffffffffff0219169055506001016200064b565b5090565b90565b620006af91905b80821115620006ab57600081600090555060010162000691565b5090565b90565b612db980620006c26000396000f3fe608060405234801561001057600080fd5b50600436106101375760003560e01c80638a3ae54f116100b8578063a39fac121161007c578063a39fac1214610512578063bf5c88ff1461058f578063cbd8b036146105ad578063ce420416146105db578063d610bf0f146105f9578063f2fde38b1461065d57610137565b80638a3ae54f146103485780638da5cb5b146103765780638f32d59b146103c05780639aee8f5b146103e2578063a0649f401461041057610137565b806371910991116100ff5780637191099114610220578063746fa26e146102d45780637efff8871461030257806386b1268114610320578063880216541461032a57610137565b80630cbfef9f1461013c578063255e77aa14610146578063284503f5146101885780632a1d5e47146101c057806332b5d1ab146101de575b600080fd5b6101446106a1565b005b6101726004803603602081101561015c57600080fd5b81019080803590602001909291905050506107d6565b6040518082815260200191505060405180910390f35b6101be6004803603604081101561019e57600080fd5b81019080803590602001909291908035906020019092919050505061088d565b005b6101c8610d3a565b6040518082815260200191505060405180910390f35b61021e600480360360608110156101f457600080fd5b81019080803590602001909291908035906020019092919080359060200190929190505050610d40565b005b61022861101d565b604051808060200189815260200188815260200187815260200186815260200185815260200184815260200183815260200182810382528a818151815260200191508051906020019080838360005b83811015610292578082015181840152602081019050610277565b50505050905090810190601f1680156102bf5780820380516001836020036101000a031916815260200191505b50995050505050505050505060405180910390f35b610300600480360360208110156102ea57600080fd5b81019080803590602001909291905050506110eb565b005b61030a611171565b6040518082815260200191505060405180910390f35b610328611177565b005b610332611391565b6040518082815260200191505060405180910390f35b6103746004803603602081101561035e57600080fd5b810190808035906020019092919050505061143b565b005b61037e611521565b604051808273ffffffffffffffffffffffffffffffffffffffff1673ffffffffffffffffffffffffffffffffffffffff16815260200191505060405180910390f35b6103c861154a565b604051808215151515815260200191505060405180910390f35b61040e600480360360208110156103f857600080fd5b81019080803590602001909291905050506115a1565b005b610510600480360361010081101561042757600080fd5b810190808035906020019064010000000081111561044457600080fd5b82018360208201111561045657600080fd5b8035906020019184600183028401116401000000008311171561047857600080fd5b91908080601f016020809104026020016040519081016040528093929190818152602001838380828437600081840152601f19601f82011690508083019250505050505050919291929080359060200190929190803590602001909291908035906020019092919080359060200190929190803590602001909291908035906020019092919080359060200190929190505050611627565b005b61051a6117d3565b604051808373ffffffffffffffffffffffffffffffffffffffff1673ffffffffffffffffffffffffffffffffffffffff1681526020018273ffffffffffffffffffffffffffffffffffffffff1673ffffffffffffffffffffffffffffffffffffffff1681526020019250505060405180910390f35b610597611824565b6040518082815260200191505060405180910390f35b6105d9600480360360208110156105c357600080fd5b810190808035906020019092919050505061182a565b005b6105e36118b2565b6040518082815260200191505060405180910390f35b61065b6004803603604081101561060f57600080fd5b81019080803573ffffffffffffffffffffffffffffffffffffffff169060200190929190803573ffffffffffffffffffffffffffffffffffffffff169060200190929190505050611993565b005b61069f6004803603602081101561067357600080fd5b81019080803573ffffffffffffffffffffffffffffffffffffffff169060200190929190505050611a93565b005b6106a961154a565b61071b576040517f08c379a00000000000000000000000000000000000000000000000000000000081526004018080602001828103825260208152602001807f4f776e61626c653a2063616c6c6572206973206e6f7420746865206f776e657281525060200191505060405180910390fd5b600160009054906101000a900473ffffffffffffffffffffffffffffffffffffffff1673ffffffffffffffffffffffffffffffffffffffff1663f2fde38b336040518263ffffffff1660e01b8152600401808273ffffffffffffffffffffffffffffffffffffffff1673ffffffffffffffffffffffffffffffffffffffff168152602001915050600060405180830381600087803b1580156107bc57600080fd5b505af11580156107d0573d6000803e3d6000fd5b50505050565b6000600260009054906101000a900473ffffffffffffffffffffffffffffffffffffffff1673ffffffffffffffffffffffffffffffffffffffff166395b68fe7836040518263ffffffff1660e01b81526004018082815260200191505060206040518083038186803b15801561084b57600080fd5b505afa15801561085f573d6000803e3d6000fd5b505050506040513d602081101561087557600080fd5b81019080805190602001909291905050509050919050565b61089561154a565b610907576040517f08c379a00000000000000000000000000000000000000000000000000000000081526004018080602001828103825260208152602001807f4f776e61626c653a2063616c6c6572206973206e6f7420746865206f776e657281525060200191505060405180910390fd5b6000821415610a6c5760135482111561096b576040517f08c379a0000000000000000000000000000000000000000000000000000000008152600401808060200182810382526023815260200180612c4c6023913960400191505060405180910390fd5b600460009054906101000a900473ffffffffffffffffffffffffffffffffffffffff1673ffffffffffffffffffffffffffffffffffffffff1663a9059cbb33836040518363ffffffff1660e01b8152600401808373ffffffffffffffffffffffffffffffffffffffff1673ffffffffffffffffffffffffffffffffffffffff16815260200182815260200192505050602060405180830381600087803b158015610a1457600080fd5b505af1158015610a28573d6000803e3d6000fd5b505050506040513d6020811015610a3e57600080fd5b810190808051906020019092919050505050610a6581601354611b1990919063ffffffff16565b6013819055505b6001821415610bd157601454821115610ad0576040517f08c379a0000000000000000000000000000000000000000000000000000000008152600401808060200182810382526022815260200180612c966022913960400191505060405180910390fd5b600460009054906101000a900473ffffffffffffffffffffffffffffffffffffffff1673ffffffffffffffffffffffffffffffffffffffff1663a9059cbb33836040518363ffffffff1660e01b8152600401808373ffffffffffffffffffffffffffffffffffffffff1673ffffffffffffffffffffffffffffffffffffffff16815260200182815260200192505050602060405180830381600087803b158015610b7957600080fd5b505af1158015610b8d573d6000803e3d6000fd5b505050506040513d6020811015610ba357600080fd5b810190808051906020019092919050505050610bca81601454611b1990919063ffffffff16565b6014819055505b6002821415610d3657601554821115610c35576040517f08c379a0000000000000000000000000000000000000000000000000000000008152600401808060200182810382526024815260200180612d616024913960400191505060405180910390fd5b600460009054906101000a900473ffffffffffffffffffffffffffffffffffffffff1673ffffffffffffffffffffffffffffffffffffffff1663a9059cbb33836040518363ffffffff1660e01b8152600401808373ffffffffffffffffffffffffffffffffffffffff1673ffffffffffffffffffffffffffffffffffffffff16815260200182815260200192505050602060405180830381600087803b158015610cde57600080fd5b505af1158015610cf2573d6000803e3d6000fd5b505050506040513d6020811015610d0857600080fd5b810190808051906020019092919050505050610d2f81601554611b1990919063ffffffff16565b6015819055505b5050565b60145481565b610d4861154a565b610dba576040517f08c379a00000000000000000000000000000000000000000000000000000000081526004018080602001828103825260208152602001807f4f776e61626c653a2063616c6c6572206973206e6f7420746865206f776e657281525060200191505060405180910390fd5b6000821415610e8457806013541015610e1e576040517f08c379a0000000000000000000000000000000000000000000000000000000008152600401808060200182810382526022815260200180612cfc6022913960400191505060405180910390fd5b6001831415610e4357610e3c81601454611ba290919063ffffffff16565b6014819055505b6002831415610e6857610e6181601554611ba290919063ffffffff16565b6015819055505b610e7d81601354611b1990919063ffffffff16565b6013819055505b6001821415610f4e57806014541015610ee8576040517f08c379a0000000000000000000000000000000000000000000000000000000008152600401808060200182810382526021815260200180612d406021913960400191505060405180910390fd5b6000831415610f0d57610f0681601354611ba290919063ffffffff16565b6013819055505b6002831415610f3257610f2b81601554611ba290919063ffffffff16565b6015819055505b610f4781601454611b1990919063ffffffff16565b6014819055505b600282141561101857806015541015610fb2576040517f08c379a0000000000000000000000000000000000000000000000000000000008152600401808060200182810382526022815260200180612d1e6022913960400191505060405180910390fd5b6000831415610fd757610fd081601354611ba290919063ffffffff16565b6013819055505b6001831415610ffc57610ff581601454611ba290919063ffffffff16565b6014819055505b61101181601554611b1990919063ffffffff16565b6015819055505b505050565b600b806000018054600181600116156101000203166002900480601f0160208091040260200160405190810160405280929190818152602001828054600181600116156101000203166002900480156110b75780601f1061108c576101008083540402835291602001916110b7565b820191906000526020600020905b81548152906001019060200180831161109a57829003601f168201915b5050505050908060010154908060020154908060030154908060040154908060050154908060060154908060070154905088565b6110f361154a565b611165576040517f08c379a00000000000000000000000000000000000000000000000000000000081526004018080602001828103825260208152602001807f4f776e61626c653a2063616c6c6572206973206e6f7420746865206f776e657281525060200191505060405180910390fd5b61116e81611c2a565b50565b60155481565b600760009054906101000a900473ffffffffffffffffffffffffffffffffffffffff1673ffffffffffffffffffffffffffffffffffffffff163373ffffffffffffffffffffffffffffffffffffffff161461123a576040517f08c379a000000000000000000000000000000000000000000000000000000000815260040180806020018281038252601f8152602001807f4f6e6c79206e6f646520616464726573732063616e2063616c6c20746869730081525060200191505060405180910390fd5b6000611244611391565b9050600b60040154811061125c5761125b81611fd2565b5b600b60050154600760009054906101000a900473ffffffffffffffffffffffffffffffffffffffff1673ffffffffffffffffffffffffffffffffffffffff16311161137457600073ffffffffffffffffffffffffffffffffffffffff16600760009054906101000a900473ffffffffffffffffffffffffffffffffffffffff1673ffffffffffffffffffffffffffffffffffffffff161415611366576040517f08c379a00000000000000000000000000000000000000000000000000000000081526004018080602001828103825260188152602001807f496e76616c6964204c696e6b4e6f64652041646472657373000000000000000081525060200191505060405180910390fd5b6113736015546001612246565b5b600b600601546014541061138e5761138d601454611c2a565b5b50565b6000600160009054906101000a900473ffffffffffffffffffffffffffffffffffffffff1673ffffffffffffffffffffffffffffffffffffffff1663501883016040518163ffffffff1660e01b815260040160206040518083038186803b1580156113fb57600080fd5b505afa15801561140f573d6000803e3d6000fd5b505050506040513d602081101561142557600080fd5b8101908080519060200190929190505050905090565b61144361154a565b6114b5576040517f08c379a00000000000000000000000000000000000000000000000000000000081526004018080602001828103825260208152602001807f4f776e61626c653a2063616c6c6572206973206e6f7420746865206f776e657281525060200191505060405180910390fd5b6114bd611391565b811115611515576040517f08c379a0000000000000000000000000000000000000000000000000000000008152600401808060200182810382526025815260200180612c016025913960400191505060405180910390fd5b61151e81611fd2565b50565b60008060009054906101000a900473ffffffffffffffffffffffffffffffffffffffff16905090565b60008060009054906101000a900473ffffffffffffffffffffffffffffffffffffffff1673ffffffffffffffffffffffffffffffffffffffff163373ffffffffffffffffffffffffffffffffffffffff1614905090565b6115a961154a565b61161b576040517f08c379a00000000000000000000000000000000000000000000000000000000081526004018080602001828103825260208152602001807f4f776e61626c653a2063616c6c6572206973206e6f7420746865206f776e657281525060200191505060405180910390fd5b6116248161266d565b50565b61162f61154a565b6116a1576040517f08c379a00000000000000000000000000000000000000000000000000000000081526004018080602001828103825260208152602001807f4f776e61626c653a2063616c6c6572206973206e6f7420746865206f776e657281525060200191505060405180910390fd5b60006116b68789611ba290919063ffffffff16565b90506116cb8682611ba290919063ffffffff16565b905060648114611726576040517f08c379a0000000000000000000000000000000000000000000000000000000008152600401808060200182810382526023815260200180612cd96023913960400191505060405180910390fd5b6040518061010001604052808a815260200189815260200188815260200187815260200186815260200185815260200184815260200183815250600b600082015181600001908051906020019061177e929190612b5b565b506020820151816001015560408201518160020155606082015181600301556080820151816004015560a0820151816005015560c0820151816006015560e08201518160070155905050505050505050505050565b600080600160009054906101000a900473ffffffffffffffffffffffffffffffffffffffff16600760009054906101000a900473ffffffffffffffffffffffffffffffffffffffff16915091509091565b60135481565b61183261154a565b6118a4576040517f08c379a00000000000000000000000000000000000000000000000000000000081526004018080602001828103825260208152602001807f4f776e61626c653a2063616c6c6572206973206e6f7420746865206f776e657281525060200191505060405180910390fd5b6118af816000612246565b50565b6000600660009054906101000a900473ffffffffffffffffffffffffffffffffffffffff1673ffffffffffffffffffffffffffffffffffffffff166370a08231306040518263ffffffff1660e01b8152600401808273ffffffffffffffffffffffffffffffffffffffff1673ffffffffffffffffffffffffffffffffffffffff16815260200191505060206040518083038186803b15801561195357600080fd5b505afa158015611967573d6000803e3d6000fd5b505050506040513d602081101561197d57600080fd5b8101908080519060200190929190505050905090565b61199b61154a565b611a0d576040517f08c379a00000000000000000000000000000000000000000000000000000000081526004018080602001828103825260208152602001807f4f776e61626c653a2063616c6c6572206973206e6f7420746865206f776e657281525060200191505060405180910390fd5b81600160006101000a81548173ffffffffffffffffffffffffffffffffffffffff021916908373ffffffffffffffffffffffffffffffffffffffff16021790555080600760006101000a81548173ffffffffffffffffffffffffffffffffffffffff021916908373ffffffffffffffffffffffffffffffffffffffff1602179055505050565b611a9b61154a565b611b0d576040517f08c379a00000000000000000000000000000000000000000000000000000000081526004018080602001828103825260208152602001807f4f776e61626c653a2063616c6c6572206973206e6f7420746865206f776e657281525060200191505060405180910390fd5b611b16816128ca565b50565b600082821115611b91576040517f08c379a000000000000000000000000000000000000000000000000000000000815260040180806020018281038252601e8152602001807f536166654d6174683a207375627472616374696f6e206f766572666c6f77000081525060200191505060405180910390fd5b600082840390508091505092915050565b600080828401905083811015611c20576040517f08c379a000000000000000000000000000000000000000000000000000000000815260040180806020018281038252601b8152602001807f536166654d6174683a206164646974696f6e206f766572666c6f77000000000081525060200191505060405180910390fd5b8091505092915050565b6009600060028110611c3857fe5b0160009054906101000a900473ffffffffffffffffffffffffffffffffffffffff1673ffffffffffffffffffffffffffffffffffffffff163373ffffffffffffffffffffffffffffffffffffffff161480611ced57506009600160028110611c9c57fe5b0160009054906101000a900473ffffffffffffffffffffffffffffffffffffffff1673ffffffffffffffffffffffffffffffffffffffff163373ffffffffffffffffffffffffffffffffffffffff16145b611d5f576040517f08c379a000000000000000000000000000000000000000000000000000000000815260040180806020018281038252600e8152602001807f496e76616c69642063616c6c657200000000000000000000000000000000000081525060200191505060405180910390fd5b601454811115611dba576040517f08c379a0000000000000000000000000000000000000000000000000000000008152600401808060200182810382526027815260200180612c6f6027913960400191505060405180910390fd5b600560009054906101000a900473ffffffffffffffffffffffffffffffffffffffff1673ffffffffffffffffffffffffffffffffffffffff1663095ea7b3600860009054906101000a900473ffffffffffffffffffffffffffffffffffffffff16606484016040518363ffffffff1660e01b8152600401808373ffffffffffffffffffffffffffffffffffffffff1673ffffffffffffffffffffffffffffffffffffffff16815260200182815260200192505050602060405180830381600087803b158015611e8857600080fd5b505af1158015611e9c573d6000803e3d6000fd5b505050506040513d6020811015611eb257600080fd5b810190808051906020019092919050505050600360009054906101000a900473ffffffffffffffffffffffffffffffffffffffff1673ffffffffffffffffffffffffffffffffffffffff1663d2d0e066600560009054906101000a900473ffffffffffffffffffffffffffffffffffffffff168360006040518463ffffffff1660e01b8152600401808473ffffffffffffffffffffffffffffffffffffffff1673ffffffffffffffffffffffffffffffffffffffff1681526020018381526020018261ffff1681526020019350505050600060405180830381600087803b158015611f9c57600080fd5b505af1158015611fb0573d6000803e3d6000fd5b50505050611fc981601454611b1990919063ffffffff16565b60148190555050565b6009600060028110611fe057fe5b0160009054906101000a900473ffffffffffffffffffffffffffffffffffffffff1673ffffffffffffffffffffffffffffffffffffffff163373ffffffffffffffffffffffffffffffffffffffff1614806120955750600960016002811061204457fe5b0160009054906101000a900473ffffffffffffffffffffffffffffffffffffffff1673ffffffffffffffffffffffffffffffffffffffff163373ffffffffffffffffffffffffffffffffffffffff16145b612107576040517f08c379a000000000000000000000000000000000000000000000000000000000815260040180806020018281038252600e8152602001807f496e76616c69642063616c6c657200000000000000000000000000000000000081525060200191505060405180910390fd5b600160009054906101000a900473ffffffffffffffffffffffffffffffffffffffff1673ffffffffffffffffffffffffffffffffffffffff1663f3fef3a330836040518363ffffffff1660e01b8152600401808373ffffffffffffffffffffffffffffffffffffffff1673ffffffffffffffffffffffffffffffffffffffff16815260200182815260200192505050600060405180830381600087803b1580156121b057600080fd5b505af11580156121c4573d6000803e3d6000fd5b505050506121eb6121da82600b60010154612a0e565b601354611ba290919063ffffffff16565b60138190555061221461220382600b60020154612a0e565b601454611ba290919063ffffffff16565b60148190555061223d61222c82600b60030154612a0e565b601554611ba290919063ffffffff16565b60158190555050565b600960006002811061225457fe5b0160009054906101000a900473ffffffffffffffffffffffffffffffffffffffff1673ffffffffffffffffffffffffffffffffffffffff163373ffffffffffffffffffffffffffffffffffffffff161480612309575060096001600281106122b857fe5b0160009054906101000a900473ffffffffffffffffffffffffffffffffffffffff1673ffffffffffffffffffffffffffffffffffffffff163373ffffffffffffffffffffffffffffffffffffffff16145b61237b576040517f08c379a000000000000000000000000000000000000000000000000000000000815260040180806020018281038252600e8152602001807f496e76616c69642063616c6c657200000000000000000000000000000000000081525060200191505060405180910390fd5b6015548211156123f3576040517f08c379a00000000000000000000000000000000000000000000000000000000081526004018080602001828103825260198152602001807f4e6f7420656e6f756768204c494e4b20746f20746f702d75700000000000000081525060200191505060405180910390fd5b6000600b6007015483101580156124075750815b1561241957600b60070154905061241d565b8290505b6000612428826107d6565b9050600460009054906101000a900473ffffffffffffffffffffffffffffffffffffffff1673ffffffffffffffffffffffffffffffffffffffff1663095ea7b3600260009054906101000a900473ffffffffffffffffffffffffffffffffffffffff16846040518363ffffffff1660e01b8152600401808373ffffffffffffffffffffffffffffffffffffffff1673ffffffffffffffffffffffffffffffffffffffff16815260200182815260200192505050602060405180830381600087803b1580156124f557600080fd5b505af1158015612509573d6000803e3d6000fd5b505050506040513d602081101561251f57600080fd5b810190808051906020019092919050505050600260009054906101000a900473ffffffffffffffffffffffffffffffffffffffff1673ffffffffffffffffffffffffffffffffffffffff1663d4e4841d8284610e104201600760009054906101000a900473ffffffffffffffffffffffffffffffffffffffff166040518563ffffffff1660e01b8152600401808581526020018481526020018381526020018273ffffffffffffffffffffffffffffffffffffffff1673ffffffffffffffffffffffffffffffffffffffff168152602001945050505050602060405180830381600087803b15801561261057600080fd5b505af1158015612624573d6000803e3d6000fd5b505050506040513d602081101561263a57600080fd5b81019080805190602001909291905050505061266182601554611b1990919063ffffffff16565b60158190555050505050565b600960006002811061267b57fe5b0160009054906101000a900473ffffffffffffffffffffffffffffffffffffffff1673ffffffffffffffffffffffffffffffffffffffff163373ffffffffffffffffffffffffffffffffffffffff161480612730575060096001600281106126df57fe5b0160009054906101000a900473ffffffffffffffffffffffffffffffffffffffff1673ffffffffffffffffffffffffffffffffffffffff163373ffffffffffffffffffffffffffffffffffffffff16145b6127a2576040517f08c379a000000000000000000000000000000000000000000000000000000000815260040180806020018281038252600e8152602001807f496e76616c69642063616c6c657200000000000000000000000000000000000081525060200191505060405180910390fd5b6127aa6118b2565b81111561281f576040517f08c379a000000000000000000000000000000000000000000000000000000000815260040180806020018281038252601c8152602001807f4e6f7420656e6f75676820614c494e4b20696e20636f6e74726163740000000081525060200191505060405180910390fd5b600660009054906101000a900473ffffffffffffffffffffffffffffffffffffffff1673ffffffffffffffffffffffffffffffffffffffff1663db006a75826040518263ffffffff1660e01b815260040180828152602001915050600060405180830381600087803b15801561289457600080fd5b505af11580156128a8573d6000803e3d6000fd5b505050506128c181601454611ba290919063ffffffff16565b60148190555050565b600073ffffffffffffffffffffffffffffffffffffffff168173ffffffffffffffffffffffffffffffffffffffff161415612950576040517f08c379a0000000000000000000000000000000000000000000000000000000008152600401808060200182810382526026815260200180612c266026913960400191505060405180910390fd5b8073ffffffffffffffffffffffffffffffffffffffff166000809054906101000a900473ffffffffffffffffffffffffffffffffffffffff1673ffffffffffffffffffffffffffffffffffffffff167f8be0079c531659141344cd1fd0a4f28419497f9722a3daafe3b4186f6b6457e060405160405180910390a3806000806101000a81548173ffffffffffffffffffffffffffffffffffffffff021916908373ffffffffffffffffffffffffffffffffffffffff16021790555050565b600080612a25606485612a4690919063ffffffff16565b9050612a3a8382612ad590919063ffffffff16565b90508091505092915050565b6000808211612abd576040517f08c379a000000000000000000000000000000000000000000000000000000000815260040180806020018281038252601a8152602001807f536166654d6174683a206469766973696f6e206279207a65726f00000000000081525060200191505060405180910390fd5b6000828481612ac857fe5b0490508091505092915050565b600080831415612ae85760009050612b55565b6000828402905082848281612af957fe5b0414612b50576040517f08c379a0000000000000000000000000000000000000000000000000000000008152600401808060200182810382526021815260200180612cb86021913960400191505060405180910390fd5b809150505b92915050565b828054600181600116156101000203166002900490600052602060002090601f016020900481019282601f10612b9c57805160ff1916838001178555612bca565b82800160010185558215612bca579182015b82811115612bc9578251825591602001919060010190612bae565b5b509050612bd79190612bdb565b5090565b612bfd91905b80821115612bf9576000816000905550600101612be1565b5090565b9056fe4e6f7420656e6f756768204c494e4b20696e206f7261636c6520746f2077697468647261774f776e61626c653a206e6577206f776e657220697320746865207a65726f2061646472657373496e73756666696369656e742066756e647320696e2073746f72652062616c616e63654e6f7420656e6f75676820616c6c6f63617465642041617665204465706f7369742066756e6473496e73756666696369656e742066756e647320696e20616176652062616c616e6365536166654d6174683a206d756c7469706c69636174696f6e206f766572666c6f7750657263656e7420706172616d657465727320646f206e6f7420657175616c20313030496e73756666696369656e742066756e647320696e2073746f726542616c616e6365496e73756666696369656e742066756e647320696e20746f70557042616c616e6365496e73756666696369656e742066756e647320696e206161766542616c616e6365496e73756666696369656e742066756e647320696e20746f702d75702062616c616e6365a265627a7a72315820a1ef1917b78504d925050cfd38ea3264cff411e2679eecfc59f259cfa6215ddd64736f6c634300050c0032",
  "source": "pragma solidity 0.5.12;\n\nimport \"../contracts/IFlannel.sol\";\n\n/// @title Flannel Main Contract\n/// @author hill399 (github.com/hill399)\n/// @notice Extension of Chainlink oracle contract to allow for additional features.\ncontract Flannel is IFlannel {\n\n    /// @notice Constructor to set default contract values.\n    /// @param _uniswapExchange address of Uniswap exchange contract.\n    /// @param _stdLinkToken address of Chainlink (LINK) token.\n    /// @param _aaveLinkToken address of Aave Link token.\n    /// @param _aLinkToken address for the aLink Interest Bearing Token.\n    /// @param _oracle address of user-deployed oracle contract.\n    constructor\n    (\n    address _uniswapExchange,\n    address _stdLinkToken,\n    address _aaveLinkToken,\n    address _aLinkToken,\n    address _oracle,\n    address _linkNode,\n    address _lendingPool,\n    address _lendingPoolApproval\n    )\n    public\n    {\n        linkExchangeInterface = UniswapExchangeInterface(_uniswapExchange);\n        stdLinkTokenInterface = LinkTokenInterface(_stdLinkToken);\n        aaveLinkTokenInterface = LinkTokenInterface(_aaveLinkToken);\n        aLinkTokenInterface = AToken(_aLinkToken);\n        oracle = Oracle(_oracle);\n        linkNode = _linkNode;\n\n        lendingPool = LendingPool(_lendingPool);\n        lendingPoolApproval = _lendingPoolApproval;\n\n        address[2] memory writeWhitelist = [msg.sender, linkNode];\n        whitelistAddresses = writeWhitelist;\n\n        /* Create default param account */\n        userStoredParams = thresholds(\"Default\", 20, 60, 20, 5 * ETHER, 1 * ETHER, 3 * ETHER, 5 * ETHER);\n    }\n\n    /// @notice Restricts certain calls to node address only.\n    modifier onlyNodeAddress()\n    {\n        require(msg.sender == linkNode, \"Only node address can call this\");\n        _;\n    }\n\n\n    /// @notice Single function to call from node initiator job.\n    /// @dev Only the user's LINK node should call this.\n    /// @dev Function Selector : 0x86b12681\n    function flannelCoordinator()\n    public\n    onlyNodeAddress()\n    {\n        uint256 availableFunds = getOracleWithdrawable();\n\n        if(availableFunds >= userStoredParams.linkThreshold){\n           _withdrawFromOracle(availableFunds);\n        }\n\n\n        if(linkNode.balance <= userStoredParams.ethThreshold){\n           require(linkNode != address(0), \"Invalid LinkNode Address\");\n           _linkToEthTopUp(topUpBalance, true);\n        }\n\n\n        if(aaveBalance >= userStoredParams.aaveThreshold){\n           _depositToAave(aaveBalance);\n        }\n\n    }\n\n    /// @notice Manual override to withdraw from oracle\n    /// @param _amount Amount of LINK in wei to withdraw.\n    /// @dev onlyOwner wrapper for internal function.\n    /// @dev Func selector: 0x8a3ae54f\n    function manualWithdrawFromOracle(uint256 _amount)\n    public\n    onlyOwner\n    {\n        require(_amount <= getOracleWithdrawable(), \"Not enough LINK in oracle to withdraw\");\n        _withdrawFromOracle(_amount);\n    }\n\n    /// @notice Manual override to top-up node address\n    /// @param _amount Amount of LINK in wei to convert via Uniswap.\n    /// @dev onlyOwner wrapper for internal function.\n    /// @dev Func selector: 0xcbd8b036\n    function manualLinkToEthTopUp(uint256 _amount)\n    public\n    onlyOwner\n    {\n        _linkToEthTopUp(_amount, false);\n    }\n\n    /// @notice Manual override to deposit LINK to Aave.\n    /// @param _amount Amount of LINK in wei to deposit.\n    /// @dev onlyOwner wrapper for internal function.\n    /// @dev Func selector: 0x746fa26e\n    function manualDepositToAave(uint256 _amount)\n    public\n    onlyOwner\n    {\n        _depositToAave(_amount);\n    }\n\n    /// @notice Manual override to withdraw LINK from Aave.\n    /// @param _amount Amount of aLINK in wei to withdraw.\n    /// @dev onlyOwner wrapper for internal function.\n    /// @dev Func selector: 0x9aee8f5b\n    function manualWithdrawFromAave(uint256 _amount)\n    public\n    onlyOwner\n    {\n        _withdrawFromAave(_amount);\n    }\n\n    /// @notice Change address of oracle contract (in case of re-deployment).\n    /// @param _liveOracle new address of oracle contract.\n    /// @dev Only contract owner can call this.\n    /// @dev Func selector: 0x45a190af\n    function configureOracleSetup(address _liveOracle, address _linkNode)\n    public\n    onlyOwner\n    {\n        oracle = Oracle(_liveOracle);\n        linkNode = _linkNode;\n    }\n\n    /// @notice Withdraw balances from Flannel contract.\n    /// @param _param balance store to withdraw from (see in-line comments).\n    /// @param _amount amount in wei to withdraw from given balance store.\n    /// @dev only contract owner can call this.\n    /// @dev Func selector: 0xd53ef6e7\n    function withdrawFromFlannel(uint256 _param, uint256 _amount)\n    public\n    onlyOwner\n    {\n        if(_param == 0){\n            require(_param <= storeBalance, \"Insufficient funds in store balance\");\n            stdLinkTokenInterface.transfer(msg.sender, _amount);\n            storeBalance = storeBalance.sub(_amount);\n        }\n        if(_param == 1){\n            require(_param <= aaveBalance, \"Insufficient funds in aave balance\");\n            stdLinkTokenInterface.transfer(msg.sender, _amount);\n            aaveBalance = aaveBalance.sub(_amount);\n        }\n        if(_param == 2){\n            require(_param <= topUpBalance, \"Insufficient funds in top-up balance\");\n            stdLinkTokenInterface.transfer(msg.sender, _amount);\n            topUpBalance = topUpBalance.sub(_amount);\n        }\n    }\n\n    /// @notice Create new parameter settings to distribute withdrawn LINK.\n    /// @param _paramsName Reference name of params.\n    /// @param _pcUntouched % to leave untouched in contract.\n    /// @param _pcAave % to deposited to Aave.\n    /// @param _pcTopUp % to allocate to node top-up.\n    /// @param _linkThreshold LINK value in wei to determine when to withdraw from Oracle contract.\n    /// @param _ethThreshold ETH value in wei to determine when to top-up LINK node.\n    /// @param _aaveThreshold LINK value in wei to determine when to trigger Aave deposit.\n    /// @param _ethTopUp ETH value in wei to top-up LINK node when triggered.\n    /// @dev Only owner can call this.\n    /// @dev Func selector: 0x08c00746\n    function createNewAllowance(\n    string memory _paramsName,\n    uint256 _pcUntouched,\n    uint256 _pcAave,\n    uint256 _pcTopUp,\n    uint256 _linkThreshold,\n    uint256 _ethThreshold,\n    uint256 _aaveThreshold,\n    uint256 _ethTopUp)\n    public\n    onlyOwner\n    {\n        uint256 pcTemp = _pcUntouched.add(_pcAave);\n        pcTemp = pcTemp.add(_pcTopUp);\n        require(pcTemp == 100, \"Percent parameters do not equal 100\");\n        userStoredParams = thresholds(_paramsName, _pcUntouched, _pcAave, _pcTopUp, _linkThreshold, _ethThreshold, _aaveThreshold, _ethTopUp);\n    }\n\n\n    /// @notice Manually rebalance the automated deposit funds.\n    /// @param _to Reference name of params.\n    /// @param _from % to leave untouched in contract.\n    /// @param _value % to deposited to Aave.\n    /// @dev Func selector: 0xadb72a86\n    function rebalance(\n    uint256 _to,\n    uint256 _from,\n    uint256 _value)\n    public\n    onlyOwner\n    {\n        if (_from == 0) {\n            require(storeBalance >= _value, \"Insufficient funds in storeBalance\");\n            if (_to == 1) {\n                aaveBalance = aaveBalance.add(_value);\n            }\n            if (_to == 2) {\n                topUpBalance = topUpBalance.add(_value);\n            }\n            storeBalance = storeBalance.sub(_value);\n        }\n\n        if (_from == 1) {\n            require(aaveBalance >= _value, \"Insufficient funds in aaveBalance\");\n            if (_to == 0) {\n                storeBalance = storeBalance.add(_value);\n            }\n            if (_to == 2) {\n                topUpBalance = topUpBalance.add(_value);\n            }\n            aaveBalance = aaveBalance.sub(_value);\n        }\n\n        if (_from == 2) {\n            require(topUpBalance >= _value, \"Insufficient funds in topUpBalance\");\n            if (_to == 0) {\n                storeBalance = storeBalance.add(_value);\n            }\n            if (_to == 1) {\n                aaveBalance = aaveBalance.add(_value);\n            }\n            topUpBalance = topUpBalance.sub(_value);\n        }\n    }\n\n    /// @notice Renounce ownership of oracle contract back to owner of this contract.\n    /// @dev Only owner of contract may call this.\n    /// @dev Only contract owner can call this.\n    /// @dev Func selector: 0x0cbfef9f\n    function revertOracleOwnership()\n    public\n    onlyOwner\n    {\n        oracle.transferOwnership(msg.sender);\n    }\n\n    /// @notice Return the operating addresses tied to this contract.\n    function getAddresses()\n    public\n    view\n    returns (address, address)\n    {\n        return (address(oracle), linkNode);\n    }\n\n}\n",
  "sourcePath": "/home/hill/github/Flannel/truffle/contracts/Flannel.sol",
  "compiler": {
    "name": "solc",
    "version": "0.5.12+commit.7709ece9.Emscripten.clang"
  },
  "schemaVersion": "3.0.23",
  "updatedAt": "2020-03-23T13:08:03.503Z",
  "devdoc": {
    "author": "hill399 (github.com/hill399)",
    "methods": {
      "configureOracleSetup(address,address)": {
        "details": "Only contract owner can call this.Func selector: 0x45a190af",
        "params": {
          "_liveOracle": "new address of oracle contract."
        }
      },
      "constructor": {
        "params": {
          "_aLinkToken": "address for the aLink Interest Bearing Token.",
          "_aaveLinkToken": "address of Aave Link token.",
          "_oracle": "address of user-deployed oracle contract.",
          "_stdLinkToken": "address of Chainlink (LINK) token.",
          "_uniswapExchange": "address of Uniswap exchange contract."
        }
      },
      "createNewAllowance(string,uint256,uint256,uint256,uint256,uint256,uint256,uint256)": {
        "details": "Only owner can call this.Func selector: 0x08c00746",
        "params": {
          "_aaveThreshold": "LINK value in wei to determine when to trigger Aave deposit.",
          "_ethThreshold": "ETH value in wei to determine when to top-up LINK node.",
          "_ethTopUp": "ETH value in wei to top-up LINK node when triggered.",
          "_linkThreshold": "LINK value in wei to determine when to withdraw from Oracle contract.",
          "_paramsName": "Reference name of params.",
          "_pcAave": "% to deposited to Aave.",
          "_pcTopUp": "% to allocate to node top-up.",
          "_pcUntouched": "% to leave untouched in contract."
        }
      },
      "flannelCoordinator()": {
        "details": "Only the user's LINK node should call this.Function Selector : 0x86b12681"
      },
      "isOwner()": {
        "details": "Returns true if the caller is the current owner."
      },
      "manualDepositToAave(uint256)": {
        "details": "onlyOwner wrapper for internal function.Func selector: 0x746fa26e",
        "params": {
          "_amount": "Amount of LINK in wei to deposit."
        }
      },
      "manualLinkToEthTopUp(uint256)": {
        "details": "onlyOwner wrapper for internal function.Func selector: 0xcbd8b036",
        "params": {
          "_amount": "Amount of LINK in wei to convert via Uniswap."
        }
      },
      "manualWithdrawFromAave(uint256)": {
        "details": "onlyOwner wrapper for internal function.Func selector: 0x9aee8f5b",
        "params": {
          "_amount": "Amount of aLINK in wei to withdraw."
        }
      },
      "manualWithdrawFromOracle(uint256)": {
        "details": "onlyOwner wrapper for internal function.Func selector: 0x8a3ae54f",
        "params": {
          "_amount": "Amount of LINK in wei to withdraw."
        }
      },
      "owner()": {
        "details": "Returns the address of the current owner."
      },
      "rebalance(uint256,uint256,uint256)": {
        "details": "Func selector: 0xadb72a86",
        "params": {
          "_from": "% to leave untouched in contract.",
          "_to": "Reference name of params.",
          "_value": "% to deposited to Aave."
        }
      },
      "revertOracleOwnership()": {
        "details": "Only owner of contract may call this.Only contract owner can call this.Func selector: 0x0cbfef9f"
      },
      "transferOwnership(address)": {
        "details": "Transfers ownership of the contract to a new account (`newOwner`). Can only be called by the current owner."
      },
      "withdrawFromFlannel(uint256,uint256)": {
        "details": "only contract owner can call this.Func selector: 0xd53ef6e7",
        "params": {
          "_amount": "amount in wei to withdraw from given balance store.",
          "_param": "balance store to withdraw from (see in-line comments)."
        }
      }
    },
    "title": "Flannel Main Contract"
  },
  "userdoc": {
    "methods": {
      "configureOracleSetup(address,address)": {
        "notice": "Change address of oracle contract (in case of re-deployment)."
      },
      "constructor": "Constructor to set default contract values.",
      "createNewAllowance(string,uint256,uint256,uint256,uint256,uint256,uint256,uint256)": {
        "notice": "Create new parameter settings to distribute withdrawn LINK."
      },
      "flannelCoordinator()": {
        "notice": "Single function to call from node initiator job."
      },
      "getAddresses()": {
        "notice": "Return the operating addresses tied to this contract."
      },
      "manualDepositToAave(uint256)": {
        "notice": "Manual override to deposit LINK to Aave."
      },
      "manualLinkToEthTopUp(uint256)": {
        "notice": "Manual override to top-up node address"
      },
      "manualWithdrawFromAave(uint256)": {
        "notice": "Manual override to withdraw LINK from Aave."
      },
      "manualWithdrawFromOracle(uint256)": {
        "notice": "Manual override to withdraw from oracle"
      },
      "rebalance(uint256,uint256,uint256)": {
        "notice": "Manually rebalance the automated deposit funds."
      },
      "revertOracleOwnership()": {
        "notice": "Renounce ownership of oracle contract back to owner of this contract."
      },
      "withdrawFromFlannel(uint256,uint256)": {
        "notice": "Withdraw balances from Flannel contract."
      }
    },
    "notice": "Extension of Chainlink oracle contract to allow for additional features."
  }
}