{
  "contractName": "Flannel",
  "abi": [
    {
      "inputs": [
        {
          "internalType": "address",
          "name": "_uniswapExchange",
          "type": "address"
        },
        {
          "internalType": "address",
          "name": "_stdLinkToken",
          "type": "address"
        },
        {
          "internalType": "address",
          "name": "_aaveLinkToken",
          "type": "address"
        },
        {
          "internalType": "address",
          "name": "_aLinkToken",
          "type": "address"
        },
        {
          "internalType": "address",
          "name": "_oracle",
          "type": "address"
        },
        {
          "internalType": "address",
          "name": "_linkNode",
          "type": "address"
        },
        {
          "internalType": "address",
          "name": "_lendingPool",
          "type": "address"
        },
        {
          "internalType": "address",
          "name": "_lendingPoolApproval",
          "type": "address"
        }
      ],
      "payable": false,
      "stateMutability": "nonpayable",
      "type": "constructor"
    },
    {
      "anonymous": false,
      "inputs": [
        {
          "indexed": true,
          "internalType": "address",
          "name": "previousOwner",
          "type": "address"
        },
        {
          "indexed": true,
          "internalType": "address",
          "name": "newOwner",
          "type": "address"
        }
      ],
      "name": "OwnershipTransferred",
      "type": "event"
    },
    {
      "constant": true,
      "inputs": [],
      "name": "aaveBalance",
      "outputs": [
        {
          "internalType": "uint256",
          "name": "",
          "type": "uint256"
        }
      ],
      "payable": false,
      "stateMutability": "view",
      "type": "function"
    },
    {
      "constant": true,
      "inputs": [],
      "name": "isOwner",
      "outputs": [
        {
          "internalType": "bool",
          "name": "",
          "type": "bool"
        }
      ],
      "payable": false,
      "stateMutability": "view",
      "type": "function"
    },
    {
      "constant": true,
      "inputs": [],
      "name": "linkNode",
      "outputs": [
        {
          "internalType": "address",
          "name": "",
          "type": "address"
        }
      ],
      "payable": false,
      "stateMutability": "view",
      "type": "function"
    },
    {
      "constant": true,
      "inputs": [],
      "name": "owner",
      "outputs": [
        {
          "internalType": "address",
          "name": "",
          "type": "address"
        }
      ],
      "payable": false,
      "stateMutability": "view",
      "type": "function"
    },
    {
      "constant": true,
      "inputs": [],
      "name": "storeBalance",
      "outputs": [
        {
          "internalType": "uint256",
          "name": "",
          "type": "uint256"
        }
      ],
      "payable": false,
      "stateMutability": "view",
      "type": "function"
    },
    {
      "constant": true,
      "inputs": [],
      "name": "topUpBalance",
      "outputs": [
        {
          "internalType": "uint256",
          "name": "",
          "type": "uint256"
        }
      ],
      "payable": false,
      "stateMutability": "view",
      "type": "function"
    },
    {
      "constant": false,
      "inputs": [
        {
          "internalType": "address",
          "name": "newOwner",
          "type": "address"
        }
      ],
      "name": "transferOwnership",
      "outputs": [],
      "payable": false,
      "stateMutability": "nonpayable",
      "type": "function"
    },
    {
      "constant": true,
      "inputs": [],
      "name": "userStoredParams",
      "outputs": [
        {
          "internalType": "string",
          "name": "paramsName",
          "type": "string"
        },
        {
          "internalType": "uint256",
          "name": "pcUntouched",
          "type": "uint256"
        },
        {
          "internalType": "uint256",
          "name": "pcAave",
          "type": "uint256"
        },
        {
          "internalType": "uint256",
          "name": "pcTopUp",
          "type": "uint256"
        },
        {
          "internalType": "uint256",
          "name": "linkThreshold",
          "type": "uint256"
        },
        {
          "internalType": "uint256",
          "name": "ethThreshold",
          "type": "uint256"
        },
        {
          "internalType": "uint256",
          "name": "aaveThreshold",
          "type": "uint256"
        },
        {
          "internalType": "uint256",
          "name": "ethTopUp",
          "type": "uint256"
        }
      ],
      "payable": false,
      "stateMutability": "view",
      "type": "function"
    },
    {
      "constant": false,
      "inputs": [],
      "name": "flannelCoordinator",
      "outputs": [],
      "payable": false,
      "stateMutability": "nonpayable",
      "type": "function"
    },
    {
      "constant": false,
      "inputs": [
        {
          "internalType": "uint256",
          "name": "_amount",
          "type": "uint256"
        }
      ],
      "name": "manualWithdrawFromOracle",
      "outputs": [],
      "payable": false,
      "stateMutability": "nonpayable",
      "type": "function"
    },
    {
      "constant": false,
      "inputs": [
        {
          "internalType": "uint256",
          "name": "_amount",
          "type": "uint256"
        }
      ],
      "name": "manualLinkToEthTopUp",
      "outputs": [],
      "payable": false,
      "stateMutability": "nonpayable",
      "type": "function"
    },
    {
      "constant": false,
      "inputs": [
        {
          "internalType": "uint256",
          "name": "_amount",
          "type": "uint256"
        }
      ],
      "name": "manualDepositToAave",
      "outputs": [],
      "payable": false,
      "stateMutability": "nonpayable",
      "type": "function"
    },
    {
      "constant": false,
      "inputs": [
        {
          "internalType": "uint256",
          "name": "_amount",
          "type": "uint256"
        }
      ],
      "name": "manualWithdrawFromAave",
      "outputs": [],
      "payable": false,
      "stateMutability": "nonpayable",
      "type": "function"
    },
    {
      "constant": false,
      "inputs": [
        {
          "internalType": "address",
          "name": "_liveOracle",
          "type": "address"
        },
        {
          "internalType": "address",
          "name": "_linkNode",
          "type": "address"
        }
      ],
      "name": "configureOracleSetup",
      "outputs": [],
      "payable": false,
      "stateMutability": "nonpayable",
      "type": "function"
    },
    {
      "constant": false,
      "inputs": [
        {
          "internalType": "uint256",
          "name": "_param",
          "type": "uint256"
        },
        {
          "internalType": "uint256",
          "name": "_amount",
          "type": "uint256"
        }
      ],
      "name": "withdrawFromFlannel",
      "outputs": [],
      "payable": false,
      "stateMutability": "nonpayable",
      "type": "function"
    },
    {
      "constant": false,
      "inputs": [
        {
          "internalType": "string",
          "name": "_paramsName",
          "type": "string"
        },
        {
          "internalType": "uint256",
          "name": "_pcUntouched",
          "type": "uint256"
        },
        {
          "internalType": "uint256",
          "name": "_pcAave",
          "type": "uint256"
        },
        {
          "internalType": "uint256",
          "name": "_pcTopUp",
          "type": "uint256"
        },
        {
          "internalType": "uint256",
          "name": "_linkThreshold",
          "type": "uint256"
        },
        {
          "internalType": "uint256",
          "name": "_ethThreshold",
          "type": "uint256"
        },
        {
          "internalType": "uint256",
          "name": "_aaveThreshold",
          "type": "uint256"
        },
        {
          "internalType": "uint256",
          "name": "_ethTopUp",
          "type": "uint256"
        }
      ],
      "name": "createNewAllowance",
      "outputs": [],
      "payable": false,
      "stateMutability": "nonpayable",
      "type": "function"
    },
    {
      "constant": false,
      "inputs": [],
      "name": "revertOracleOwnership",
      "outputs": [],
      "payable": false,
      "stateMutability": "nonpayable",
      "type": "function"
    },
    {
      "constant": true,
      "inputs": [],
      "name": "getAddresses",
      "outputs": [
        {
          "internalType": "address",
          "name": "",
          "type": "address"
        },
        {
          "internalType": "address",
          "name": "",
          "type": "address"
        }
      ],
      "payable": false,
      "stateMutability": "view",
      "type": "function"
    }
  ],
  "bytecode": "0x60806040523480156200001157600080fd5b5060405162002a3b38038062002a3b83398181016040526101008110156200003857600080fd5b810190808051906020019092919080519060200190929190805190602001909291908051906020019092919080519060200190929190805190602001909291908051906020019092919080519060200190929190505050336000806101000a81548173ffffffffffffffffffffffffffffffffffffffff021916908373ffffffffffffffffffffffffffffffffffffffff1602179055506000809054906101000a900473ffffffffffffffffffffffffffffffffffffffff1673ffffffffffffffffffffffffffffffffffffffff16600073ffffffffffffffffffffffffffffffffffffffff167f8be0079c531659141344cd1fd0a4f28419497f9722a3daafe3b4186f6b6457e060405160405180910390a387600260006101000a81548173ffffffffffffffffffffffffffffffffffffffff021916908373ffffffffffffffffffffffffffffffffffffffff16021790555086600460006101000a81548173ffffffffffffffffffffffffffffffffffffffff021916908373ffffffffffffffffffffffffffffffffffffffff16021790555085600560006101000a81548173ffffffffffffffffffffffffffffffffffffffff021916908373ffffffffffffffffffffffffffffffffffffffff16021790555084600660006101000a81548173ffffffffffffffffffffffffffffffffffffffff021916908373ffffffffffffffffffffffffffffffffffffffff16021790555083600160006101000a81548173ffffffffffffffffffffffffffffffffffffffff021916908373ffffffffffffffffffffffffffffffffffffffff16021790555082600760006101000a81548173ffffffffffffffffffffffffffffffffffffffff021916908373ffffffffffffffffffffffffffffffffffffffff16021790555081600360006101000a81548173ffffffffffffffffffffffffffffffffffffffff021916908373ffffffffffffffffffffffffffffffffffffffff16021790555080600860006101000a81548173ffffffffffffffffffffffffffffffffffffffff021916908373ffffffffffffffffffffffffffffffffffffffff1602179055506040518061010001604052806040518060400160405280600781526020017f44656661756c7400000000000000000000000000000000000000000000000000815250815260200160148152602001603c815260200160148152602001670de0b6b3a76400006005028152602001670de0b6b3a76400006001028152602001670de0b6b3a7640000600a02815260200166038d7ea4c6800061012c02815250600960008201518160000190805190602001906200041192919062000469565b506020820151816001015560408201518160020155606082015181600301556080820151816004015560a0820151816005015560c0820151816006015560e08201518160070155905050505050505050505062000518565b828054600181600116156101000203166002900490600052602060002090601f016020900481019282601f10620004ac57805160ff1916838001178555620004dd565b82800160010185558215620004dd579182015b82811115620004dc578251825591602001919060010190620004bf565b5b509050620004ec9190620004f0565b5090565b6200051591905b8082111562000511576000816000905550600101620004f7565b5090565b90565b61251380620005286000396000f3fe608060405234801561001057600080fd5b50600436106101165760003560e01c80638f32d59b116100a2578063bf5c88ff11610071578063bf5c88ff146104cc578063cbd8b036146104ea578063d4b6838e14610518578063d610bf0f14610562578063f2fde38b146105c657610116565b80638f32d59b146102fd5780639aee8f5b1461031f578063a0649f401461034d578063a39fac121461044f57610116565b8063746fa26e116100e9578063746fa26e1461022f5780637efff8871461025d57806386b126811461027b5780638a3ae54f146102855780638da5cb5b146102b357610116565b80630cbfef9f1461011b578063284503f5146101255780632a1d5e471461015d578063719109911461017b575b600080fd5b61012361060a565b005b61015b6004803603604081101561013b57600080fd5b81019080803590602001909291908035906020019092919050505061073f565b005b610165610bec565b6040518082815260200191505060405180910390f35b610183610bf2565b604051808060200189815260200188815260200187815260200186815260200185815260200184815260200183815260200182810382528a818151815260200191508051906020019080838360005b838110156101ed5780820151818401526020810190506101d2565b50505050905090810190601f16801561021a5780820380516001836020036101000a031916815260200191505b50995050505050505050505060405180910390f35b61025b6004803603602081101561024557600080fd5b8101908080359060200190929190505050610cc0565b005b610265610d46565b6040518082815260200191505060405180910390f35b610283610d4c565b005b6102b16004803603602081101561029b57600080fd5b8101908080359060200190929190505050610fff565b005b6102bb61100b565b604051808273ffffffffffffffffffffffffffffffffffffffff1673ffffffffffffffffffffffffffffffffffffffff16815260200191505060405180910390f35b610305611034565b604051808215151515815260200191505060405180910390f35b61034b6004803603602081101561033557600080fd5b810190808035906020019092919050505061108b565b005b61044d600480360361010081101561036457600080fd5b810190808035906020019064010000000081111561038157600080fd5b82018360208201111561039357600080fd5b803590602001918460018302840111640100000000831117156103b557600080fd5b91908080601f016020809104026020016040519081016040528093929190818152602001838380828437600081840152601f19601f82011690508083019250505050505050919291929080359060200190929190803590602001909291908035906020019092919080359060200190929190803590602001909291908035906020019092919080359060200190929190505050611111565b005b6104576112bd565b604051808373ffffffffffffffffffffffffffffffffffffffff1673ffffffffffffffffffffffffffffffffffffffff1681526020018273ffffffffffffffffffffffffffffffffffffffff1673ffffffffffffffffffffffffffffffffffffffff1681526020019250505060405180910390f35b6104d461130e565b6040518082815260200191505060405180910390f35b6105166004803603602081101561050057600080fd5b8101908080359060200190929190505050611314565b005b61052061139a565b604051808273ffffffffffffffffffffffffffffffffffffffff1673ffffffffffffffffffffffffffffffffffffffff16815260200191505060405180910390f35b6105c46004803603604081101561057857600080fd5b81019080803573ffffffffffffffffffffffffffffffffffffffff169060200190929190803573ffffffffffffffffffffffffffffffffffffffff1690602001909291905050506113c0565b005b610608600480360360208110156105dc57600080fd5b81019080803573ffffffffffffffffffffffffffffffffffffffff1690602001909291905050506114c0565b005b610612611034565b610684576040517f08c379a00000000000000000000000000000000000000000000000000000000081526004018080602001828103825260208152602001807f4f776e61626c653a2063616c6c6572206973206e6f7420746865206f776e657281525060200191505060405180910390fd5b600160009054906101000a900473ffffffffffffffffffffffffffffffffffffffff1673ffffffffffffffffffffffffffffffffffffffff1663f2fde38b336040518263ffffffff1660e01b8152600401808273ffffffffffffffffffffffffffffffffffffffff1673ffffffffffffffffffffffffffffffffffffffff168152602001915050600060405180830381600087803b15801561072557600080fd5b505af1158015610739573d6000803e3d6000fd5b50505050565b610747611034565b6107b9576040517f08c379a00000000000000000000000000000000000000000000000000000000081526004018080602001828103825260208152602001807f4f776e61626c653a2063616c6c6572206973206e6f7420746865206f776e657281525060200191505060405180910390fd5b600082141561091e5760115482111561081d576040517f08c379a000000000000000000000000000000000000000000000000000000000815260040180806020018281038252602381526020018061240b6023913960400191505060405180910390fd5b600460009054906101000a900473ffffffffffffffffffffffffffffffffffffffff1673ffffffffffffffffffffffffffffffffffffffff1663a9059cbb33836040518363ffffffff1660e01b8152600401808373ffffffffffffffffffffffffffffffffffffffff1673ffffffffffffffffffffffffffffffffffffffff16815260200182815260200192505050602060405180830381600087803b1580156108c657600080fd5b505af11580156108da573d6000803e3d6000fd5b505050506040513d60208110156108f057600080fd5b8101908080519060200190929190505050506109178160115461154690919063ffffffff16565b6011819055505b6001821415610a8357601254821115610982576040517f08c379a00000000000000000000000000000000000000000000000000000000081526004018080602001828103825260228152602001806124556022913960400191505060405180910390fd5b600460009054906101000a900473ffffffffffffffffffffffffffffffffffffffff1673ffffffffffffffffffffffffffffffffffffffff1663a9059cbb33836040518363ffffffff1660e01b8152600401808373ffffffffffffffffffffffffffffffffffffffff1673ffffffffffffffffffffffffffffffffffffffff16815260200182815260200192505050602060405180830381600087803b158015610a2b57600080fd5b505af1158015610a3f573d6000803e3d6000fd5b505050506040513d6020811015610a5557600080fd5b810190808051906020019092919050505050610a7c8160125461154690919063ffffffff16565b6012819055505b6002821415610be857601354821115610ae7576040517f08c379a00000000000000000000000000000000000000000000000000000000081526004018080602001828103825260248152602001806124bb6024913960400191505060405180910390fd5b600460009054906101000a900473ffffffffffffffffffffffffffffffffffffffff1673ffffffffffffffffffffffffffffffffffffffff1663a9059cbb33836040518363ffffffff1660e01b8152600401808373ffffffffffffffffffffffffffffffffffffffff1673ffffffffffffffffffffffffffffffffffffffff16815260200182815260200192505050602060405180830381600087803b158015610b9057600080fd5b505af1158015610ba4573d6000803e3d6000fd5b505050506040513d6020811015610bba57600080fd5b810190808051906020019092919050505050610be18160135461154690919063ffffffff16565b6013819055505b5050565b60125481565b6009806000018054600181600116156101000203166002900480601f016020809104026020016040519081016040528092919081815260200182805460018160011615610100020316600290048015610c8c5780601f10610c6157610100808354040283529160200191610c8c565b820191906000526020600020905b815481529060010190602001808311610c6f57829003601f168201915b5050505050908060010154908060020154908060030154908060040154908060050154908060060154908060070154905088565b610cc8611034565b610d3a576040517f08c379a00000000000000000000000000000000000000000000000000000000081526004018080602001828103825260208152602001807f4f776e61626c653a2063616c6c6572206973206e6f7420746865206f776e657281525060200191505060405180910390fd5b610d43816115cf565b50565b60135481565b600760009054906101000a900473ffffffffffffffffffffffffffffffffffffffff1673ffffffffffffffffffffffffffffffffffffffff163373ffffffffffffffffffffffffffffffffffffffff1614610e0f576040517f08c379a000000000000000000000000000000000000000000000000000000000815260040180806020018281038252601f8152602001807f4f6e6c79206e6f646520616464726573732063616e2063616c6c20746869730081525060200191505060405180910390fd5b6000600160009054906101000a900473ffffffffffffffffffffffffffffffffffffffff1673ffffffffffffffffffffffffffffffffffffffff1663501883016040518163ffffffff1660e01b815260040160206040518083038186803b158015610e7957600080fd5b505afa158015610e8d573d6000803e3d6000fd5b505050506040513d6020811015610ea357600080fd5b810190808051906020019092919050505090506009600401548110610ecc57610ecb81611842565b5b600960050154600760009054906101000a900473ffffffffffffffffffffffffffffffffffffffff1673ffffffffffffffffffffffffffffffffffffffff163111610fe257600073ffffffffffffffffffffffffffffffffffffffff16600760009054906101000a900473ffffffffffffffffffffffffffffffffffffffff1673ffffffffffffffffffffffffffffffffffffffff161415610fd6576040517f08c379a00000000000000000000000000000000000000000000000000000000081526004018080602001828103825260188152602001807f496e76616c6964204c696e6b4e6f64652041646472657373000000000000000081525060200191505060405180910390fd5b610fe1601354611a7c565b5b60096006015460125411610ffc57610ffb6012546115cf565b5b50565b61100881611842565b50565b60008060009054906101000a900473ffffffffffffffffffffffffffffffffffffffff16905090565b60008060009054906101000a900473ffffffffffffffffffffffffffffffffffffffff1673ffffffffffffffffffffffffffffffffffffffff163373ffffffffffffffffffffffffffffffffffffffff1614905090565b611093611034565b611105576040517f08c379a00000000000000000000000000000000000000000000000000000000081526004018080602001828103825260208152602001807f4f776e61626c653a2063616c6c6572206973206e6f7420746865206f776e657281525060200191505060405180910390fd5b61110e81611e07565b50565b611119611034565b61118b576040517f08c379a00000000000000000000000000000000000000000000000000000000081526004018080602001828103825260208152602001807f4f776e61626c653a2063616c6c6572206973206e6f7420746865206f776e657281525060200191505060405180910390fd5b60006111a0878961200190919063ffffffff16565b90506111b5868261200190919063ffffffff16565b905060648114611210576040517f08c379a00000000000000000000000000000000000000000000000000000000081526004018080602001828103825260238152602001806124986023913960400191505060405180910390fd5b6040518061010001604052808a8152602001898152602001888152602001878152602001868152602001858152602001848152602001838152506009600082015181600001908051906020019061126892919061231a565b506020820151816001015560408201518160020155606082015181600301556080820151816004015560a0820151816005015560c0820151816006015560e08201518160070155905050505050505050505050565b600080600160009054906101000a900473ffffffffffffffffffffffffffffffffffffffff16600760009054906101000a900473ffffffffffffffffffffffffffffffffffffffff16915091509091565b60115481565b61131c611034565b61138e576040517f08c379a00000000000000000000000000000000000000000000000000000000081526004018080602001828103825260208152602001807f4f776e61626c653a2063616c6c6572206973206e6f7420746865206f776e657281525060200191505060405180910390fd5b61139781611a7c565b50565b600760009054906101000a900473ffffffffffffffffffffffffffffffffffffffff1681565b6113c8611034565b61143a576040517f08c379a00000000000000000000000000000000000000000000000000000000081526004018080602001828103825260208152602001807f4f776e61626c653a2063616c6c6572206973206e6f7420746865206f776e657281525060200191505060405180910390fd5b81600160006101000a81548173ffffffffffffffffffffffffffffffffffffffff021916908373ffffffffffffffffffffffffffffffffffffffff16021790555080600760006101000a81548173ffffffffffffffffffffffffffffffffffffffff021916908373ffffffffffffffffffffffffffffffffffffffff1602179055505050565b6114c8611034565b61153a576040517f08c379a00000000000000000000000000000000000000000000000000000000081526004018080602001828103825260208152602001807f4f776e61626c653a2063616c6c6572206973206e6f7420746865206f776e657281525060200191505060405180910390fd5b61154381612089565b50565b6000828211156115be576040517f08c379a000000000000000000000000000000000000000000000000000000000815260040180806020018281038252601e8152602001807f536166654d6174683a207375627472616374696f6e206f766572666c6f77000081525060200191505060405180910390fd5b600082840390508091505092915050565b60125481111561162a576040517f08c379a000000000000000000000000000000000000000000000000000000000815260040180806020018281038252602781526020018061242e6027913960400191505060405180910390fd5b600560009054906101000a900473ffffffffffffffffffffffffffffffffffffffff1673ffffffffffffffffffffffffffffffffffffffff1663095ea7b3600860009054906101000a900473ffffffffffffffffffffffffffffffffffffffff16606484016040518363ffffffff1660e01b8152600401808373ffffffffffffffffffffffffffffffffffffffff1673ffffffffffffffffffffffffffffffffffffffff16815260200182815260200192505050602060405180830381600087803b1580156116f857600080fd5b505af115801561170c573d6000803e3d6000fd5b505050506040513d602081101561172257600080fd5b810190808051906020019092919050505050600360009054906101000a900473ffffffffffffffffffffffffffffffffffffffff1673ffffffffffffffffffffffffffffffffffffffff1663d2d0e066600560009054906101000a900473ffffffffffffffffffffffffffffffffffffffff168360006040518463ffffffff1660e01b8152600401808473ffffffffffffffffffffffffffffffffffffffff1673ffffffffffffffffffffffffffffffffffffffff1681526020018381526020018261ffff1681526020019350505050600060405180830381600087803b15801561180c57600080fd5b505af1158015611820573d6000803e3d6000fd5b505050506118398160125461154690919063ffffffff16565b60128190555050565b600160009054906101000a900473ffffffffffffffffffffffffffffffffffffffff1673ffffffffffffffffffffffffffffffffffffffff1663501883016040518163ffffffff1660e01b815260040160206040518083038186803b1580156118aa57600080fd5b505afa1580156118be573d6000803e3d6000fd5b505050506040513d60208110156118d457600080fd5b810190808051906020019092919050505081111561193d576040517f08c379a00000000000000000000000000000000000000000000000000000000081526004018080602001828103825260258152602001806123c06025913960400191505060405180910390fd5b600160009054906101000a900473ffffffffffffffffffffffffffffffffffffffff1673ffffffffffffffffffffffffffffffffffffffff1663f3fef3a330836040518363ffffffff1660e01b8152600401808373ffffffffffffffffffffffffffffffffffffffff1673ffffffffffffffffffffffffffffffffffffffff16815260200182815260200192505050600060405180830381600087803b1580156119e657600080fd5b505af11580156119fa573d6000803e3d6000fd5b50505050611a21611a10826009600101546121cd565b60115461200190919063ffffffff16565b601181905550611a4a611a39826009600201546121cd565b60125461200190919063ffffffff16565b601281905550611a73611a62826009600301546121cd565b60135461200190919063ffffffff16565b60138190555050565b601354811115611af4576040517f08c379a00000000000000000000000000000000000000000000000000000000081526004018080602001828103825260198152602001807f4e6f7420656e6f756768204c494e4b20746f20746f702d75700000000000000081525060200191505060405180910390fd5b60006009600701548210611b0f576009600701549050611b13565b8190505b6000600260009054906101000a900473ffffffffffffffffffffffffffffffffffffffff1673ffffffffffffffffffffffffffffffffffffffff166395b68fe7836040518263ffffffff1660e01b81526004018082815260200191505060206040518083038186803b158015611b8857600080fd5b505afa158015611b9c573d6000803e3d6000fd5b505050506040513d6020811015611bb257600080fd5b81019080805190602001909291905050509050600460009054906101000a900473ffffffffffffffffffffffffffffffffffffffff1673ffffffffffffffffffffffffffffffffffffffff1663095ea7b3600260009054906101000a900473ffffffffffffffffffffffffffffffffffffffff16846040518363ffffffff1660e01b8152600401808373ffffffffffffffffffffffffffffffffffffffff1673ffffffffffffffffffffffffffffffffffffffff16815260200182815260200192505050602060405180830381600087803b158015611c9057600080fd5b505af1158015611ca4573d6000803e3d6000fd5b505050506040513d6020811015611cba57600080fd5b810190808051906020019092919050505050600260009054906101000a900473ffffffffffffffffffffffffffffffffffffffff1673ffffffffffffffffffffffffffffffffffffffff1663d4e4841d8284610e104201600760009054906101000a900473ffffffffffffffffffffffffffffffffffffffff166040518563ffffffff1660e01b8152600401808581526020018481526020018381526020018273ffffffffffffffffffffffffffffffffffffffff1673ffffffffffffffffffffffffffffffffffffffff168152602001945050505050602060405180830381600087803b158015611dab57600080fd5b505af1158015611dbf573d6000803e3d6000fd5b505050506040513d6020811015611dd557600080fd5b810190808051906020019092919050505050611dfc8260135461154690919063ffffffff16565b601381905550505050565b600660009054906101000a900473ffffffffffffffffffffffffffffffffffffffff1673ffffffffffffffffffffffffffffffffffffffff166370a08231306040518263ffffffff1660e01b8152600401808273ffffffffffffffffffffffffffffffffffffffff1673ffffffffffffffffffffffffffffffffffffffff16815260200191505060206040518083038186803b158015611ea657600080fd5b505afa158015611eba573d6000803e3d6000fd5b505050506040513d6020811015611ed057600080fd5b8101908080519060200190929190505050811115611f56576040517f08c379a000000000000000000000000000000000000000000000000000000000815260040180806020018281038252601c8152602001807f4e6f7420656e6f75676820614c494e4b20696e20636f6e74726163740000000081525060200191505060405180910390fd5b600660009054906101000a900473ffffffffffffffffffffffffffffffffffffffff1673ffffffffffffffffffffffffffffffffffffffff1663db006a75826040518263ffffffff1660e01b815260040180828152602001915050600060405180830381600087803b158015611fcb57600080fd5b505af1158015611fdf573d6000803e3d6000fd5b50505050611ff88160125461200190919063ffffffff16565b60128190555050565b60008082840190508381101561207f576040517f08c379a000000000000000000000000000000000000000000000000000000000815260040180806020018281038252601b8152602001807f536166654d6174683a206164646974696f6e206f766572666c6f77000000000081525060200191505060405180910390fd5b8091505092915050565b600073ffffffffffffffffffffffffffffffffffffffff168173ffffffffffffffffffffffffffffffffffffffff16141561210f576040517f08c379a00000000000000000000000000000000000000000000000000000000081526004018080602001828103825260268152602001806123e56026913960400191505060405180910390fd5b8073ffffffffffffffffffffffffffffffffffffffff166000809054906101000a900473ffffffffffffffffffffffffffffffffffffffff1673ffffffffffffffffffffffffffffffffffffffff167f8be0079c531659141344cd1fd0a4f28419497f9722a3daafe3b4186f6b6457e060405160405180910390a3806000806101000a81548173ffffffffffffffffffffffffffffffffffffffff021916908373ffffffffffffffffffffffffffffffffffffffff16021790555050565b6000806121e460648561220590919063ffffffff16565b90506121f9838261229490919063ffffffff16565b90508091505092915050565b600080821161227c576040517f08c379a000000000000000000000000000000000000000000000000000000000815260040180806020018281038252601a8152602001807f536166654d6174683a206469766973696f6e206279207a65726f00000000000081525060200191505060405180910390fd5b600082848161228757fe5b0490508091505092915050565b6000808314156122a75760009050612314565b60008284029050828482816122b857fe5b041461230f576040517f08c379a00000000000000000000000000000000000000000000000000000000081526004018080602001828103825260218152602001806124776021913960400191505060405180910390fd5b809150505b92915050565b828054600181600116156101000203166002900490600052602060002090601f016020900481019282601f1061235b57805160ff1916838001178555612389565b82800160010185558215612389579182015b8281111561238857825182559160200191906001019061236d565b5b509050612396919061239a565b5090565b6123bc91905b808211156123b85760008160009055506001016123a0565b5090565b9056fe4e6f7420656e6f756768204c494e4b20696e206f7261636c6520746f2077697468647261774f776e61626c653a206e6577206f776e657220697320746865207a65726f2061646472657373496e73756666696369656e742066756e647320696e2073746f72652062616c616e63654e6f7420656e6f75676820616c6c6f63617465642041617665204465706f7369742066756e6473496e73756666696369656e742066756e647320696e20616176652062616c616e6365536166654d6174683a206d756c7469706c69636174696f6e206f766572666c6f7750657263656e7420706172616d657465727320646f206e6f7420657175616c20313030496e73756666696369656e742066756e647320696e20746f702d75702062616c616e6365a265627a7a72315820d15033baa7ba550a9b80184baea55174628328118fd867bd2c9b1615b544dbfb64736f6c634300050c0032",
  "source": "pragma solidity ^0.5.0;\r\n\r\nimport \"../contracts/IFlannel.sol\";\r\n\r\n/// @title Flannel Main Contract\r\n/// @author hill399 (github.com/hill399)\r\n/// @notice Extension of Chainlink oracle contract to allow for additional features.\r\ncontract Flannel is IFlannel {\r\n\r\n    /// @notice Constructor to set default contract values.\r\n    /// @param _uniswapExchange address of Uniswap exchange contract.\r\n    /// @param _stdLinkToken address of Chainlink (LINK) token.\r\n    /// @param _aaveLinkToken address of Aave Link token.\r\n    /// @param _aLinkToken address for the aLink Interest Bearing Token.\r\n    /// @param _oracle address of user-deployed oracle contract.\r\n    constructor\r\n    (\r\n    address _uniswapExchange,\r\n    address _stdLinkToken,\r\n    address _aaveLinkToken,\r\n    address _aLinkToken,\r\n    address _oracle,\r\n    address _linkNode,\r\n    address _lendingPool,\r\n    address _lendingPoolApproval\r\n    )\r\n    public\r\n    {\r\n        linkExchangeInterface = UniswapExchangeInterface(_uniswapExchange);\r\n        stdLinkTokenInterface = LinkTokenInterface(_stdLinkToken);\r\n        aaveLinkTokenInterface = LinkTokenInterface(_aaveLinkToken);\r\n        aLinkTokenInterface = AToken(_aLinkToken);\r\n        oracle = Oracle(_oracle);\r\n        linkNode = _linkNode;\r\n\r\n        lendingPool = LendingPool(_lendingPool);\r\n        lendingPoolApproval = _lendingPoolApproval;\r\n\r\n        /* Create default param account */\r\n        /* Fix those token mod values */\r\n        userStoredParams = thresholds(\"Default\", 20, 60, 20, 5 * ETHER, 1 * ETHER, 10 * ETHER, 300 * FINNEY);\r\n    }\r\n\r\n    /// @notice Restricts certain calls to node address only.\r\n    modifier onlyNodeAddress()\r\n    {\r\n        require(msg.sender == linkNode, \"Only node address can call this\");\r\n        _;\r\n    }\r\n\r\n\r\n    /// @notice Single function to call from node initiator job.\r\n    /// @dev Only the user's LINK node should call this.\r\n    /// @dev Function Selector : 0x86b12681\r\n    function flannelCoordinator()\r\n    public\r\n    onlyNodeAddress()\r\n    {\r\n        uint256 availableFunds = oracle.withdrawable();\r\n        if(availableFunds >= userStoredParams.linkThreshold){\r\n           _withdrawFromOracle(availableFunds);\r\n        }\r\n\r\n        if(linkNode.balance <= userStoredParams.ethThreshold){\r\n           require(linkNode != address(0), \"Invalid LinkNode Address\");\r\n           _linkToEthTopUp(topUpBalance);\r\n        }\r\n\r\n        if(aaveBalance <= userStoredParams.aaveThreshold){\r\n           _depositToAave(aaveBalance);\r\n        }\r\n    }\r\n\r\n    /// @notice Manual override to withdraw from oracle\r\n    /// @param _amount Amount of LINK in wei to withdraw.\r\n    /// @dev onlyOwner wrapper for internal function.\r\n    function manualWithdrawFromOracle(uint256 _amount)\r\n    public\r\n //   onlyOwner\r\n    {\r\n        _withdrawFromOracle(_amount);\r\n    }\r\n\r\n    /// @notice Manual override to top-up node address\r\n    /// @param _amount Amount of LINK in wei to convert via Uniswap.\r\n    /// @dev onlyOwner wrapper for internal function.\r\n    function manualLinkToEthTopUp(uint256 _amount)\r\n    public\r\n    onlyOwner\r\n    {\r\n        _linkToEthTopUp(_amount);\r\n    }\r\n\r\n    /// @notice Manual override to deposit LINK to Aave.\r\n    /// @param _amount Amount of LINK in wei to deposit.\r\n    /// @dev onlyOwner wrapper for internal function.\r\n    function manualDepositToAave(uint256 _amount)\r\n    public\r\n    onlyOwner\r\n    {\r\n        _depositToAave(_amount);\r\n    }\r\n\r\n    /// @notice Manual override to withdraw LINK from Aave.\r\n    /// @param _amount Amount of aLINK in wei to withdraw.\r\n    /// @dev onlyOwner wrapper for internal function.\r\n    function manualWithdrawFromAave(uint256 _amount)\r\n    public\r\n    onlyOwner\r\n    {\r\n        _withdrawFromAave(_amount);\r\n    }\r\n\r\n    /// @notice Change address of oracle contract (in case of re-deployment).\r\n    /// @param _liveOracle new address of oracle contract.\r\n    /// @dev Only contract owner can call this.\r\n    function configureOracleSetup(address _liveOracle, address _linkNode)\r\n    public\r\n    onlyOwner\r\n    {\r\n        oracle = Oracle(_liveOracle);\r\n        linkNode = _linkNode;\r\n    }\r\n\r\n    /// @notice Withdraw balances from Flannel contract.\r\n    /// @param _param balance store to withdraw from (see in-line comments).\r\n    /// @param _amount amount in wei to withdraw from given balance store.\r\n    /// @dev only contract owner can call this.\r\n    function withdrawFromFlannel(uint256 _param, uint256 _amount)\r\n    public\r\n    onlyOwner\r\n    {\r\n        if(_param == 0){\r\n            require(_param <= storeBalance, \"Insufficient funds in store balance\");\r\n            stdLinkTokenInterface.transfer(msg.sender, _amount);\r\n            storeBalance = storeBalance.sub(_amount);\r\n        }\r\n        if(_param == 1){\r\n            require(_param <= aaveBalance, \"Insufficient funds in aave balance\");\r\n            stdLinkTokenInterface.transfer(msg.sender, _amount);\r\n            aaveBalance = aaveBalance.sub(_amount);\r\n        }\r\n        if(_param == 2){\r\n            require(_param <= topUpBalance, \"Insufficient funds in top-up balance\");\r\n            stdLinkTokenInterface.transfer(msg.sender, _amount);\r\n            topUpBalance = topUpBalance.sub(_amount);\r\n        }\r\n    }\r\n\r\n    /// @notice Create new parameter settings to distribute withdrawn LINK.\r\n    /// @param _paramsName Reference name of params.\r\n    /// @param _pcUntouched % to leave untouched in contract.\r\n    /// @param _pcAave % to deposited to Aave.\r\n    /// @param _pcTopUp % to allocate to node top-up.\r\n    /// @param _linkThreshold LINK value in wei to determine when to withdraw from Oracle contract.\r\n    /// @param _ethThreshold ETH value in wei to determine when to top-up LINK node.\r\n    /// @param _aaveThreshold LINK value in wei to determine when to trigger Aave deposit.\r\n    /// @param _ethTopUp ETH value in wei to top-up LINK node when triggered.\r\n    /// @dev Only owner can call this.\r\n    function createNewAllowance(\r\n    string memory _paramsName,\r\n    uint256 _pcUntouched,\r\n    uint256 _pcAave,\r\n    uint256 _pcTopUp,\r\n    uint256 _linkThreshold,\r\n    uint256 _ethThreshold,\r\n    uint256 _aaveThreshold,\r\n    uint256 _ethTopUp)\r\n    public\r\n    onlyOwner\r\n    {\r\n        uint256 pcTemp = _pcUntouched.add(_pcAave);\r\n        pcTemp = pcTemp.add(_pcTopUp);\r\n        require(pcTemp == 100, \"Percent parameters do not equal 100\");\r\n        userStoredParams = thresholds(_paramsName, _pcUntouched, _pcAave, _pcTopUp, _linkThreshold, _ethThreshold, _aaveThreshold, _ethTopUp);\r\n    }\r\n\r\n    /// @notice Renounce ownership of oracle contract back to owner of this contract.\r\n    /// @dev Only owner of contract may call this.\r\n    /// @dev Only contract owner can call this.\r\n    function revertOracleOwnership()\r\n    public\r\n    onlyOwner\r\n    {\r\n        oracle.transferOwnership(msg.sender);\r\n    }\r\n\r\n    /// @notice Return the operating addresses tied to this contract.\r\n    function getAddresses()\r\n    public\r\n    view\r\n    returns (address, address)\r\n    {\r\n        return (address(oracle), linkNode);\r\n    }\r\n\r\n}\r\n",
  "sourcePath": "/home/hill/truffle_u/flannel-context/truffle/contracts/Flannel.sol",
  "compiler": {
    "name": "solc",
    "version": "0.5.12+commit.7709ece9.Emscripten.clang"
  },
  "schemaVersion": "3.0.20",
  "updatedAt": "2020-02-17T16:26:42.806Z",
  "networkType": "ethereum",
  "devdoc": {
    "author": "hill399 (github.com/hill399)",
    "methods": {
      "configureOracleSetup(address,address)": {
        "details": "Only contract owner can call this.",
        "params": {
          "_liveOracle": "new address of oracle contract."
        }
      },
      "constructor": {
        "params": {
          "_aLinkToken": "address for the aLink Interest Bearing Token.",
          "_aaveLinkToken": "address of Aave Link token.",
          "_oracle": "address of user-deployed oracle contract.",
          "_stdLinkToken": "address of Chainlink (LINK) token.",
          "_uniswapExchange": "address of Uniswap exchange contract."
        }
      },
      "createNewAllowance(string,uint256,uint256,uint256,uint256,uint256,uint256,uint256)": {
        "details": "Only owner can call this.",
        "params": {
          "_aaveThreshold": "LINK value in wei to determine when to trigger Aave deposit.",
          "_ethThreshold": "ETH value in wei to determine when to top-up LINK node.",
          "_ethTopUp": "ETH value in wei to top-up LINK node when triggered.",
          "_linkThreshold": "LINK value in wei to determine when to withdraw from Oracle contract.",
          "_paramsName": "Reference name of params.",
          "_pcAave": "% to deposited to Aave.",
          "_pcTopUp": "% to allocate to node top-up.",
          "_pcUntouched": "% to leave untouched in contract."
        }
      },
      "flannelCoordinator()": {
        "details": "Only the user's LINK node should call this.Function Selector : 0x86b12681"
      },
      "isOwner()": {
        "details": "Returns true if the caller is the current owner."
      },
      "manualDepositToAave(uint256)": {
        "details": "onlyOwner wrapper for internal function.",
        "params": {
          "_amount": "Amount of LINK in wei to deposit."
        }
      },
      "manualLinkToEthTopUp(uint256)": {
        "details": "onlyOwner wrapper for internal function.",
        "params": {
          "_amount": "Amount of LINK in wei to convert via Uniswap."
        }
      },
      "manualWithdrawFromAave(uint256)": {
        "details": "onlyOwner wrapper for internal function.",
        "params": {
          "_amount": "Amount of aLINK in wei to withdraw."
        }
      },
      "manualWithdrawFromOracle(uint256)": {
        "details": "onlyOwner wrapper for internal function.",
        "params": {
          "_amount": "Amount of LINK in wei to withdraw."
        }
      },
      "owner()": {
        "details": "Returns the address of the current owner."
      },
      "revertOracleOwnership()": {
        "details": "Only owner of contract may call this.Only contract owner can call this."
      },
      "transferOwnership(address)": {
        "details": "Transfers ownership of the contract to a new account (`newOwner`). Can only be called by the current owner."
      },
      "withdrawFromFlannel(uint256,uint256)": {
        "details": "only contract owner can call this.",
        "params": {
          "_amount": "amount in wei to withdraw from given balance store.",
          "_param": "balance store to withdraw from (see in-line comments)."
        }
      }
    },
    "title": "Flannel Main Contract"
  },
  "userdoc": {
    "methods": {
      "configureOracleSetup(address,address)": {
        "notice": "Change address of oracle contract (in case of re-deployment)."
      },
      "constructor": "Constructor to set default contract values.",
      "createNewAllowance(string,uint256,uint256,uint256,uint256,uint256,uint256,uint256)": {
        "notice": "Create new parameter settings to distribute withdrawn LINK."
      },
      "flannelCoordinator()": {
        "notice": "Single function to call from node initiator job."
      },
      "getAddresses()": {
        "notice": "Return the operating addresses tied to this contract."
      },
      "manualDepositToAave(uint256)": {
        "notice": "Manual override to deposit LINK to Aave."
      },
      "manualLinkToEthTopUp(uint256)": {
        "notice": "Manual override to top-up node address"
      },
      "manualWithdrawFromAave(uint256)": {
        "notice": "Manual override to withdraw LINK from Aave."
      },
      "manualWithdrawFromOracle(uint256)": {
        "notice": "Manual override to withdraw from oracle"
      },
      "revertOracleOwnership()": {
        "notice": "Renounce ownership of oracle contract back to owner of this contract."
      },
      "withdrawFromFlannel(uint256,uint256)": {
        "notice": "Withdraw balances from Flannel contract."
      }
    },
    "notice": "Extension of Chainlink oracle contract to allow for additional features."
  }
}