{
  "contractName": "Flannel",
  "abi": [
    {
      "inputs": [
        {
          "internalType": "address",
          "name": "_uniswapExchange",
          "type": "address"
        },
        {
          "internalType": "address",
          "name": "_stdLinkToken",
          "type": "address"
        },
        {
          "internalType": "address",
          "name": "_aaveLinkToken",
          "type": "address"
        },
        {
          "internalType": "address",
          "name": "_aLinkToken",
          "type": "address"
        },
        {
          "internalType": "address",
          "name": "_oracle",
          "type": "address"
        },
        {
          "internalType": "address",
          "name": "_linkNode",
          "type": "address"
        },
        {
          "internalType": "address",
          "name": "_lendingPool",
          "type": "address"
        },
        {
          "internalType": "address",
          "name": "_lendingPoolApproval",
          "type": "address"
        }
      ],
      "payable": false,
      "stateMutability": "nonpayable",
      "type": "constructor"
    },
    {
      "anonymous": false,
      "inputs": [
        {
          "indexed": true,
          "internalType": "address",
          "name": "previousOwner",
          "type": "address"
        },
        {
          "indexed": true,
          "internalType": "address",
          "name": "newOwner",
          "type": "address"
        }
      ],
      "name": "OwnershipTransferred",
      "type": "event"
    },
    {
      "constant": true,
      "inputs": [],
      "name": "aaveBalance",
      "outputs": [
        {
          "internalType": "uint256",
          "name": "",
          "type": "uint256"
        }
      ],
      "payable": false,
      "stateMutability": "view",
      "type": "function"
    },
    {
      "constant": true,
      "inputs": [],
      "name": "availableFunds",
      "outputs": [
        {
          "internalType": "uint256",
          "name": "",
          "type": "uint256"
        }
      ],
      "payable": false,
      "stateMutability": "view",
      "type": "function"
    },
    {
      "constant": true,
      "inputs": [],
      "name": "getALinkBalance",
      "outputs": [
        {
          "internalType": "uint256",
          "name": "",
          "type": "uint256"
        }
      ],
      "payable": false,
      "stateMutability": "view",
      "type": "function"
    },
    {
      "constant": true,
      "inputs": [
        {
          "internalType": "uint256",
          "name": "_amount",
          "type": "uint256"
        }
      ],
      "name": "getLinkToEthPrice",
      "outputs": [
        {
          "internalType": "uint256",
          "name": "",
          "type": "uint256"
        }
      ],
      "payable": false,
      "stateMutability": "view",
      "type": "function"
    },
    {
      "constant": true,
      "inputs": [],
      "name": "getOracleWithdrawable",
      "outputs": [
        {
          "internalType": "uint256",
          "name": "",
          "type": "uint256"
        }
      ],
      "payable": false,
      "stateMutability": "view",
      "type": "function"
    },
    {
      "constant": true,
      "inputs": [],
      "name": "isOwner",
      "outputs": [
        {
          "internalType": "bool",
          "name": "",
          "type": "bool"
        }
      ],
      "payable": false,
      "stateMutability": "view",
      "type": "function"
    },
    {
      "constant": true,
      "inputs": [],
      "name": "linkNode",
      "outputs": [
        {
          "internalType": "address",
          "name": "",
          "type": "address"
        }
      ],
      "payable": false,
      "stateMutability": "view",
      "type": "function"
    },
    {
      "constant": true,
      "inputs": [],
      "name": "owner",
      "outputs": [
        {
          "internalType": "address",
          "name": "",
          "type": "address"
        }
      ],
      "payable": false,
      "stateMutability": "view",
      "type": "function"
    },
    {
      "constant": true,
      "inputs": [],
      "name": "storeBalance",
      "outputs": [
        {
          "internalType": "uint256",
          "name": "",
          "type": "uint256"
        }
      ],
      "payable": false,
      "stateMutability": "view",
      "type": "function"
    },
    {
      "constant": true,
      "inputs": [],
      "name": "topUpBalance",
      "outputs": [
        {
          "internalType": "uint256",
          "name": "",
          "type": "uint256"
        }
      ],
      "payable": false,
      "stateMutability": "view",
      "type": "function"
    },
    {
      "constant": false,
      "inputs": [
        {
          "internalType": "address",
          "name": "newOwner",
          "type": "address"
        }
      ],
      "name": "transferOwnership",
      "outputs": [],
      "payable": false,
      "stateMutability": "nonpayable",
      "type": "function"
    },
    {
      "constant": true,
      "inputs": [],
      "name": "userStoredParams",
      "outputs": [
        {
          "internalType": "string",
          "name": "paramsName",
          "type": "string"
        },
        {
          "internalType": "uint256",
          "name": "pcUntouched",
          "type": "uint256"
        },
        {
          "internalType": "uint256",
          "name": "pcAave",
          "type": "uint256"
        },
        {
          "internalType": "uint256",
          "name": "pcTopUp",
          "type": "uint256"
        },
        {
          "internalType": "uint256",
          "name": "linkThreshold",
          "type": "uint256"
        },
        {
          "internalType": "uint256",
          "name": "ethThreshold",
          "type": "uint256"
        },
        {
          "internalType": "uint256",
          "name": "aaveThreshold",
          "type": "uint256"
        },
        {
          "internalType": "uint256",
          "name": "ethTopUp",
          "type": "uint256"
        }
      ],
      "payable": false,
      "stateMutability": "view",
      "type": "function"
    },
    {
      "constant": false,
      "inputs": [],
      "name": "flannelCoordinator",
      "outputs": [],
      "payable": false,
      "stateMutability": "nonpayable",
      "type": "function"
    },
    {
      "constant": false,
      "inputs": [
        {
          "internalType": "uint256",
          "name": "_amount",
          "type": "uint256"
        }
      ],
      "name": "manualWithdrawFromOracle",
      "outputs": [],
      "payable": false,
      "stateMutability": "nonpayable",
      "type": "function"
    },
    {
      "constant": false,
      "inputs": [
        {
          "internalType": "uint256",
          "name": "_amount",
          "type": "uint256"
        }
      ],
      "name": "manualLinkToEthTopUp",
      "outputs": [],
      "payable": false,
      "stateMutability": "nonpayable",
      "type": "function"
    },
    {
      "constant": false,
      "inputs": [
        {
          "internalType": "uint256",
          "name": "_amount",
          "type": "uint256"
        }
      ],
      "name": "manualDepositToAave",
      "outputs": [],
      "payable": false,
      "stateMutability": "nonpayable",
      "type": "function"
    },
    {
      "constant": false,
      "inputs": [
        {
          "internalType": "uint256",
          "name": "_amount",
          "type": "uint256"
        }
      ],
      "name": "manualWithdrawFromAave",
      "outputs": [],
      "payable": false,
      "stateMutability": "nonpayable",
      "type": "function"
    },
    {
      "constant": false,
      "inputs": [
        {
          "internalType": "address",
          "name": "_liveOracle",
          "type": "address"
        },
        {
          "internalType": "address",
          "name": "_linkNode",
          "type": "address"
        }
      ],
      "name": "configureOracleSetup",
      "outputs": [],
      "payable": false,
      "stateMutability": "nonpayable",
      "type": "function"
    },
    {
      "constant": false,
      "inputs": [
        {
          "internalType": "uint256",
          "name": "_param",
          "type": "uint256"
        },
        {
          "internalType": "uint256",
          "name": "_amount",
          "type": "uint256"
        }
      ],
      "name": "withdrawFromFlannel",
      "outputs": [],
      "payable": false,
      "stateMutability": "nonpayable",
      "type": "function"
    },
    {
      "constant": false,
      "inputs": [
        {
          "internalType": "string",
          "name": "_paramsName",
          "type": "string"
        },
        {
          "internalType": "uint256",
          "name": "_pcUntouched",
          "type": "uint256"
        },
        {
          "internalType": "uint256",
          "name": "_pcAave",
          "type": "uint256"
        },
        {
          "internalType": "uint256",
          "name": "_pcTopUp",
          "type": "uint256"
        },
        {
          "internalType": "uint256",
          "name": "_linkThreshold",
          "type": "uint256"
        },
        {
          "internalType": "uint256",
          "name": "_ethThreshold",
          "type": "uint256"
        },
        {
          "internalType": "uint256",
          "name": "_aaveThreshold",
          "type": "uint256"
        },
        {
          "internalType": "uint256",
          "name": "_ethTopUp",
          "type": "uint256"
        }
      ],
      "name": "createNewAllowance",
      "outputs": [],
      "payable": false,
      "stateMutability": "nonpayable",
      "type": "function"
    },
    {
      "constant": false,
      "inputs": [
        {
          "internalType": "uint256",
          "name": "_to",
          "type": "uint256"
        },
        {
          "internalType": "uint256",
          "name": "_from",
          "type": "uint256"
        },
        {
          "internalType": "uint256",
          "name": "_value",
          "type": "uint256"
        }
      ],
      "name": "rebalance",
      "outputs": [],
      "payable": false,
      "stateMutability": "nonpayable",
      "type": "function"
    },
    {
      "constant": false,
      "inputs": [],
      "name": "revertOracleOwnership",
      "outputs": [],
      "payable": false,
      "stateMutability": "nonpayable",
      "type": "function"
    },
    {
      "constant": true,
      "inputs": [],
      "name": "getAddresses",
      "outputs": [
        {
          "internalType": "address",
          "name": "",
          "type": "address"
        },
        {
          "internalType": "address",
          "name": "",
          "type": "address"
        }
      ],
      "payable": false,
      "stateMutability": "view",
      "type": "function"
    }
  ],
  "bytecode": "0x60806040523480156200001157600080fd5b5060405162002eef38038062002eef83398181016040526101008110156200003857600080fd5b810190808051906020019092919080519060200190929190805190602001909291908051906020019092919080519060200190929190805190602001909291908051906020019092919080519060200190929190505050336000806101000a81548173ffffffffffffffffffffffffffffffffffffffff021916908373ffffffffffffffffffffffffffffffffffffffff1602179055506000809054906101000a900473ffffffffffffffffffffffffffffffffffffffff1673ffffffffffffffffffffffffffffffffffffffff16600073ffffffffffffffffffffffffffffffffffffffff167f8be0079c531659141344cd1fd0a4f28419497f9722a3daafe3b4186f6b6457e060405160405180910390a387600260006101000a81548173ffffffffffffffffffffffffffffffffffffffff021916908373ffffffffffffffffffffffffffffffffffffffff16021790555086600460006101000a81548173ffffffffffffffffffffffffffffffffffffffff021916908373ffffffffffffffffffffffffffffffffffffffff16021790555085600560006101000a81548173ffffffffffffffffffffffffffffffffffffffff021916908373ffffffffffffffffffffffffffffffffffffffff16021790555084600660006101000a81548173ffffffffffffffffffffffffffffffffffffffff021916908373ffffffffffffffffffffffffffffffffffffffff16021790555083600160006101000a81548173ffffffffffffffffffffffffffffffffffffffff021916908373ffffffffffffffffffffffffffffffffffffffff16021790555082600760006101000a81548173ffffffffffffffffffffffffffffffffffffffff021916908373ffffffffffffffffffffffffffffffffffffffff16021790555081600360006101000a81548173ffffffffffffffffffffffffffffffffffffffff021916908373ffffffffffffffffffffffffffffffffffffffff16021790555080600860006101000a81548173ffffffffffffffffffffffffffffffffffffffff021916908373ffffffffffffffffffffffffffffffffffffffff1602179055506040518061010001604052806040518060400160405280600781526020017f44656661756c7400000000000000000000000000000000000000000000000000815250815260200160148152602001603c815260200160148152602001670de0b6b3a76400006005028152602001670de0b6b3a76400006001028152602001670de0b6b3a7640000600302815260200166038d7ea4c6800061012c02815250600960008201518160000190805190602001906200041192919062000469565b506020820151816001015560408201518160020155606082015181600301556080820151816004015560a0820151816005015560c0820151816006015560e08201518160070155905050505050505050505062000518565b828054600181600116156101000203166002900490600052602060002090601f016020900481019282601f10620004ac57805160ff1916838001178555620004dd565b82800160010185558215620004dd579182015b82811115620004dc578251825591602001919060010190620004bf565b5b509050620004ec9190620004f0565b5090565b6200051591905b8082111562000511576000816000905550600101620004f7565b5090565b90565b6129c780620005286000396000f3fe608060405234801561001057600080fd5b506004361061014d5760003560e01c80638a3ae54f116100c3578063bf5c88ff1161007c578063bf5c88ff146105c3578063cbd8b036146105e1578063ce4204161461060f578063d4b6838e1461062d578063d610bf0f14610677578063f2fde38b146106db5761014d565b80638a3ae54f1461037c5780638da5cb5b146103aa5780638f32d59b146103f45780639aee8f5b14610416578063a0649f4014610444578063a39fac12146105465761014d565b806346fcff4c1161011557806346fcff4c146102365780637191099114610254578063746fa26e146103085780637efff8871461033657806386b1268114610354578063880216541461035e5761014d565b80630cbfef9f14610152578063255e77aa1461015c578063284503f51461019e5780632a1d5e47146101d657806332b5d1ab146101f4575b600080fd5b61015a61071f565b005b6101886004803603602081101561017257600080fd5b8101908080359060200190929190505050610854565b6040518082815260200191505060405180910390f35b6101d4600480360360408110156101b457600080fd5b81019080803590602001909291908035906020019092919050505061090b565b005b6101de610db8565b6040518082815260200191505060405180910390f35b6102346004803603606081101561020a57600080fd5b81019080803590602001909291908035906020019092919080359060200190929190505050610dbe565b005b61023e61109b565b6040518082815260200191505060405180910390f35b61025c6110a1565b604051808060200189815260200188815260200187815260200186815260200185815260200184815260200183815260200182810382528a818151815260200191508051906020019080838360005b838110156102c65780820151818401526020810190506102ab565b50505050905090810190601f1680156102f35780820380516001836020036101000a031916815260200191505b50995050505050505050505060405180910390f35b6103346004803603602081101561031e57600080fd5b810190808035906020019092919050505061116f565b005b61033e6111f5565b6040518082815260200191505060405180910390f35b61035c6111fb565b005b61036661144d565b6040518082815260200191505060405180910390f35b6103a86004803603602081101561039257600080fd5b81019080803590602001909291905050506114f7565b005b6103b261157d565b604051808273ffffffffffffffffffffffffffffffffffffffff1673ffffffffffffffffffffffffffffffffffffffff16815260200191505060405180910390f35b6103fc6115a6565b604051808215151515815260200191505060405180910390f35b6104426004803603602081101561042c57600080fd5b81019080803590602001909291905050506115fd565b005b610544600480360361010081101561045b57600080fd5b810190808035906020019064010000000081111561047857600080fd5b82018360208201111561048a57600080fd5b803590602001918460018302840111640100000000831117156104ac57600080fd5b91908080601f016020809104026020016040519081016040528093929190818152602001838380828437600081840152601f19601f82011690508083019250505050505050919291929080359060200190929190803590602001909291908035906020019092919080359060200190929190803590602001909291908035906020019092919080359060200190929190505050611683565b005b61054e61182f565b604051808373ffffffffffffffffffffffffffffffffffffffff1673ffffffffffffffffffffffffffffffffffffffff1681526020018273ffffffffffffffffffffffffffffffffffffffff1673ffffffffffffffffffffffffffffffffffffffff1681526020019250505060405180910390f35b6105cb611880565b6040518082815260200191505060405180910390f35b61060d600480360360208110156105f757600080fd5b8101908080359060200190929190505050611886565b005b61061761190e565b6040518082815260200191505060405180910390f35b6106356119ef565b604051808273ffffffffffffffffffffffffffffffffffffffff1673ffffffffffffffffffffffffffffffffffffffff16815260200191505060405180910390f35b6106d96004803603604081101561068d57600080fd5b81019080803573ffffffffffffffffffffffffffffffffffffffff169060200190929190803573ffffffffffffffffffffffffffffffffffffffff169060200190929190505050611a15565b005b61071d600480360360208110156106f157600080fd5b81019080803573ffffffffffffffffffffffffffffffffffffffff169060200190929190505050611b15565b005b6107276115a6565b610799576040517f08c379a00000000000000000000000000000000000000000000000000000000081526004018080602001828103825260208152602001807f4f776e61626c653a2063616c6c6572206973206e6f7420746865206f776e657281525060200191505060405180910390fd5b600160009054906101000a900473ffffffffffffffffffffffffffffffffffffffff1673ffffffffffffffffffffffffffffffffffffffff1663f2fde38b336040518263ffffffff1660e01b8152600401808273ffffffffffffffffffffffffffffffffffffffff1673ffffffffffffffffffffffffffffffffffffffff168152602001915050600060405180830381600087803b15801561083a57600080fd5b505af115801561084e573d6000803e3d6000fd5b50505050565b6000600260009054906101000a900473ffffffffffffffffffffffffffffffffffffffff1673ffffffffffffffffffffffffffffffffffffffff166395b68fe7836040518263ffffffff1660e01b81526004018082815260200191505060206040518083038186803b1580156108c957600080fd5b505afa1580156108dd573d6000803e3d6000fd5b505050506040513d60208110156108f357600080fd5b81019080805190602001909291905050509050919050565b6109136115a6565b610985576040517f08c379a00000000000000000000000000000000000000000000000000000000081526004018080602001828103825260208152602001807f4f776e61626c653a2063616c6c6572206973206e6f7420746865206f776e657281525060200191505060405180910390fd5b6000821415610aea576011548211156109e9576040517f08c379a000000000000000000000000000000000000000000000000000000000815260040180806020018281038252602381526020018061285a6023913960400191505060405180910390fd5b600460009054906101000a900473ffffffffffffffffffffffffffffffffffffffff1673ffffffffffffffffffffffffffffffffffffffff1663a9059cbb33836040518363ffffffff1660e01b8152600401808373ffffffffffffffffffffffffffffffffffffffff1673ffffffffffffffffffffffffffffffffffffffff16815260200182815260200192505050602060405180830381600087803b158015610a9257600080fd5b505af1158015610aa6573d6000803e3d6000fd5b505050506040513d6020811015610abc57600080fd5b810190808051906020019092919050505050610ae381601154611b9b90919063ffffffff16565b6011819055505b6001821415610c4f57601254821115610b4e576040517f08c379a00000000000000000000000000000000000000000000000000000000081526004018080602001828103825260228152602001806128a46022913960400191505060405180910390fd5b600460009054906101000a900473ffffffffffffffffffffffffffffffffffffffff1673ffffffffffffffffffffffffffffffffffffffff1663a9059cbb33836040518363ffffffff1660e01b8152600401808373ffffffffffffffffffffffffffffffffffffffff1673ffffffffffffffffffffffffffffffffffffffff16815260200182815260200192505050602060405180830381600087803b158015610bf757600080fd5b505af1158015610c0b573d6000803e3d6000fd5b505050506040513d6020811015610c2157600080fd5b810190808051906020019092919050505050610c4881601254611b9b90919063ffffffff16565b6012819055505b6002821415610db457601354821115610cb3576040517f08c379a000000000000000000000000000000000000000000000000000000000815260040180806020018281038252602481526020018061296f6024913960400191505060405180910390fd5b600460009054906101000a900473ffffffffffffffffffffffffffffffffffffffff1673ffffffffffffffffffffffffffffffffffffffff1663a9059cbb33836040518363ffffffff1660e01b8152600401808373ffffffffffffffffffffffffffffffffffffffff1673ffffffffffffffffffffffffffffffffffffffff16815260200182815260200192505050602060405180830381600087803b158015610d5c57600080fd5b505af1158015610d70573d6000803e3d6000fd5b505050506040513d6020811015610d8657600080fd5b810190808051906020019092919050505050610dad81601354611b9b90919063ffffffff16565b6013819055505b5050565b60125481565b610dc66115a6565b610e38576040517f08c379a00000000000000000000000000000000000000000000000000000000081526004018080602001828103825260208152602001807f4f776e61626c653a2063616c6c6572206973206e6f7420746865206f776e657281525060200191505060405180910390fd5b6000821415610f0257806011541015610e9c576040517f08c379a000000000000000000000000000000000000000000000000000000000815260040180806020018281038252602281526020018061290a6022913960400191505060405180910390fd5b6001831415610ec157610eba81601254611c2490919063ffffffff16565b6012819055505b6002831415610ee657610edf81601354611c2490919063ffffffff16565b6013819055505b610efb81601154611b9b90919063ffffffff16565b6011819055505b6001821415610fcc57806012541015610f66576040517f08c379a000000000000000000000000000000000000000000000000000000000815260040180806020018281038252602181526020018061294e6021913960400191505060405180910390fd5b6000831415610f8b57610f8481601154611c2490919063ffffffff16565b6011819055505b6002831415610fb057610fa981601354611c2490919063ffffffff16565b6013819055505b610fc581601254611b9b90919063ffffffff16565b6012819055505b600282141561109657806013541015611030576040517f08c379a000000000000000000000000000000000000000000000000000000000815260040180806020018281038252602281526020018061292c6022913960400191505060405180910390fd5b60008314156110555761104e81601154611c2490919063ffffffff16565b6011819055505b600183141561107a5761107381601254611c2490919063ffffffff16565b6012819055505b61108f81601354611b9b90919063ffffffff16565b6013819055505b505050565b60145481565b6009806000018054600181600116156101000203166002900480601f01602080910402602001604051908101604052809291908181526020018280546001816001161561010002031660029004801561113b5780601f106111105761010080835404028352916020019161113b565b820191906000526020600020905b81548152906001019060200180831161111e57829003601f168201915b5050505050908060010154908060020154908060030154908060040154908060050154908060060154908060070154905088565b6111776115a6565b6111e9576040517f08c379a00000000000000000000000000000000000000000000000000000000081526004018080602001828103825260208152602001807f4f776e61626c653a2063616c6c6572206973206e6f7420746865206f776e657281525060200191505060405180910390fd5b6111f281611cac565b50565b60135481565b600460009054906101000a900473ffffffffffffffffffffffffffffffffffffffff1673ffffffffffffffffffffffffffffffffffffffff166370a08231600160009054906101000a900473ffffffffffffffffffffffffffffffffffffffff166040518263ffffffff1660e01b8152600401808273ffffffffffffffffffffffffffffffffffffffff1673ffffffffffffffffffffffffffffffffffffffff168152602001915050602060405180830381600087803b1580156112be57600080fd5b505af11580156112d2573d6000803e3d6000fd5b505050506040513d60208110156112e857600080fd5b81019080805190602001909291905050506014819055506009600401546014541061131957611318601454611f1f565b5b600960050154600760009054906101000a900473ffffffffffffffffffffffffffffffffffffffff1673ffffffffffffffffffffffffffffffffffffffff16311161143157600073ffffffffffffffffffffffffffffffffffffffff16600760009054906101000a900473ffffffffffffffffffffffffffffffffffffffff1673ffffffffffffffffffffffffffffffffffffffff161415611423576040517f08c379a00000000000000000000000000000000000000000000000000000000081526004018080602001828103825260188152602001807f496e76616c6964204c696e6b4e6f64652041646472657373000000000000000081525060200191505060405180910390fd5b61143060135460016120be565b5b6009600601546012541061144b5761144a601254611cac565b5b565b6000600160009054906101000a900473ffffffffffffffffffffffffffffffffffffffff1673ffffffffffffffffffffffffffffffffffffffff1663501883016040518163ffffffff1660e01b815260040160206040518083038186803b1580156114b757600080fd5b505afa1580156114cb573d6000803e3d6000fd5b505050506040513d60208110156114e157600080fd5b8101908080519060200190929190505050905090565b6114ff6115a6565b611571576040517f08c379a00000000000000000000000000000000000000000000000000000000081526004018080602001828103825260208152602001807f4f776e61626c653a2063616c6c6572206973206e6f7420746865206f776e657281525060200191505060405180910390fd5b61157a81611f1f565b50565b60008060009054906101000a900473ffffffffffffffffffffffffffffffffffffffff16905090565b60008060009054906101000a900473ffffffffffffffffffffffffffffffffffffffff1673ffffffffffffffffffffffffffffffffffffffff163373ffffffffffffffffffffffffffffffffffffffff1614905090565b6116056115a6565b611677576040517f08c379a00000000000000000000000000000000000000000000000000000000081526004018080602001828103825260208152602001807f4f776e61626c653a2063616c6c6572206973206e6f7420746865206f776e657281525060200191505060405180910390fd5b611680816123b0565b50565b61168b6115a6565b6116fd576040517f08c379a00000000000000000000000000000000000000000000000000000000081526004018080602001828103825260208152602001807f4f776e61626c653a2063616c6c6572206973206e6f7420746865206f776e657281525060200191505060405180910390fd5b60006117128789611c2490919063ffffffff16565b90506117278682611c2490919063ffffffff16565b905060648114611782576040517f08c379a00000000000000000000000000000000000000000000000000000000081526004018080602001828103825260238152602001806128e76023913960400191505060405180910390fd5b6040518061010001604052808a815260200189815260200188815260200187815260200186815260200185815260200184815260200183815250600960008201518160000190805190602001906117da929190612769565b506020820151816001015560408201518160020155606082015181600301556080820151816004015560a0820151816005015560c0820151816006015560e08201518160070155905050505050505050505050565b600080600160009054906101000a900473ffffffffffffffffffffffffffffffffffffffff16600760009054906101000a900473ffffffffffffffffffffffffffffffffffffffff16915091509091565b60115481565b61188e6115a6565b611900576040517f08c379a00000000000000000000000000000000000000000000000000000000081526004018080602001828103825260208152602001807f4f776e61626c653a2063616c6c6572206973206e6f7420746865206f776e657281525060200191505060405180910390fd5b61190b8160006120be565b50565b6000600660009054906101000a900473ffffffffffffffffffffffffffffffffffffffff1673ffffffffffffffffffffffffffffffffffffffff166370a08231306040518263ffffffff1660e01b8152600401808273ffffffffffffffffffffffffffffffffffffffff1673ffffffffffffffffffffffffffffffffffffffff16815260200191505060206040518083038186803b1580156119af57600080fd5b505afa1580156119c3573d6000803e3d6000fd5b505050506040513d60208110156119d957600080fd5b8101908080519060200190929190505050905090565b600760009054906101000a900473ffffffffffffffffffffffffffffffffffffffff1681565b611a1d6115a6565b611a8f576040517f08c379a00000000000000000000000000000000000000000000000000000000081526004018080602001828103825260208152602001807f4f776e61626c653a2063616c6c6572206973206e6f7420746865206f776e657281525060200191505060405180910390fd5b81600160006101000a81548173ffffffffffffffffffffffffffffffffffffffff021916908373ffffffffffffffffffffffffffffffffffffffff16021790555080600760006101000a81548173ffffffffffffffffffffffffffffffffffffffff021916908373ffffffffffffffffffffffffffffffffffffffff1602179055505050565b611b1d6115a6565b611b8f576040517f08c379a00000000000000000000000000000000000000000000000000000000081526004018080602001828103825260208152602001807f4f776e61626c653a2063616c6c6572206973206e6f7420746865206f776e657281525060200191505060405180910390fd5b611b98816124d8565b50565b600082821115611c13576040517f08c379a000000000000000000000000000000000000000000000000000000000815260040180806020018281038252601e8152602001807f536166654d6174683a207375627472616374696f6e206f766572666c6f77000081525060200191505060405180910390fd5b600082840390508091505092915050565b600080828401905083811015611ca2576040517f08c379a000000000000000000000000000000000000000000000000000000000815260040180806020018281038252601b8152602001807f536166654d6174683a206164646974696f6e206f766572666c6f77000000000081525060200191505060405180910390fd5b8091505092915050565b601254811115611d07576040517f08c379a000000000000000000000000000000000000000000000000000000000815260040180806020018281038252602781526020018061287d6027913960400191505060405180910390fd5b600560009054906101000a900473ffffffffffffffffffffffffffffffffffffffff1673ffffffffffffffffffffffffffffffffffffffff1663095ea7b3600860009054906101000a900473ffffffffffffffffffffffffffffffffffffffff16606484016040518363ffffffff1660e01b8152600401808373ffffffffffffffffffffffffffffffffffffffff1673ffffffffffffffffffffffffffffffffffffffff16815260200182815260200192505050602060405180830381600087803b158015611dd557600080fd5b505af1158015611de9573d6000803e3d6000fd5b505050506040513d6020811015611dff57600080fd5b810190808051906020019092919050505050600360009054906101000a900473ffffffffffffffffffffffffffffffffffffffff1673ffffffffffffffffffffffffffffffffffffffff1663d2d0e066600560009054906101000a900473ffffffffffffffffffffffffffffffffffffffff168360006040518463ffffffff1660e01b8152600401808473ffffffffffffffffffffffffffffffffffffffff1673ffffffffffffffffffffffffffffffffffffffff1681526020018381526020018261ffff1681526020019350505050600060405180830381600087803b158015611ee957600080fd5b505af1158015611efd573d6000803e3d6000fd5b50505050611f1681601254611b9b90919063ffffffff16565b60128190555050565b611f2761144d565b811115611f7f576040517f08c379a000000000000000000000000000000000000000000000000000000000815260040180806020018281038252602581526020018061280f6025913960400191505060405180910390fd5b600160009054906101000a900473ffffffffffffffffffffffffffffffffffffffff1673ffffffffffffffffffffffffffffffffffffffff1663f3fef3a330836040518363ffffffff1660e01b8152600401808373ffffffffffffffffffffffffffffffffffffffff1673ffffffffffffffffffffffffffffffffffffffff16815260200182815260200192505050600060405180830381600087803b15801561202857600080fd5b505af115801561203c573d6000803e3d6000fd5b505050506120636120528260096001015461261c565b601154611c2490919063ffffffff16565b60118190555061208c61207b8260096002015461261c565b601254611c2490919063ffffffff16565b6012819055506120b56120a48260096003015461261c565b601354611c2490919063ffffffff16565b60138190555050565b601354821115612136576040517f08c379a00000000000000000000000000000000000000000000000000000000081526004018080602001828103825260198152602001807f4e6f7420656e6f756768204c494e4b20746f20746f702d75700000000000000081525060200191505060405180910390fd5b6000600960070154831015801561214a5750815b1561215c576009600701549050612160565b8290505b600061216b82610854565b9050600460009054906101000a900473ffffffffffffffffffffffffffffffffffffffff1673ffffffffffffffffffffffffffffffffffffffff1663095ea7b3600260009054906101000a900473ffffffffffffffffffffffffffffffffffffffff16846040518363ffffffff1660e01b8152600401808373ffffffffffffffffffffffffffffffffffffffff1673ffffffffffffffffffffffffffffffffffffffff16815260200182815260200192505050602060405180830381600087803b15801561223857600080fd5b505af115801561224c573d6000803e3d6000fd5b505050506040513d602081101561226257600080fd5b810190808051906020019092919050505050600260009054906101000a900473ffffffffffffffffffffffffffffffffffffffff1673ffffffffffffffffffffffffffffffffffffffff1663d4e4841d8284610e104201600760009054906101000a900473ffffffffffffffffffffffffffffffffffffffff166040518563ffffffff1660e01b8152600401808581526020018481526020018381526020018273ffffffffffffffffffffffffffffffffffffffff1673ffffffffffffffffffffffffffffffffffffffff168152602001945050505050602060405180830381600087803b15801561235357600080fd5b505af1158015612367573d6000803e3d6000fd5b505050506040513d602081101561237d57600080fd5b8101908080519060200190929190505050506123a482601354611b9b90919063ffffffff16565b60138190555050505050565b6123b861190e565b81111561242d576040517f08c379a000000000000000000000000000000000000000000000000000000000815260040180806020018281038252601c8152602001807f4e6f7420656e6f75676820614c494e4b20696e20636f6e74726163740000000081525060200191505060405180910390fd5b600660009054906101000a900473ffffffffffffffffffffffffffffffffffffffff1673ffffffffffffffffffffffffffffffffffffffff1663db006a75826040518263ffffffff1660e01b815260040180828152602001915050600060405180830381600087803b1580156124a257600080fd5b505af11580156124b6573d6000803e3d6000fd5b505050506124cf81601254611c2490919063ffffffff16565b60128190555050565b600073ffffffffffffffffffffffffffffffffffffffff168173ffffffffffffffffffffffffffffffffffffffff16141561255e576040517f08c379a00000000000000000000000000000000000000000000000000000000081526004018080602001828103825260268152602001806128346026913960400191505060405180910390fd5b8073ffffffffffffffffffffffffffffffffffffffff166000809054906101000a900473ffffffffffffffffffffffffffffffffffffffff1673ffffffffffffffffffffffffffffffffffffffff167f8be0079c531659141344cd1fd0a4f28419497f9722a3daafe3b4186f6b6457e060405160405180910390a3806000806101000a81548173ffffffffffffffffffffffffffffffffffffffff021916908373ffffffffffffffffffffffffffffffffffffffff16021790555050565b60008061263360648561265490919063ffffffff16565b905061264883826126e390919063ffffffff16565b90508091505092915050565b60008082116126cb576040517f08c379a000000000000000000000000000000000000000000000000000000000815260040180806020018281038252601a8152602001807f536166654d6174683a206469766973696f6e206279207a65726f00000000000081525060200191505060405180910390fd5b60008284816126d657fe5b0490508091505092915050565b6000808314156126f65760009050612763565b600082840290508284828161270757fe5b041461275e576040517f08c379a00000000000000000000000000000000000000000000000000000000081526004018080602001828103825260218152602001806128c66021913960400191505060405180910390fd5b809150505b92915050565b828054600181600116156101000203166002900490600052602060002090601f016020900481019282601f106127aa57805160ff19168380011785556127d8565b828001600101855582156127d8579182015b828111156127d75782518255916020019190600101906127bc565b5b5090506127e591906127e9565b5090565b61280b91905b808211156128075760008160009055506001016127ef565b5090565b9056fe4e6f7420656e6f756768204c494e4b20696e206f7261636c6520746f2077697468647261774f776e61626c653a206e6577206f776e657220697320746865207a65726f2061646472657373496e73756666696369656e742066756e647320696e2073746f72652062616c616e63654e6f7420656e6f75676820616c6c6f63617465642041617665204465706f7369742066756e6473496e73756666696369656e742066756e647320696e20616176652062616c616e6365536166654d6174683a206d756c7469706c69636174696f6e206f766572666c6f7750657263656e7420706172616d657465727320646f206e6f7420657175616c20313030496e73756666696369656e742066756e647320696e2073746f726542616c616e6365496e73756666696369656e742066756e647320696e20746f70557042616c616e6365496e73756666696369656e742066756e647320696e206161766542616c616e6365496e73756666696369656e742066756e647320696e20746f702d75702062616c616e6365a265627a7a72315820b59f39144cf54856836ab0380e5b46b6dcf11cde0b6cde2bf236aff75583765064736f6c634300050c0032",
  "source": "pragma solidity ^0.5.0;\n\nimport \"../contracts/IFlannel.sol\";\n\n/// @title Flannel Main Contract\n/// @author hill399 (github.com/hill399)\n/// @notice Extension of Chainlink oracle contract to allow for additional features.\ncontract Flannel is IFlannel {\n    \n    //Debug remove after\n    uint256 public availableFunds;\n\n    /// @notice Constructor to set default contract values.\n    /// @param _uniswapExchange address of Uniswap exchange contract.\n    /// @param _stdLinkToken address of Chainlink (LINK) token.\n    /// @param _aaveLinkToken address of Aave Link token.\n    /// @param _aLinkToken address for the aLink Interest Bearing Token.\n    /// @param _oracle address of user-deployed oracle contract.\n    constructor\n    (\n    address _uniswapExchange,\n    address _stdLinkToken,\n    address _aaveLinkToken,\n    address _aLinkToken,\n    address _oracle,\n    address _linkNode,\n    address _lendingPool,\n    address _lendingPoolApproval\n    )\n    public\n    {\n        linkExchangeInterface = UniswapExchangeInterface(_uniswapExchange);\n        stdLinkTokenInterface = LinkTokenInterface(_stdLinkToken);\n        aaveLinkTokenInterface = LinkTokenInterface(_aaveLinkToken);\n        aLinkTokenInterface = AToken(_aLinkToken);\n        oracle = Oracle(_oracle);\n        linkNode = _linkNode;\n\n        lendingPool = LendingPool(_lendingPool);\n        lendingPoolApproval = _lendingPoolApproval;\n\n        /* Create default param account */\n        /* Fix those token mod values */\n        userStoredParams = thresholds(\"Default\", 20, 60, 20, 5 * ETHER, 1 * ETHER, 3 * ETHER, 300 * FINNEY);\n    }\n\n    /// @notice Restricts certain calls to node address only.\n    modifier onlyNodeAddress()\n    {\n        require(msg.sender == linkNode, \"Only node address can call this\");\n        _;\n    }\n\n\n    /// @notice Single function to call from node initiator job.\n    /// @dev Only the user's LINK node should call this.\n    /// @dev Function Selector : 0x86b12681\n    function flannelCoordinator()\n    public\n    {\n        availableFunds = stdLinkTokenInterface.balanceOf(address(oracle));\n        \n        if(availableFunds >= userStoredParams.linkThreshold){\n           _withdrawFromOracle(availableFunds);\n        }\n\n\n        if(linkNode.balance <= userStoredParams.ethThreshold){\n           require(linkNode != address(0), \"Invalid LinkNode Address\");\n           _linkToEthTopUp(topUpBalance, true);\n        }\n\n\n        if(aaveBalance >= userStoredParams.aaveThreshold){\n           _depositToAave(aaveBalance);\n        }\n\n    }\n\n    /// @notice Manual override to withdraw from oracle\n    /// @param _amount Amount of LINK in wei to withdraw.\n    /// @dev onlyOwner wrapper for internal function.\n    /// @dev Func selector: 0x8a3ae54f\n    function manualWithdrawFromOracle(uint256 _amount)\n    public\n    onlyOwner\n    {\n        _withdrawFromOracle(_amount);\n    }\n\n    /// @notice Manual override to top-up node address\n    /// @param _amount Amount of LINK in wei to convert via Uniswap.\n    /// @dev onlyOwner wrapper for internal function.\n    /// @dev Func selector: 0xcbd8b036\n    function manualLinkToEthTopUp(uint256 _amount)\n    public\n    onlyOwner\n    {\n        _linkToEthTopUp(_amount, false);\n    }\n\n    /// @notice Manual override to deposit LINK to Aave.\n    /// @param _amount Amount of LINK in wei to deposit.\n    /// @dev onlyOwner wrapper for internal function.\n    /// @dev Func selector: 0x746fa26e\n    function manualDepositToAave(uint256 _amount)\n    public\n    onlyOwner\n    {\n        _depositToAave(_amount);\n    }\n\n    /// @notice Manual override to withdraw LINK from Aave.\n    /// @param _amount Amount of aLINK in wei to withdraw.\n    /// @dev onlyOwner wrapper for internal function.\n    /// @dev Func selector: 0x9aee8f5b\n    function manualWithdrawFromAave(uint256 _amount)\n    public\n    onlyOwner\n    {\n        _withdrawFromAave(_amount);\n    }\n\n    /// @notice Change address of oracle contract (in case of re-deployment).\n    /// @param _liveOracle new address of oracle contract.\n    /// @dev Only contract owner can call this.\n    /// @dev Func selector: 0x45a190af\n    function configureOracleSetup(address _liveOracle, address _linkNode)\n    public\n    onlyOwner\n    {\n        oracle = Oracle(_liveOracle);\n        linkNode = _linkNode;\n    }\n\n    /// @notice Withdraw balances from Flannel contract.\n    /// @param _param balance store to withdraw from (see in-line comments).\n    /// @param _amount amount in wei to withdraw from given balance store.\n    /// @dev only contract owner can call this.\n    /// @dev Func selector: 0xd53ef6e7\n    function withdrawFromFlannel(uint256 _param, uint256 _amount)\n    public\n    onlyOwner\n    {\n        if(_param == 0){\n            require(_param <= storeBalance, \"Insufficient funds in store balance\");\n            stdLinkTokenInterface.transfer(msg.sender, _amount);\n            storeBalance = storeBalance.sub(_amount);\n        }\n        if(_param == 1){\n            require(_param <= aaveBalance, \"Insufficient funds in aave balance\");\n            stdLinkTokenInterface.transfer(msg.sender, _amount);\n            aaveBalance = aaveBalance.sub(_amount);\n        }\n        if(_param == 2){\n            require(_param <= topUpBalance, \"Insufficient funds in top-up balance\");\n            stdLinkTokenInterface.transfer(msg.sender, _amount);\n            topUpBalance = topUpBalance.sub(_amount);\n        }\n    }\n\n    /// @notice Create new parameter settings to distribute withdrawn LINK.\n    /// @param _paramsName Reference name of params.\n    /// @param _pcUntouched % to leave untouched in contract.\n    /// @param _pcAave % to deposited to Aave.\n    /// @param _pcTopUp % to allocate to node top-up.\n    /// @param _linkThreshold LINK value in wei to determine when to withdraw from Oracle contract.\n    /// @param _ethThreshold ETH value in wei to determine when to top-up LINK node.\n    /// @param _aaveThreshold LINK value in wei to determine when to trigger Aave deposit.\n    /// @param _ethTopUp ETH value in wei to top-up LINK node when triggered.\n    /// @dev Only owner can call this.\n    /// @dev Func selector: 0x08c00746\n    function createNewAllowance(\n    string memory _paramsName,\n    uint256 _pcUntouched,\n    uint256 _pcAave,\n    uint256 _pcTopUp,\n    uint256 _linkThreshold,\n    uint256 _ethThreshold,\n    uint256 _aaveThreshold,\n    uint256 _ethTopUp)\n    public\n    onlyOwner\n    {\n        uint256 pcTemp = _pcUntouched.add(_pcAave);\n        pcTemp = pcTemp.add(_pcTopUp);\n        require(pcTemp == 100, \"Percent parameters do not equal 100\");\n        userStoredParams = thresholds(_paramsName, _pcUntouched, _pcAave, _pcTopUp, _linkThreshold, _ethThreshold, _aaveThreshold, _ethTopUp);\n    }\n\n\n    /// @notice Manually rebalance the automated deposit funds.\n    /// @param _to Reference name of params.\n    /// @param _from % to leave untouched in contract.\n    /// @param _value % to deposited to Aave.\n    /// @dev Func selector: 0xadb72a86\n    function rebalance(\n    uint256 _to,\n    uint256 _from,\n    uint256 _value)\n    public\n    onlyOwner\n    {\n        if (_from == 0) {\n            require(storeBalance >= _value, \"Insufficient funds in storeBalance\");\n            if (_to == 1) {\n                aaveBalance = aaveBalance.add(_value);\n            }\n            if (_to == 2) {\n                topUpBalance = topUpBalance.add(_value);\n            }\n            storeBalance = storeBalance.sub(_value);\n        }\n\n        if (_from == 1) {\n            require(aaveBalance >= _value, \"Insufficient funds in aaveBalance\");\n            if (_to == 0) {\n                storeBalance = storeBalance.add(_value);\n            }\n            if (_to == 2) {\n                topUpBalance = topUpBalance.add(_value);\n            }\n            aaveBalance = aaveBalance.sub(_value);\n        }\n\n        if (_from == 2) {\n            require(topUpBalance >= _value, \"Insufficient funds in topUpBalance\");\n            if (_to == 0) {\n                storeBalance = storeBalance.add(_value);\n            }\n            if (_to == 1) {\n                aaveBalance = aaveBalance.add(_value);\n            }\n            topUpBalance = topUpBalance.sub(_value);\n        }\n    }\n\n    /// @notice Renounce ownership of oracle contract back to owner of this contract.\n    /// @dev Only owner of contract may call this.\n    /// @dev Only contract owner can call this.\n    /// @dev Func selector: 0x0cbfef9f\n    function revertOracleOwnership()\n    public\n    onlyOwner\n    {\n        oracle.transferOwnership(msg.sender);\n    }\n\n    /// @notice Return the operating addresses tied to this contract.\n    function getAddresses()\n    public\n    view\n    returns (address, address)\n    {\n        return (address(oracle), linkNode);\n    }\n\n}\n",
  "sourcePath": "/home/hill/github/Flannel/truffle/contracts/Flannel.sol",
  "compiler": {
    "name": "solc",
    "version": "0.5.12+commit.7709ece9.Emscripten.clang"
  },
  "schemaVersion": "3.0.23",
  "updatedAt": "2020-03-17T08:44:50.204Z",
  "devdoc": {
    "author": "hill399 (github.com/hill399)",
    "methods": {
      "configureOracleSetup(address,address)": {
        "details": "Only contract owner can call this.Func selector: 0x45a190af",
        "params": {
          "_liveOracle": "new address of oracle contract."
        }
      },
      "constructor": {
        "params": {
          "_aLinkToken": "address for the aLink Interest Bearing Token.",
          "_aaveLinkToken": "address of Aave Link token.",
          "_oracle": "address of user-deployed oracle contract.",
          "_stdLinkToken": "address of Chainlink (LINK) token.",
          "_uniswapExchange": "address of Uniswap exchange contract."
        }
      },
      "createNewAllowance(string,uint256,uint256,uint256,uint256,uint256,uint256,uint256)": {
        "details": "Only owner can call this.Func selector: 0x08c00746",
        "params": {
          "_aaveThreshold": "LINK value in wei to determine when to trigger Aave deposit.",
          "_ethThreshold": "ETH value in wei to determine when to top-up LINK node.",
          "_ethTopUp": "ETH value in wei to top-up LINK node when triggered.",
          "_linkThreshold": "LINK value in wei to determine when to withdraw from Oracle contract.",
          "_paramsName": "Reference name of params.",
          "_pcAave": "% to deposited to Aave.",
          "_pcTopUp": "% to allocate to node top-up.",
          "_pcUntouched": "% to leave untouched in contract."
        }
      },
      "flannelCoordinator()": {
        "details": "Only the user's LINK node should call this.Function Selector : 0x86b12681"
      },
      "isOwner()": {
        "details": "Returns true if the caller is the current owner."
      },
      "manualDepositToAave(uint256)": {
        "details": "onlyOwner wrapper for internal function.Func selector: 0x746fa26e",
        "params": {
          "_amount": "Amount of LINK in wei to deposit."
        }
      },
      "manualLinkToEthTopUp(uint256)": {
        "details": "onlyOwner wrapper for internal function.Func selector: 0xcbd8b036",
        "params": {
          "_amount": "Amount of LINK in wei to convert via Uniswap."
        }
      },
      "manualWithdrawFromAave(uint256)": {
        "details": "onlyOwner wrapper for internal function.Func selector: 0x9aee8f5b",
        "params": {
          "_amount": "Amount of aLINK in wei to withdraw."
        }
      },
      "manualWithdrawFromOracle(uint256)": {
        "details": "onlyOwner wrapper for internal function.Func selector: 0x8a3ae54f",
        "params": {
          "_amount": "Amount of LINK in wei to withdraw."
        }
      },
      "owner()": {
        "details": "Returns the address of the current owner."
      },
      "rebalance(uint256,uint256,uint256)": {
        "details": "Func selector: 0xadb72a86",
        "params": {
          "_from": "% to leave untouched in contract.",
          "_to": "Reference name of params.",
          "_value": "% to deposited to Aave."
        }
      },
      "revertOracleOwnership()": {
        "details": "Only owner of contract may call this.Only contract owner can call this.Func selector: 0x0cbfef9f"
      },
      "transferOwnership(address)": {
        "details": "Transfers ownership of the contract to a new account (`newOwner`). Can only be called by the current owner."
      },
      "withdrawFromFlannel(uint256,uint256)": {
        "details": "only contract owner can call this.Func selector: 0xd53ef6e7",
        "params": {
          "_amount": "amount in wei to withdraw from given balance store.",
          "_param": "balance store to withdraw from (see in-line comments)."
        }
      }
    },
    "title": "Flannel Main Contract"
  },
  "userdoc": {
    "methods": {
      "configureOracleSetup(address,address)": {
        "notice": "Change address of oracle contract (in case of re-deployment)."
      },
      "constructor": "Constructor to set default contract values.",
      "createNewAllowance(string,uint256,uint256,uint256,uint256,uint256,uint256,uint256)": {
        "notice": "Create new parameter settings to distribute withdrawn LINK."
      },
      "flannelCoordinator()": {
        "notice": "Single function to call from node initiator job."
      },
      "getAddresses()": {
        "notice": "Return the operating addresses tied to this contract."
      },
      "manualDepositToAave(uint256)": {
        "notice": "Manual override to deposit LINK to Aave."
      },
      "manualLinkToEthTopUp(uint256)": {
        "notice": "Manual override to top-up node address"
      },
      "manualWithdrawFromAave(uint256)": {
        "notice": "Manual override to withdraw LINK from Aave."
      },
      "manualWithdrawFromOracle(uint256)": {
        "notice": "Manual override to withdraw from oracle"
      },
      "rebalance(uint256,uint256,uint256)": {
        "notice": "Manually rebalance the automated deposit funds."
      },
      "revertOracleOwnership()": {
        "notice": "Renounce ownership of oracle contract back to owner of this contract."
      },
      "withdrawFromFlannel(uint256,uint256)": {
        "notice": "Withdraw balances from Flannel contract."
      }
    },
    "notice": "Extension of Chainlink oracle contract to allow for additional features."
  }
}