{
  "contractName": "IFlannel",
  "abi": [
    {
      "anonymous": false,
      "inputs": [
        {
          "indexed": true,
          "internalType": "address",
          "name": "previousOwner",
          "type": "address"
        },
        {
          "indexed": true,
          "internalType": "address",
          "name": "newOwner",
          "type": "address"
        }
      ],
      "name": "OwnershipTransferred",
      "type": "event"
    },
    {
      "constant": true,
      "inputs": [],
      "name": "aaveBalance",
      "outputs": [
        {
          "internalType": "uint256",
          "name": "",
          "type": "uint256"
        }
      ],
      "payable": false,
      "stateMutability": "view",
      "type": "function"
    },
    {
      "constant": true,
      "inputs": [],
      "name": "isOwner",
      "outputs": [
        {
          "internalType": "bool",
          "name": "",
          "type": "bool"
        }
      ],
      "payable": false,
      "stateMutability": "view",
      "type": "function"
    },
    {
      "constant": true,
      "inputs": [],
      "name": "linkNode",
      "outputs": [
        {
          "internalType": "address",
          "name": "",
          "type": "address"
        }
      ],
      "payable": false,
      "stateMutability": "view",
      "type": "function"
    },
    {
      "constant": true,
      "inputs": [],
      "name": "owner",
      "outputs": [
        {
          "internalType": "address",
          "name": "",
          "type": "address"
        }
      ],
      "payable": false,
      "stateMutability": "view",
      "type": "function"
    },
    {
      "constant": true,
      "inputs": [],
      "name": "storeBalance",
      "outputs": [
        {
          "internalType": "uint256",
          "name": "",
          "type": "uint256"
        }
      ],
      "payable": false,
      "stateMutability": "view",
      "type": "function"
    },
    {
      "constant": true,
      "inputs": [],
      "name": "topUpBalance",
      "outputs": [
        {
          "internalType": "uint256",
          "name": "",
          "type": "uint256"
        }
      ],
      "payable": false,
      "stateMutability": "view",
      "type": "function"
    },
    {
      "constant": false,
      "inputs": [
        {
          "internalType": "address",
          "name": "newOwner",
          "type": "address"
        }
      ],
      "name": "transferOwnership",
      "outputs": [],
      "payable": false,
      "stateMutability": "nonpayable",
      "type": "function"
    },
    {
      "constant": true,
      "inputs": [],
      "name": "userStoredParams",
      "outputs": [
        {
          "internalType": "string",
          "name": "paramsName",
          "type": "string"
        },
        {
          "internalType": "uint256",
          "name": "pcUntouched",
          "type": "uint256"
        },
        {
          "internalType": "uint256",
          "name": "pcAave",
          "type": "uint256"
        },
        {
          "internalType": "uint256",
          "name": "pcTopUp",
          "type": "uint256"
        },
        {
          "internalType": "uint256",
          "name": "linkThreshold",
          "type": "uint256"
        },
        {
          "internalType": "uint256",
          "name": "ethThreshold",
          "type": "uint256"
        },
        {
          "internalType": "uint256",
          "name": "aaveThreshold",
          "type": "uint256"
        },
        {
          "internalType": "uint256",
          "name": "ethTopUp",
          "type": "uint256"
        }
      ],
      "payable": false,
      "stateMutability": "view",
      "type": "function"
    },
    {
      "constant": true,
      "inputs": [
        {
          "internalType": "uint256",
          "name": "_amount",
          "type": "uint256"
        }
      ],
      "name": "getLinkToEthPrice",
      "outputs": [
        {
          "internalType": "uint256",
          "name": "",
          "type": "uint256"
        }
      ],
      "payable": false,
      "stateMutability": "view",
      "type": "function"
    },
    {
      "constant": true,
      "inputs": [],
      "name": "getOracleWithdrawable",
      "outputs": [
        {
          "internalType": "uint256",
          "name": "",
          "type": "uint256"
        }
      ],
      "payable": false,
      "stateMutability": "view",
      "type": "function"
    },
    {
      "constant": true,
      "inputs": [],
      "name": "getALinkBalance",
      "outputs": [
        {
          "internalType": "uint256",
          "name": "",
          "type": "uint256"
        }
      ],
      "payable": false,
      "stateMutability": "view",
      "type": "function"
    }
  ],
  "bytecode": "0x6080604052336000806101000a81548173ffffffffffffffffffffffffffffffffffffffff021916908373ffffffffffffffffffffffffffffffffffffffff1602179055506000809054906101000a900473ffffffffffffffffffffffffffffffffffffffff1673ffffffffffffffffffffffffffffffffffffffff16600073ffffffffffffffffffffffffffffffffffffffff167f8be0079c531659141344cd1fd0a4f28419497f9722a3daafe3b4186f6b6457e060405160405180910390a3610921806100cf6000396000f3fe608060405234801561001057600080fd5b50600436106100a95760003560e01c80638da5cb5b116100715780638da5cb5b146101fe5780638f32d59b14610248578063bf5c88ff1461026a578063ce42041614610288578063d4b6838e146102a6578063f2fde38b146102f0576100a9565b8063255e77aa146100ae5780632a1d5e47146100f0578063719109911461010e5780637efff887146101c257806388021654146101e0575b600080fd5b6100da600480360360208110156100c457600080fd5b8101908080359060200190929190505050610334565b6040518082815260200191505060405180910390f35b6100f86103eb565b6040518082815260200191505060405180910390f35b6101166103f1565b604051808060200189815260200188815260200187815260200186815260200185815260200184815260200183815260200182810382528a818151815260200191508051906020019080838360005b83811015610180578082015181840152602081019050610165565b50505050905090810190601f1680156101ad5780820380516001836020036101000a031916815260200191505b50995050505050505050505060405180910390f35b6101ca6104bf565b6040518082815260200191505060405180910390f35b6101e86104c5565b6040518082815260200191505060405180910390f35b61020661056f565b604051808273ffffffffffffffffffffffffffffffffffffffff1673ffffffffffffffffffffffffffffffffffffffff16815260200191505060405180910390f35b610250610598565b604051808215151515815260200191505060405180910390f35b6102726105ef565b6040518082815260200191505060405180910390f35b6102906105f5565b6040518082815260200191505060405180910390f35b6102ae6106d6565b604051808273ffffffffffffffffffffffffffffffffffffffff1673ffffffffffffffffffffffffffffffffffffffff16815260200191505060405180910390f35b6103326004803603602081101561030657600080fd5b81019080803573ffffffffffffffffffffffffffffffffffffffff1690602001909291905050506106fc565b005b6000600260009054906101000a900473ffffffffffffffffffffffffffffffffffffffff1673ffffffffffffffffffffffffffffffffffffffff166395b68fe7836040518263ffffffff1660e01b81526004018082815260200191505060206040518083038186803b1580156103a957600080fd5b505afa1580156103bd573d6000803e3d6000fd5b505050506040513d60208110156103d357600080fd5b81019080805190602001909291905050509050919050565b60125481565b6009806000018054600181600116156101000203166002900480601f01602080910402602001604051908101604052809291908181526020018280546001816001161561010002031660029004801561048b5780601f106104605761010080835404028352916020019161048b565b820191906000526020600020905b81548152906001019060200180831161046e57829003601f168201915b5050505050908060010154908060020154908060030154908060040154908060050154908060060154908060070154905088565b60135481565b6000600160009054906101000a900473ffffffffffffffffffffffffffffffffffffffff1673ffffffffffffffffffffffffffffffffffffffff1663501883016040518163ffffffff1660e01b815260040160206040518083038186803b15801561052f57600080fd5b505afa158015610543573d6000803e3d6000fd5b505050506040513d602081101561055957600080fd5b8101908080519060200190929190505050905090565b60008060009054906101000a900473ffffffffffffffffffffffffffffffffffffffff16905090565b60008060009054906101000a900473ffffffffffffffffffffffffffffffffffffffff1673ffffffffffffffffffffffffffffffffffffffff163373ffffffffffffffffffffffffffffffffffffffff1614905090565b60115481565b6000600660009054906101000a900473ffffffffffffffffffffffffffffffffffffffff1673ffffffffffffffffffffffffffffffffffffffff166370a08231306040518263ffffffff1660e01b8152600401808273ffffffffffffffffffffffffffffffffffffffff1673ffffffffffffffffffffffffffffffffffffffff16815260200191505060206040518083038186803b15801561069657600080fd5b505afa1580156106aa573d6000803e3d6000fd5b505050506040513d60208110156106c057600080fd5b8101908080519060200190929190505050905090565b600760009054906101000a900473ffffffffffffffffffffffffffffffffffffffff1681565b610704610598565b610776576040517f08c379a00000000000000000000000000000000000000000000000000000000081526004018080602001828103825260208152602001807f4f776e61626c653a2063616c6c6572206973206e6f7420746865206f776e657281525060200191505060405180910390fd5b61077f81610782565b50565b600073ffffffffffffffffffffffffffffffffffffffff168173ffffffffffffffffffffffffffffffffffffffff161415610808576040517f08c379a00000000000000000000000000000000000000000000000000000000081526004018080602001828103825260268152602001806108c76026913960400191505060405180910390fd5b8073ffffffffffffffffffffffffffffffffffffffff166000809054906101000a900473ffffffffffffffffffffffffffffffffffffffff1673ffffffffffffffffffffffffffffffffffffffff167f8be0079c531659141344cd1fd0a4f28419497f9722a3daafe3b4186f6b6457e060405160405180910390a3806000806101000a81548173ffffffffffffffffffffffffffffffffffffffff021916908373ffffffffffffffffffffffffffffffffffffffff1602179055505056fe4f776e61626c653a206e6577206f776e657220697320746865207a65726f2061646472657373a265627a7a723158201b770e4091290f9f59a75c00baaf0509b0d72d0f4614f7806335acf9e5fa1b3164736f6c634300050c0032",
  "source": "pragma solidity ^0.5.0;\n\nimport \"chainlink/v0.5/contracts/Oracle.sol\";\nimport \"../contracts/UniswapExchangeInterface.sol\";\nimport \"../contracts/AaveLendingInterface.sol\";\nimport \"../contracts/ATokenInterface.sol\";\n\n/// @title Flannel Internal Contract\n/// @author hill399 (github.com/hill399)\n/// @notice Internal and helper functions for main Flannel contract (Flannel.sol)\ncontract IFlannel is Ownable {\n\n    using SafeMath for uint256;\n\n    Oracle internal oracle;\n    UniswapExchangeInterface internal linkExchangeInterface;\n    LendingPool internal lendingPool;\n\n    LinkTokenInterface internal stdLinkTokenInterface;\n    LinkTokenInterface internal aaveLinkTokenInterface;\n    AToken internal aLinkTokenInterface;\n\n    uint256 constant FINNEY = 1 * 10 ** 15;\n    uint256 constant ETHER = 1 * 10 ** 18;\n\n    /* Address of user node */\n    address public linkNode;\n\n    /* Lending pool approval address */\n    address internal lendingPoolApproval;\n\n    /* Struct to customise and store allowances */\n    struct thresholds {\n        string paramsName;\n        uint256 pcUntouched;\n        uint256 pcAave;\n        uint256 pcTopUp;\n        uint256 linkThreshold;\n        uint256 ethThreshold;\n        uint256 aaveThreshold;\n        uint256 ethTopUp;\n    }\n\n    /* Mapping to hold customised allowances */\n    thresholds public userStoredParams;\n\n    uint256 public storeBalance;\n    uint256 public aaveBalance;\n    uint256 public topUpBalance;\n\n    /// @notice Withdraw earned LINK balance from deployed oracle contract.\n    /// @dev Only node address can call this.\n    /// @dev Function selector : 0x61ff4fac\n    function _withdrawFromOracle(uint256 _amount)\n    internal\n    {\n        require(_amount <= getOracleWithdrawable(), \"Not enough LINK in oracle to withdraw\");\n        oracle.withdraw(address(this), _amount);\n        storeBalance = storeBalance.add(_percentHelper(_amount, userStoredParams.pcUntouched));\n        aaveBalance = aaveBalance.add(_percentHelper(_amount, userStoredParams.pcAave));\n        topUpBalance = topUpBalance.add(_percentHelper(_amount, userStoredParams.pcTopUp));\n    }\n\n    /// @notice Deposit withdrawn LINK into Aave Protocol\n    /// @dev On testnet, Aave utilise their own LINK token. On test launch, a given amount is send to Flannel so that \"representative\"\n    ///      transactions can be made.\n    /// @dev Only node address can call this.\n    /// @dev Function selector : 0x06197c1c\n    function _depositToAave(uint256 _amount)\n    internal\n    {\n        require(_amount <= aaveBalance, \"Not enough allocated Aave Deposit funds\");\n        // Approve for aaveLINK tokens to be moved by the lending interface.\n        aaveLinkTokenInterface.approve(lendingPoolApproval, _amount + 100);\n        // Deposit aaveLINK into interest bearing contract.\n        lendingPool.deposit(address(aaveLinkTokenInterface), _amount, 0);\n        aaveBalance = aaveBalance.sub(_amount);\n    }\n\n    /// @notice Withdraw deposited LINK into Aave Protocol\n    /// @dev Only node address can call this.\n    function _withdrawFromAave(uint256 _amount)\n    internal\n    {\n        // Catch that _amount is greater thzan contract aLINK balance.\n        require(_amount <= getALinkBalance(), \"Not enough aLINK in contract\");\n        // Redeem LINK using aLINK redeem function.\n        aLinkTokenInterface.redeem(_amount);\n        // Return LINK to Aave balance store\n        aaveBalance = aaveBalance.add(_amount);\n    }\n\n    /// @notice Convert LINK balance to ETH via Uniswap and send to node.\n    /// @dev Only node address can call this.\n    function _linkToEthTopUp(uint256 _amount, bool _auto)\n    internal\n    {\n        require(_amount <= topUpBalance, \"Not enough LINK to top-up\");\n        // Catch if topUpBalance is less than ethTopUp\n        uint256 topBalance;\n        if(_amount >= userStoredParams.ethTopUp && _auto) {\n            topBalance = userStoredParams.ethTopUp;\n        } else {\n            topBalance = _amount;\n        }\n        // Get current LINK -> ETH conversion rate\n        uint256 exchangeRate = getLinkToEthPrice(topBalance);\n        // Approve uniswap for transfer\n        stdLinkTokenInterface.approve(address(linkExchangeInterface), topBalance);\n        // Send to node address\n        linkExchangeInterface.tokenToEthTransferOutput(exchangeRate, topBalance, (now + 1 hours), linkNode);\n        // Reset topUpBalance\n        topUpBalance = topUpBalance.sub(topBalance);\n    }\n\n    function getLinkToEthPrice(uint256 _amount)\n    public\n    view\n    returns\n    (uint256)\n    {\n        return linkExchangeInterface.getTokenToEthInputPrice(_amount);\n    }\n\n    function getOracleWithdrawable()\n    public\n    view\n    returns\n    (uint256)\n    {\n        return oracle.withdrawable();\n    }\n\n    function getALinkBalance()\n    public\n    view\n    returns\n    (uint256)\n    {\n        return aLinkTokenInterface.balanceOf(address(this));\n    }\n\n    /// @notice Helper function to generate percentage of value\n    /// @dev (_value/100) * _percentage\n    function _percentHelper(uint256 _value, uint256 _percentage)\n    internal\n    pure\n    returns\n    (uint256)\n    {\n        uint256 tmpPer = _value.div(100);\n        tmpPer = tmpPer.mul(_percentage);\n        return tmpPer;\n    }\n}\n",
  "sourcePath": "/home/hill/github/Flannel/truffle/contracts/IFlannel.sol",
  "compiler": {
    "name": "solc",
    "version": "0.5.12+commit.7709ece9.Emscripten.clang"
  },
  "schemaVersion": "3.0.23",
  "updatedAt": "2020-03-17T08:44:50.210Z",
  "devdoc": {
    "author": "hill399 (github.com/hill399)",
    "methods": {
      "isOwner()": {
        "details": "Returns true if the caller is the current owner."
      },
      "owner()": {
        "details": "Returns the address of the current owner."
      },
      "transferOwnership(address)": {
        "details": "Transfers ownership of the contract to a new account (`newOwner`). Can only be called by the current owner."
      }
    },
    "title": "Flannel Internal Contract"
  },
  "userdoc": {
    "methods": {},
    "notice": "Internal and helper functions for main Flannel contract (Flannel.sol)"
  }
}