{
  "contractName": "IFlannel",
  "abi": [
    {
      "anonymous": false,
      "inputs": [
        {
          "indexed": true,
          "internalType": "address",
          "name": "previousOwner",
          "type": "address"
        },
        {
          "indexed": true,
          "internalType": "address",
          "name": "newOwner",
          "type": "address"
        }
      ],
      "name": "OwnershipTransferred",
      "type": "event"
    },
    {
      "constant": true,
      "inputs": [],
      "name": "aaveBalance",
      "outputs": [
        {
          "internalType": "uint256",
          "name": "",
          "type": "uint256"
        }
      ],
      "payable": false,
      "stateMutability": "view",
      "type": "function"
    },
    {
      "constant": true,
      "inputs": [],
      "name": "isOwner",
      "outputs": [
        {
          "internalType": "bool",
          "name": "",
          "type": "bool"
        }
      ],
      "payable": false,
      "stateMutability": "view",
      "type": "function"
    },
    {
      "constant": true,
      "inputs": [],
      "name": "linkNode",
      "outputs": [
        {
          "internalType": "address",
          "name": "",
          "type": "address"
        }
      ],
      "payable": false,
      "stateMutability": "view",
      "type": "function"
    },
    {
      "constant": true,
      "inputs": [],
      "name": "owner",
      "outputs": [
        {
          "internalType": "address",
          "name": "",
          "type": "address"
        }
      ],
      "payable": false,
      "stateMutability": "view",
      "type": "function"
    },
    {
      "constant": true,
      "inputs": [],
      "name": "storeBalance",
      "outputs": [
        {
          "internalType": "uint256",
          "name": "",
          "type": "uint256"
        }
      ],
      "payable": false,
      "stateMutability": "view",
      "type": "function"
    },
    {
      "constant": true,
      "inputs": [],
      "name": "topUpBalance",
      "outputs": [
        {
          "internalType": "uint256",
          "name": "",
          "type": "uint256"
        }
      ],
      "payable": false,
      "stateMutability": "view",
      "type": "function"
    },
    {
      "constant": false,
      "inputs": [
        {
          "internalType": "address",
          "name": "newOwner",
          "type": "address"
        }
      ],
      "name": "transferOwnership",
      "outputs": [],
      "payable": false,
      "stateMutability": "nonpayable",
      "type": "function"
    },
    {
      "constant": true,
      "inputs": [],
      "name": "userStoredParams",
      "outputs": [
        {
          "internalType": "string",
          "name": "paramsName",
          "type": "string"
        },
        {
          "internalType": "uint256",
          "name": "pcUntouched",
          "type": "uint256"
        },
        {
          "internalType": "uint256",
          "name": "pcAave",
          "type": "uint256"
        },
        {
          "internalType": "uint256",
          "name": "pcTopUp",
          "type": "uint256"
        },
        {
          "internalType": "uint256",
          "name": "linkThreshold",
          "type": "uint256"
        },
        {
          "internalType": "uint256",
          "name": "ethThreshold",
          "type": "uint256"
        },
        {
          "internalType": "uint256",
          "name": "aaveThreshold",
          "type": "uint256"
        },
        {
          "internalType": "uint256",
          "name": "ethTopUp",
          "type": "uint256"
        }
      ],
      "payable": false,
      "stateMutability": "view",
      "type": "function"
    }
  ],
  "bytecode": "0x6080604052336000806101000a81548173ffffffffffffffffffffffffffffffffffffffff021916908373ffffffffffffffffffffffffffffffffffffffff1602179055506000809054906101000a900473ffffffffffffffffffffffffffffffffffffffff1673ffffffffffffffffffffffffffffffffffffffff16600073ffffffffffffffffffffffffffffffffffffffff167f8be0079c531659141344cd1fd0a4f28419497f9722a3daafe3b4186f6b6457e060405160405180910390a3610640806100cf6000396000f3fe608060405234801561001057600080fd5b50600436106100885760003560e01c80638f32d59b1161005b5780638f32d59b146101c7578063bf5c88ff146101e9578063d4b6838e14610207578063f2fde38b1461025157610088565b80632a1d5e471461008d57806371910991146100ab5780637efff8871461015f5780638da5cb5b1461017d575b600080fd5b610095610295565b6040518082815260200191505060405180910390f35b6100b361029b565b604051808060200189815260200188815260200187815260200186815260200185815260200184815260200183815260200182810382528a818151815260200191508051906020019080838360005b8381101561011d578082015181840152602081019050610102565b50505050905090810190601f16801561014a5780820380516001836020036101000a031916815260200191505b50995050505050505050505060405180910390f35b610167610369565b6040518082815260200191505060405180910390f35b61018561036f565b604051808273ffffffffffffffffffffffffffffffffffffffff1673ffffffffffffffffffffffffffffffffffffffff16815260200191505060405180910390f35b6101cf610398565b604051808215151515815260200191505060405180910390f35b6101f16103ef565b6040518082815260200191505060405180910390f35b61020f6103f5565b604051808273ffffffffffffffffffffffffffffffffffffffff1673ffffffffffffffffffffffffffffffffffffffff16815260200191505060405180910390f35b6102936004803603602081101561026757600080fd5b81019080803573ffffffffffffffffffffffffffffffffffffffff16906020019092919050505061041b565b005b60125481565b6009806000018054600181600116156101000203166002900480601f0160208091040260200160405190810160405280929190818152602001828054600181600116156101000203166002900480156103355780601f1061030a57610100808354040283529160200191610335565b820191906000526020600020905b81548152906001019060200180831161031857829003601f168201915b5050505050908060010154908060020154908060030154908060040154908060050154908060060154908060070154905088565b60135481565b60008060009054906101000a900473ffffffffffffffffffffffffffffffffffffffff16905090565b60008060009054906101000a900473ffffffffffffffffffffffffffffffffffffffff1673ffffffffffffffffffffffffffffffffffffffff163373ffffffffffffffffffffffffffffffffffffffff1614905090565b60115481565b600760009054906101000a900473ffffffffffffffffffffffffffffffffffffffff1681565b610423610398565b610495576040517f08c379a00000000000000000000000000000000000000000000000000000000081526004018080602001828103825260208152602001807f4f776e61626c653a2063616c6c6572206973206e6f7420746865206f776e657281525060200191505060405180910390fd5b61049e816104a1565b50565b600073ffffffffffffffffffffffffffffffffffffffff168173ffffffffffffffffffffffffffffffffffffffff161415610527576040517f08c379a00000000000000000000000000000000000000000000000000000000081526004018080602001828103825260268152602001806105e66026913960400191505060405180910390fd5b8073ffffffffffffffffffffffffffffffffffffffff166000809054906101000a900473ffffffffffffffffffffffffffffffffffffffff1673ffffffffffffffffffffffffffffffffffffffff167f8be0079c531659141344cd1fd0a4f28419497f9722a3daafe3b4186f6b6457e060405160405180910390a3806000806101000a81548173ffffffffffffffffffffffffffffffffffffffff021916908373ffffffffffffffffffffffffffffffffffffffff1602179055505056fe4f776e61626c653a206e6577206f776e657220697320746865207a65726f2061646472657373a265627a7a7231582086bb1d6fe1a8f300f218aa8d3402d7e0b8aeca786aafd253e5df21eecadf2b5164736f6c634300050c0032",
  "source": "pragma solidity ^0.5.0;\r\n\r\nimport \"chainlink/v0.5/contracts/Oracle.sol\";\r\nimport \"../contracts/UniswapExchangeInterface.sol\";\r\nimport \"../contracts/AaveLendingInterface.sol\";\r\nimport \"../contracts/ATokenInterface.sol\";\r\n\r\n/// @title Flannel Internal Contract\r\n/// @author hill399 (github.com/hill399)\r\n/// @notice Internal and helper functions for main Flannel contract (Flannel.sol)\r\ncontract IFlannel is Ownable {\r\n\r\n    using SafeMath for uint256;\r\n\r\n    Oracle internal oracle;\r\n    UniswapExchangeInterface internal linkExchangeInterface;\r\n    LendingPool internal lendingPool;\r\n\r\n    LinkTokenInterface internal stdLinkTokenInterface;\r\n    LinkTokenInterface internal aaveLinkTokenInterface;\r\n    AToken internal aLinkTokenInterface;\r\n\r\n    uint256 constant FINNEY = 1 * 10 ** 15;\r\n    uint256 constant ETHER = 1 * 10 ** 18;\r\n\r\n    /* Address of user node */\r\n    address public linkNode;\r\n\r\n    /* Lending pool approval address */\r\n    address internal lendingPoolApproval;\r\n\r\n    /* Struct to customise and store allowances */\r\n    struct thresholds {\r\n        string paramsName;\r\n        uint256 pcUntouched;\r\n        uint256 pcAave;\r\n        uint256 pcTopUp;\r\n        uint256 linkThreshold;\r\n        uint256 ethThreshold;\r\n        uint256 aaveThreshold;\r\n        uint256 ethTopUp;\r\n    }\r\n\r\n    /* Mapping to hold customised allowances */\r\n    thresholds public userStoredParams;\r\n\r\n    uint256 public storeBalance;\r\n    uint256 public aaveBalance;\r\n    uint256 public topUpBalance;\r\n\r\n    /// @notice Withdraw earned LINK balance from deployed oracle contract.\r\n    /// @dev Only node address can call this.\r\n    /// @dev Function selector : 0x61ff4fac\r\n    function _withdrawFromOracle(uint256 _amount)\r\n    internal\r\n    {\r\n        require(_amount <= oracle.withdrawable(), \"Not enough LINK in oracle to withdraw\");\r\n        oracle.withdraw(address(this), _amount);\r\n        storeBalance = storeBalance.add(_percentHelper(_amount, userStoredParams.pcUntouched));\r\n        aaveBalance = aaveBalance.add(_percentHelper(_amount, userStoredParams.pcAave));\r\n        topUpBalance = topUpBalance.add(_percentHelper(_amount, userStoredParams.pcTopUp));\r\n    }\r\n\r\n    /// @notice Deposit withdrawn LINK into Aave Protocol\r\n    /// @dev On testnet, Aave utilise their own LINK token. On test launch, a given amount is send to Flannel so that \"representative\"\r\n    ///      transactions can be made.\r\n    /// @dev Only node address can call this.\r\n    /// @dev Function selector : 0x06197c1c\r\n    function _depositToAave(uint256 _amount)\r\n    internal\r\n    {\r\n        require(_amount <= aaveBalance, \"Not enough allocated Aave Deposit funds\");\r\n        // Approve for aaveLINK tokens to be moved by the lending interface.\r\n        aaveLinkTokenInterface.approve(lendingPoolApproval, _amount + 100);\r\n        // Deposit aaveLINK into interest bearing contract.\r\n        lendingPool.deposit(address(aaveLinkTokenInterface), _amount, 0);\r\n        aaveBalance = aaveBalance.sub(_amount);\r\n    }\r\n\r\n    /// @notice Withdraw deposited LINK into Aave Protocol\r\n    /// @dev Only node address can call this.\r\n    function _withdrawFromAave(uint256 _amount)\r\n    internal\r\n    {\r\n        // Catch that _amount is greater thzan contract aLINK balance.\r\n        require(_amount <= aLinkTokenInterface.balanceOf(address(this)), \"Not enough aLINK in contract\");\r\n        // Redeem LINK using aLINK redeem function.\r\n        aLinkTokenInterface.redeem(_amount);\r\n        // Return LINK to Aave balance store\r\n        aaveBalance = aaveBalance.add(_amount);\r\n    }\r\n\r\n    /// @notice Convert LINK balance to ETH via Uniswap and send to node.\r\n    /// @dev Only node address can call this.\r\n    function _linkToEthTopUp(uint256 _amount)\r\n    internal\r\n    {\r\n        require(_amount <= topUpBalance, \"Not enough LINK to top-up\");\r\n        // Catch if topUpBalance is less than ethTopUp\r\n        uint256 topBalance;\r\n        if(_amount >= userStoredParams.ethTopUp) {\r\n            topBalance = userStoredParams.ethTopUp;\r\n        } else {\r\n            topBalance = _amount;\r\n        }\r\n        // Get current LINK -> ETH conversion rate\r\n        uint256 exchangeRate = linkExchangeInterface.getTokenToEthInputPrice(topBalance);\r\n        // Approve uniswap for transfer\r\n        stdLinkTokenInterface.approve(address(linkExchangeInterface), topBalance);\r\n        // Send to node address\r\n        linkExchangeInterface.tokenToEthTransferOutput(exchangeRate, topBalance, (now + 1 hours), linkNode);\r\n        // Reset topUpBalance\r\n        topUpBalance = topUpBalance.sub(topBalance);\r\n    }\r\n\r\n    /// @notice Helper function to generate percentage of value\r\n    /// @dev (_value/100) * _percentage\r\n    function _percentHelper(uint256 _value, uint256 _percentage)\r\n    internal\r\n    pure\r\n    returns\r\n    (uint256)\r\n    {\r\n        uint256 tmpPer = _value.div(100);\r\n        tmpPer = tmpPer.mul(_percentage);\r\n        return tmpPer;\r\n    }\r\n}\r\n",
  "sourcePath": "/home/hill/truffle_u/flannel-context/truffle/contracts/IFlannel.sol",
  "compiler": {
    "name": "solc",
    "version": "0.5.12+commit.7709ece9.Emscripten.clang"
  },
  "schemaVersion": "3.0.23",
  "updatedAt": "2020-02-17T09:20:49.037Z",
  "devdoc": {
    "author": "hill399 (github.com/hill399)",
    "methods": {
      "isOwner()": {
        "details": "Returns true if the caller is the current owner."
      },
      "owner()": {
        "details": "Returns the address of the current owner."
      },
      "transferOwnership(address)": {
        "details": "Transfers ownership of the contract to a new account (`newOwner`). Can only be called by the current owner."
      }
    },
    "title": "Flannel Internal Contract"
  },
  "userdoc": {
    "methods": {},
    "notice": "Internal and helper functions for main Flannel contract (Flannel.sol)"
  }
}