{
  "contractName": "IFlannel",
  "abi": [
    {
      "anonymous": false,
      "inputs": [
        {
          "indexed": true,
          "internalType": "address",
          "name": "previousOwner",
          "type": "address"
        },
        {
          "indexed": true,
          "internalType": "address",
          "name": "newOwner",
          "type": "address"
        }
      ],
      "name": "OwnershipTransferred",
      "type": "event"
    },
    {
      "constant": true,
      "inputs": [],
      "name": "aaveBalance",
      "outputs": [
        {
          "internalType": "uint256",
          "name": "",
          "type": "uint256"
        }
      ],
      "payable": false,
      "stateMutability": "view",
      "type": "function"
    },
    {
      "constant": true,
      "inputs": [],
      "name": "isOwner",
      "outputs": [
        {
          "internalType": "bool",
          "name": "",
          "type": "bool"
        }
      ],
      "payable": false,
      "stateMutability": "view",
      "type": "function"
    },
    {
      "constant": true,
      "inputs": [],
      "name": "linkNode",
      "outputs": [
        {
          "internalType": "address",
          "name": "",
          "type": "address"
        }
      ],
      "payable": false,
      "stateMutability": "view",
      "type": "function"
    },
    {
      "constant": true,
      "inputs": [],
      "name": "owner",
      "outputs": [
        {
          "internalType": "address",
          "name": "",
          "type": "address"
        }
      ],
      "payable": false,
      "stateMutability": "view",
      "type": "function"
    },
    {
      "constant": true,
      "inputs": [],
      "name": "storeBalance",
      "outputs": [
        {
          "internalType": "uint256",
          "name": "",
          "type": "uint256"
        }
      ],
      "payable": false,
      "stateMutability": "view",
      "type": "function"
    },
    {
      "constant": true,
      "inputs": [],
      "name": "topUpBalance",
      "outputs": [
        {
          "internalType": "uint256",
          "name": "",
          "type": "uint256"
        }
      ],
      "payable": false,
      "stateMutability": "view",
      "type": "function"
    },
    {
      "constant": false,
      "inputs": [
        {
          "internalType": "address",
          "name": "newOwner",
          "type": "address"
        }
      ],
      "name": "transferOwnership",
      "outputs": [],
      "payable": false,
      "stateMutability": "nonpayable",
      "type": "function"
    },
    {
      "constant": true,
      "inputs": [],
      "name": "userStoredParams",
      "outputs": [
        {
          "internalType": "string",
          "name": "paramsName",
          "type": "string"
        },
        {
          "internalType": "uint256",
          "name": "pcUntouched",
          "type": "uint256"
        },
        {
          "internalType": "uint256",
          "name": "pcAave",
          "type": "uint256"
        },
        {
          "internalType": "uint256",
          "name": "pcTopUp",
          "type": "uint256"
        },
        {
          "internalType": "uint256",
          "name": "linkThreshold",
          "type": "uint256"
        },
        {
          "internalType": "uint256",
          "name": "ethThreshold",
          "type": "uint256"
        },
        {
          "internalType": "uint256",
          "name": "aaveThreshold",
          "type": "uint256"
        },
        {
          "internalType": "uint256",
          "name": "ethTopUp",
          "type": "uint256"
        }
      ],
      "payable": false,
      "stateMutability": "view",
      "type": "function"
    },
    {
      "constant": true,
      "inputs": [
        {
          "internalType": "uint256",
          "name": "_amount",
          "type": "uint256"
        }
      ],
      "name": "getLinkToEthPrice",
      "outputs": [
        {
          "internalType": "uint256",
          "name": "",
          "type": "uint256"
        }
      ],
      "payable": false,
      "stateMutability": "view",
      "type": "function"
    }
  ],
  "bytecode": "0x6080604052336000806101000a81548173ffffffffffffffffffffffffffffffffffffffff021916908373ffffffffffffffffffffffffffffffffffffffff1602179055506000809054906101000a900473ffffffffffffffffffffffffffffffffffffffff1673ffffffffffffffffffffffffffffffffffffffff16600073ffffffffffffffffffffffffffffffffffffffff167f8be0079c531659141344cd1fd0a4f28419497f9722a3daafe3b4186f6b6457e060405160405180910390a3610744806100cf6000396000f3fe608060405234801561001057600080fd5b50600436106100935760003560e01c80638da5cb5b116100665780638da5cb5b146101ca5780638f32d59b14610214578063bf5c88ff14610236578063d4b6838e14610254578063f2fde38b1461029e57610093565b8063255e77aa146100985780632a1d5e47146100da57806371910991146100f85780637efff887146101ac575b600080fd5b6100c4600480360360208110156100ae57600080fd5b81019080803590602001909291905050506102e2565b6040518082815260200191505060405180910390f35b6100e2610399565b6040518082815260200191505060405180910390f35b61010061039f565b604051808060200189815260200188815260200187815260200186815260200185815260200184815260200183815260200182810382528a818151815260200191508051906020019080838360005b8381101561016a57808201518184015260208101905061014f565b50505050905090810190601f1680156101975780820380516001836020036101000a031916815260200191505b50995050505050505050505060405180910390f35b6101b461046d565b6040518082815260200191505060405180910390f35b6101d2610473565b604051808273ffffffffffffffffffffffffffffffffffffffff1673ffffffffffffffffffffffffffffffffffffffff16815260200191505060405180910390f35b61021c61049c565b604051808215151515815260200191505060405180910390f35b61023e6104f3565b6040518082815260200191505060405180910390f35b61025c6104f9565b604051808273ffffffffffffffffffffffffffffffffffffffff1673ffffffffffffffffffffffffffffffffffffffff16815260200191505060405180910390f35b6102e0600480360360208110156102b457600080fd5b81019080803573ffffffffffffffffffffffffffffffffffffffff16906020019092919050505061051f565b005b6000600260009054906101000a900473ffffffffffffffffffffffffffffffffffffffff1673ffffffffffffffffffffffffffffffffffffffff166395b68fe7836040518263ffffffff1660e01b81526004018082815260200191505060206040518083038186803b15801561035757600080fd5b505afa15801561036b573d6000803e3d6000fd5b505050506040513d602081101561038157600080fd5b81019080805190602001909291905050509050919050565b60125481565b6009806000018054600181600116156101000203166002900480601f0160208091040260200160405190810160405280929190818152602001828054600181600116156101000203166002900480156104395780601f1061040e57610100808354040283529160200191610439565b820191906000526020600020905b81548152906001019060200180831161041c57829003601f168201915b5050505050908060010154908060020154908060030154908060040154908060050154908060060154908060070154905088565b60135481565b60008060009054906101000a900473ffffffffffffffffffffffffffffffffffffffff16905090565b60008060009054906101000a900473ffffffffffffffffffffffffffffffffffffffff1673ffffffffffffffffffffffffffffffffffffffff163373ffffffffffffffffffffffffffffffffffffffff1614905090565b60115481565b600760009054906101000a900473ffffffffffffffffffffffffffffffffffffffff1681565b61052761049c565b610599576040517f08c379a00000000000000000000000000000000000000000000000000000000081526004018080602001828103825260208152602001807f4f776e61626c653a2063616c6c6572206973206e6f7420746865206f776e657281525060200191505060405180910390fd5b6105a2816105a5565b50565b600073ffffffffffffffffffffffffffffffffffffffff168173ffffffffffffffffffffffffffffffffffffffff16141561062b576040517f08c379a00000000000000000000000000000000000000000000000000000000081526004018080602001828103825260268152602001806106ea6026913960400191505060405180910390fd5b8073ffffffffffffffffffffffffffffffffffffffff166000809054906101000a900473ffffffffffffffffffffffffffffffffffffffff1673ffffffffffffffffffffffffffffffffffffffff167f8be0079c531659141344cd1fd0a4f28419497f9722a3daafe3b4186f6b6457e060405160405180910390a3806000806101000a81548173ffffffffffffffffffffffffffffffffffffffff021916908373ffffffffffffffffffffffffffffffffffffffff1602179055505056fe4f776e61626c653a206e6577206f776e657220697320746865207a65726f2061646472657373a265627a7a72315820d09c652c60002c33fa0fbf59129a470b52181e6819a448596498628e3676f46b64736f6c634300050c0032",
  "source": "pragma solidity ^0.5.0;\n\nimport \"chainlink/v0.5/contracts/Oracle.sol\";\nimport \"../contracts/UniswapExchangeInterface.sol\";\nimport \"../contracts/AaveLendingInterface.sol\";\nimport \"../contracts/ATokenInterface.sol\";\n\n/// @title Flannel Internal Contract\n/// @author hill399 (github.com/hill399)\n/// @notice Internal and helper functions for main Flannel contract (Flannel.sol)\ncontract IFlannel is Ownable {\n\n    using SafeMath for uint256;\n\n    Oracle internal oracle;\n    UniswapExchangeInterface internal linkExchangeInterface;\n    LendingPool internal lendingPool;\n\n    LinkTokenInterface internal stdLinkTokenInterface;\n    LinkTokenInterface internal aaveLinkTokenInterface;\n    AToken internal aLinkTokenInterface;\n\n    uint256 constant FINNEY = 1 * 10 ** 15;\n    uint256 constant ETHER = 1 * 10 ** 18;\n\n    /* Address of user node */\n    address public linkNode;\n\n    /* Lending pool approval address */\n    address internal lendingPoolApproval;\n\n    /* Struct to customise and store allowances */\n    struct thresholds {\n        string paramsName;\n        uint256 pcUntouched;\n        uint256 pcAave;\n        uint256 pcTopUp;\n        uint256 linkThreshold;\n        uint256 ethThreshold;\n        uint256 aaveThreshold;\n        uint256 ethTopUp;\n    }\n\n    /* Mapping to hold customised allowances */\n    thresholds public userStoredParams;\n\n    uint256 public storeBalance;\n    uint256 public aaveBalance;\n    uint256 public topUpBalance;\n\n    /// @notice Withdraw earned LINK balance from deployed oracle contract.\n    /// @dev Only node address can call this.\n    /// @dev Function selector : 0x61ff4fac\n    function _withdrawFromOracle(uint256 _amount)\n    internal\n    {\n        require(_amount <= oracle.withdrawable(), \"Not enough LINK in oracle to withdraw\");\n        oracle.withdraw(address(this), _amount);\n        storeBalance = storeBalance.add(_percentHelper(_amount, userStoredParams.pcUntouched));\n        aaveBalance = aaveBalance.add(_percentHelper(_amount, userStoredParams.pcAave));\n        topUpBalance = topUpBalance.add(_percentHelper(_amount, userStoredParams.pcTopUp));\n    }\n\n    /// @notice Deposit withdrawn LINK into Aave Protocol\n    /// @dev On testnet, Aave utilise their own LINK token. On test launch, a given amount is send to Flannel so that \"representative\"\n    ///      transactions can be made.\n    /// @dev Only node address can call this.\n    /// @dev Function selector : 0x06197c1c\n    function _depositToAave(uint256 _amount)\n    internal\n    {\n        require(_amount <= aaveBalance, \"Not enough allocated Aave Deposit funds\");\n        // Approve for aaveLINK tokens to be moved by the lending interface.\n        aaveLinkTokenInterface.approve(lendingPoolApproval, _amount + 100);\n        // Deposit aaveLINK into interest bearing contract.\n        lendingPool.deposit(address(aaveLinkTokenInterface), _amount, 0);\n        aaveBalance = aaveBalance.sub(_amount);\n    }\n\n    /// @notice Withdraw deposited LINK into Aave Protocol\n    /// @dev Only node address can call this.\n    function _withdrawFromAave(uint256 _amount)\n    internal\n    {\n        // Catch that _amount is greater thzan contract aLINK balance.\n        require(_amount <= aLinkTokenInterface.balanceOf(address(this)), \"Not enough aLINK in contract\");\n        // Redeem LINK using aLINK redeem function.\n        aLinkTokenInterface.redeem(_amount);\n        // Return LINK to Aave balance store\n        aaveBalance = aaveBalance.add(_amount);\n    }\n\n    /// @notice Convert LINK balance to ETH via Uniswap and send to node.\n    /// @dev Only node address can call this.\n    function _linkToEthTopUp(uint256 _amount, bool _auto)\n    internal\n    {\n        require(_amount <= topUpBalance, \"Not enough LINK to top-up\");\n        // Catch if topUpBalance is less than ethTopUp\n        uint256 topBalance;\n        if(_amount >= userStoredParams.ethTopUp && _auto) {\n            topBalance = userStoredParams.ethTopUp;\n        } else {\n            topBalance = _amount;\n        }\n        // Get current LINK -> ETH conversion rate\n        uint256 exchangeRate = getLinkToEthPrice(topBalance);\n        // Approve uniswap for transfer\n        stdLinkTokenInterface.approve(address(linkExchangeInterface), topBalance);\n        // Send to node address\n        linkExchangeInterface.tokenToEthTransferOutput(exchangeRate, topBalance, (now + 1 hours), linkNode);\n        // Reset topUpBalance\n        topUpBalance = topUpBalance.sub(topBalance);\n    }\n\n    function getLinkToEthPrice(uint256 _amount)\n    public\n    view\n    returns\n    (uint256)\n    {\n        return linkExchangeInterface.getTokenToEthInputPrice(_amount);\n    }\n\n    /// @notice Helper function to generate percentage of value\n    /// @dev (_value/100) * _percentage\n    function _percentHelper(uint256 _value, uint256 _percentage)\n    internal\n    pure\n    returns\n    (uint256)\n    {\n        uint256 tmpPer = _value.div(100);\n        tmpPer = tmpPer.mul(_percentage);\n        return tmpPer;\n    }\n}\n",
  "sourcePath": "/home/hill/github/Flannel/truffle/contracts/IFlannel.sol",
  "compiler": {
    "name": "solc",
    "version": "0.5.12+commit.7709ece9.Emscripten.clang"
  },
  "schemaVersion": "3.0.20",
  "updatedAt": "2020-02-19T16:54:21.062Z",
  "devdoc": {
    "author": "hill399 (github.com/hill399)",
    "methods": {
      "isOwner()": {
        "details": "Returns true if the caller is the current owner."
      },
      "owner()": {
        "details": "Returns the address of the current owner."
      },
      "transferOwnership(address)": {
        "details": "Transfers ownership of the contract to a new account (`newOwner`). Can only be called by the current owner."
      }
    },
    "title": "Flannel Internal Contract"
  },
  "userdoc": {
    "methods": {},
    "notice": "Internal and helper functions for main Flannel contract (Flannel.sol)"
  }
}