{
  "contractName": "Flannel",
  "abi": [
    {
      "inputs": [
        {
          "internalType": "address",
          "name": "_uniswapExchange",
          "type": "address"
        },
        {
          "internalType": "address",
          "name": "_stdLinkToken",
          "type": "address"
        },
        {
          "internalType": "address",
          "name": "_aaveLinkToken",
          "type": "address"
        },
        {
          "internalType": "address",
          "name": "_aLinkToken",
          "type": "address"
        },
        {
          "internalType": "address",
          "name": "_oracle",
          "type": "address"
        },
        {
          "internalType": "address",
          "name": "_linkNode",
          "type": "address"
        },
        {
          "internalType": "address",
          "name": "_lendingPool",
          "type": "address"
        },
        {
          "internalType": "address",
          "name": "_lendingPoolApproval",
          "type": "address"
        }
      ],
      "payable": false,
      "stateMutability": "nonpayable",
      "type": "constructor"
    },
    {
      "anonymous": false,
      "inputs": [
        {
          "indexed": true,
          "internalType": "address",
          "name": "previousOwner",
          "type": "address"
        },
        {
          "indexed": true,
          "internalType": "address",
          "name": "newOwner",
          "type": "address"
        }
      ],
      "name": "OwnershipTransferred",
      "type": "event"
    },
    {
      "constant": true,
      "inputs": [],
      "name": "aaveBalance",
      "outputs": [
        {
          "internalType": "uint256",
          "name": "",
          "type": "uint256"
        }
      ],
      "payable": false,
      "stateMutability": "view",
      "type": "function"
    },
    {
      "constant": true,
      "inputs": [],
      "name": "isOwner",
      "outputs": [
        {
          "internalType": "bool",
          "name": "",
          "type": "bool"
        }
      ],
      "payable": false,
      "stateMutability": "view",
      "type": "function"
    },
    {
      "constant": true,
      "inputs": [],
      "name": "owner",
      "outputs": [
        {
          "internalType": "address",
          "name": "",
          "type": "address"
        }
      ],
      "payable": false,
      "stateMutability": "view",
      "type": "function"
    },
    {
      "constant": true,
      "inputs": [],
      "name": "paramCounter",
      "outputs": [
        {
          "internalType": "uint256",
          "name": "",
          "type": "uint256"
        }
      ],
      "payable": false,
      "stateMutability": "view",
      "type": "function"
    },
    {
      "constant": true,
      "inputs": [],
      "name": "paramsInUse",
      "outputs": [
        {
          "internalType": "uint256",
          "name": "",
          "type": "uint256"
        }
      ],
      "payable": false,
      "stateMutability": "view",
      "type": "function"
    },
    {
      "constant": true,
      "inputs": [],
      "name": "storeBalance",
      "outputs": [
        {
          "internalType": "uint256",
          "name": "",
          "type": "uint256"
        }
      ],
      "payable": false,
      "stateMutability": "view",
      "type": "function"
    },
    {
      "constant": true,
      "inputs": [],
      "name": "topUpBalance",
      "outputs": [
        {
          "internalType": "uint256",
          "name": "",
          "type": "uint256"
        }
      ],
      "payable": false,
      "stateMutability": "view",
      "type": "function"
    },
    {
      "constant": false,
      "inputs": [
        {
          "internalType": "address",
          "name": "newOwner",
          "type": "address"
        }
      ],
      "name": "transferOwnership",
      "outputs": [],
      "payable": false,
      "stateMutability": "nonpayable",
      "type": "function"
    },
    {
      "constant": true,
      "inputs": [
        {
          "internalType": "uint256",
          "name": "",
          "type": "uint256"
        }
      ],
      "name": "userStoredParams",
      "outputs": [
        {
          "internalType": "string",
          "name": "paramsName",
          "type": "string"
        },
        {
          "internalType": "uint256",
          "name": "pcUntouched",
          "type": "uint256"
        },
        {
          "internalType": "uint256",
          "name": "pcAave",
          "type": "uint256"
        },
        {
          "internalType": "uint256",
          "name": "pcTopUp",
          "type": "uint256"
        },
        {
          "internalType": "uint256",
          "name": "linkThreshold",
          "type": "uint256"
        },
        {
          "internalType": "uint256",
          "name": "ethThreshold",
          "type": "uint256"
        },
        {
          "internalType": "uint256",
          "name": "aaveThreshold",
          "type": "uint256"
        },
        {
          "internalType": "uint256",
          "name": "ethTopUp",
          "type": "uint256"
        }
      ],
      "payable": false,
      "stateMutability": "view",
      "type": "function"
    },
    {
      "constant": false,
      "inputs": [],
      "name": "flannelCoordinator",
      "outputs": [],
      "payable": false,
      "stateMutability": "nonpayable",
      "type": "function"
    },
    {
      "constant": false,
      "inputs": [
        {
          "internalType": "string",
          "name": "_paramsName",
          "type": "string"
        },
        {
          "internalType": "uint256",
          "name": "_pcUntouched",
          "type": "uint256"
        },
        {
          "internalType": "uint256",
          "name": "_pcAave",
          "type": "uint256"
        },
        {
          "internalType": "uint256",
          "name": "_pcTopUp",
          "type": "uint256"
        },
        {
          "internalType": "uint256",
          "name": "_linkThreshold",
          "type": "uint256"
        },
        {
          "internalType": "uint256",
          "name": "_ethThreshold",
          "type": "uint256"
        },
        {
          "internalType": "uint256",
          "name": "_aaveThreshold",
          "type": "uint256"
        },
        {
          "internalType": "uint256",
          "name": "_ethTopUp",
          "type": "uint256"
        }
      ],
      "name": "createNewAllowance",
      "outputs": [],
      "payable": false,
      "stateMutability": "nonpayable",
      "type": "function"
    },
    {
      "constant": false,
      "inputs": [
        {
          "internalType": "address",
          "name": "_liveOracle",
          "type": "address"
        },
        {
          "internalType": "address",
          "name": "_linkNode",
          "type": "address"
        }
      ],
      "name": "configureOracleSetup",
      "outputs": [],
      "payable": false,
      "stateMutability": "nonpayable",
      "type": "function"
    },
    {
      "constant": false,
      "inputs": [
        {
          "internalType": "uint256",
          "name": "_paramNo",
          "type": "uint256"
        }
      ],
      "name": "setParametersInUse",
      "outputs": [],
      "payable": false,
      "stateMutability": "nonpayable",
      "type": "function"
    },
    {
      "constant": false,
      "inputs": [],
      "name": "revertOracleOwnership",
      "outputs": [],
      "payable": false,
      "stateMutability": "nonpayable",
      "type": "function"
    }
  ],
  "bytecode": "0x60806040523480156200001157600080fd5b50604051620021cb380380620021cb83398181016040526101008110156200003857600080fd5b810190808051906020019092919080519060200190929190805190602001909291908051906020019092919080519060200190929190805190602001909291908051906020019092919080519060200190929190505050336000806101000a81548173ffffffffffffffffffffffffffffffffffffffff021916908373ffffffffffffffffffffffffffffffffffffffff1602179055506000809054906101000a900473ffffffffffffffffffffffffffffffffffffffff1673ffffffffffffffffffffffffffffffffffffffff16600073ffffffffffffffffffffffffffffffffffffffff167f8be0079c531659141344cd1fd0a4f28419497f9722a3daafe3b4186f6b6457e060405160405180910390a387600260006101000a81548173ffffffffffffffffffffffffffffffffffffffff021916908373ffffffffffffffffffffffffffffffffffffffff16021790555086600460006101000a81548173ffffffffffffffffffffffffffffffffffffffff021916908373ffffffffffffffffffffffffffffffffffffffff16021790555085600560006101000a81548173ffffffffffffffffffffffffffffffffffffffff021916908373ffffffffffffffffffffffffffffffffffffffff16021790555084600660006101000a81548173ffffffffffffffffffffffffffffffffffffffff021916908373ffffffffffffffffffffffffffffffffffffffff16021790555083600160006101000a81548173ffffffffffffffffffffffffffffffffffffffff021916908373ffffffffffffffffffffffffffffffffffffffff16021790555082600760006101000a81548173ffffffffffffffffffffffffffffffffffffffff021916908373ffffffffffffffffffffffffffffffffffffffff16021790555081600360006101000a81548173ffffffffffffffffffffffffffffffffffffffff021916908373ffffffffffffffffffffffffffffffffffffffff16021790555080600860006101000a81548173ffffffffffffffffffffffffffffffffffffffff021916908373ffffffffffffffffffffffffffffffffffffffff1602179055506040518061010001604052806040518060400160405280600781526020017f44656661756c7400000000000000000000000000000000000000000000000000815250815260200160148152602001603c815260200160148152602001670de0b6b3a76400006005028152602001670de0b6b3a76400006001028152602001670de0b6b3a7640000600a02815260200166038d7ea4c6800061012c02815250600960008081526020019081526020016000206000820151816000019080519060200190620004229291906200048a565b506020820151816001015560408201518160020155606082015181600301556080820151816004015560a0820151816005015560c0820151816006015560e082015181600701559050506001600a819055506000600b81905550505050505050505062000539565b828054600181600116156101000203166002900490600052602060002090601f016020900481019282601f10620004cd57805160ff1916838001178555620004fe565b82800160010185558215620004fe579182015b82811115620004fd578251825591602001919060010190620004e0565b5b5090506200050d919062000511565b5090565b6200053691905b808211156200053257600081600090555060010162000518565b5090565b90565b611c8280620005496000396000f3fe608060405234801561001057600080fd5b50600436106100ea5760003560e01c8063a0649f401161008c578063d610bf0f11610066578063d610bf0f14610307578063d9ae18521461036b578063e68f58a714610443578063f2fde38b14610471576100ea565b8063a0649f40146101c9578063b8a9897f146102cb578063bf5c88ff146102e9576100ea565b80637efff887116100c85780637efff8871461013557806386b12681146101535780638da5cb5b1461015d5780638f32d59b146101a7576100ea565b80630cbfef9f146100ef5780632a1d5e47146100f95780632b3501f214610117575b600080fd5b6100f76104b5565b005b6101016105ea565b6040518082815260200191505060405180910390f35b61011f6105f0565b6040518082815260200191505060405180910390f35b61013d6105f6565b6040518082815260200191505060405180910390f35b61015b6105fc565b005b6101656108e8565b604051808273ffffffffffffffffffffffffffffffffffffffff1673ffffffffffffffffffffffffffffffffffffffff16815260200191505060405180910390f35b6101af610911565b604051808215151515815260200191505060405180910390f35b6102c960048036036101008110156101e057600080fd5b81019080803590602001906401000000008111156101fd57600080fd5b82018360208201111561020f57600080fd5b8035906020019184600183028401116401000000008311171561023157600080fd5b91908080601f016020809104026020016040519081016040528093929190818152602001838380828437600081840152601f19601f82011690508083019250505050505050919291929080359060200190929190803590602001909291908035906020019092919080359060200190929190803590602001909291908035906020019092919080359060200190929190505050610968565b005b6102d3610b4c565b6040518082815260200191505060405180910390f35b6102f1610b52565b6040518082815260200191505060405180910390f35b6103696004803603604081101561031d57600080fd5b81019080803573ffffffffffffffffffffffffffffffffffffffff169060200190929190803573ffffffffffffffffffffffffffffffffffffffff169060200190929190505050610b58565b005b6103976004803603602081101561038157600080fd5b8101908080359060200190929190505050610c58565b604051808060200189815260200188815260200187815260200186815260200185815260200184815260200183815260200182810382528a818151815260200191508051906020019080838360005b838110156104015780820151818401526020810190506103e6565b50505050905090810190601f16801561042e5780820380516001836020036101000a031916815260200191505b50995050505050505050505060405180910390f35b61046f6004803603602081101561045957600080fd5b8101908080359060200190929190505050610d38565b005b6104b36004803603602081101561048757600080fd5b81019080803573ffffffffffffffffffffffffffffffffffffffff169060200190929190505050610e33565b005b6104bd610911565b61052f576040517f08c379a00000000000000000000000000000000000000000000000000000000081526004018080602001828103825260208152602001807f4f776e61626c653a2063616c6c6572206973206e6f7420746865206f776e657281525060200191505060405180910390fd5b600160009054906101000a900473ffffffffffffffffffffffffffffffffffffffff1673ffffffffffffffffffffffffffffffffffffffff1663f2fde38b336040518263ffffffff1660e01b8152600401808273ffffffffffffffffffffffffffffffffffffffff1673ffffffffffffffffffffffffffffffffffffffff168152602001915050600060405180830381600087803b1580156105d057600080fd5b505af11580156105e4573d6000803e3d6000fd5b50505050565b600d5481565b600b5481565b600e5481565b600760009054906101000a900473ffffffffffffffffffffffffffffffffffffffff1673ffffffffffffffffffffffffffffffffffffffff163373ffffffffffffffffffffffffffffffffffffffff16146106bf576040517f08c379a000000000000000000000000000000000000000000000000000000000815260040180806020018281038252601f8152602001807f4f6e6c79206e6f646520616464726573732063616e2063616c6c20746869730081525060200191505060405180910390fd5b6000600160009054906101000a900473ffffffffffffffffffffffffffffffffffffffff1673ffffffffffffffffffffffffffffffffffffffff1663501883016040518163ffffffff1660e01b815260040160206040518083038186803b15801561072957600080fd5b505afa15801561073d573d6000803e3d6000fd5b505050506040513d602081101561075357600080fd5b8101908080519060200190929190505050905060096000600b54815260200190815260200160002060040154811061078f5761078e81610eb9565b5b60096000600b54815260200190815260200160002060050154600760009054906101000a900473ffffffffffffffffffffffffffffffffffffffff1673ffffffffffffffffffffffffffffffffffffffff1631116108b857600073ffffffffffffffffffffffffffffffffffffffff16600760009054906101000a900473ffffffffffffffffffffffffffffffffffffffff1673ffffffffffffffffffffffffffffffffffffffff1614156108ac576040517f08c379a00000000000000000000000000000000000000000000000000000000081526004018080602001828103825260188152602001807f496e76616c6964204c696e6b4e6f64652041646472657373000000000000000081525060200191505060405180910390fd5b6108b7600e5461112c565b5b60096000600b54815260200190815260200160002060060154600d54116108e5576108e4600d546114dd565b5b50565b60008060009054906101000a900473ffffffffffffffffffffffffffffffffffffffff16905090565b60008060009054906101000a900473ffffffffffffffffffffffffffffffffffffffff1673ffffffffffffffffffffffffffffffffffffffff163373ffffffffffffffffffffffffffffffffffffffff1614905090565b610970610911565b6109e2576040517f08c379a00000000000000000000000000000000000000000000000000000000081526004018080602001828103825260208152602001807f4f776e61626c653a2063616c6c6572206973206e6f7420746865206f776e657281525060200191505060405180910390fd5b60006109f7878961175090919063ffffffff16565b9050610a0c868261175090919063ffffffff16565b905060648114610a67576040517f08c379a0000000000000000000000000000000000000000000000000000000008152600401808060200182810382526023815260200180611c2b6023913960400191505060405180910390fd5b6040518061010001604052808a81526020018981526020018881526020018781526020018681526020018581526020018481526020018381525060096000600a5481526020019081526020016000206000820151816000019080519060200190610ad2929190611af2565b506020820151816001015560408201518160020155606082015181600301556080820151816004015560a0820151816005015560c0820151816006015560e08201518160070155905050600a54600b81905550610b3b6001600a5461175090919063ffffffff16565b600a81905550505050505050505050565b600a5481565b600c5481565b610b60610911565b610bd2576040517f08c379a00000000000000000000000000000000000000000000000000000000081526004018080602001828103825260208152602001807f4f776e61626c653a2063616c6c6572206973206e6f7420746865206f776e657281525060200191505060405180910390fd5b81600160006101000a81548173ffffffffffffffffffffffffffffffffffffffff021916908373ffffffffffffffffffffffffffffffffffffffff16021790555080600760006101000a81548173ffffffffffffffffffffffffffffffffffffffff021916908373ffffffffffffffffffffffffffffffffffffffff1602179055505050565b6009602052806000526040600020600091509050806000018054600181600116156101000203166002900480601f016020809104026020016040519081016040528092919081815260200182805460018160011615610100020316600290048015610d045780601f10610cd957610100808354040283529160200191610d04565b820191906000526020600020905b815481529060010190602001808311610ce757829003601f168201915b5050505050908060010154908060020154908060030154908060040154908060050154908060060154908060070154905088565b610d40610911565b610db2576040517f08c379a00000000000000000000000000000000000000000000000000000000081526004018080602001828103825260208152602001807f4f776e61626c653a2063616c6c6572206973206e6f7420746865206f776e657281525060200191505060405180910390fd5b600a548110610e29576040517f08c379a00000000000000000000000000000000000000000000000000000000081526004018080602001828103825260158152602001807f496e76616c696420706172616d6574657220736574000000000000000000000081525060200191505060405180910390fd5b80600b8190555050565b610e3b610911565b610ead576040517f08c379a00000000000000000000000000000000000000000000000000000000081526004018080602001828103825260208152602001807f4f776e61626c653a2063616c6c6572206973206e6f7420746865206f776e657281525060200191505060405180910390fd5b610eb6816117d8565b50565b600160009054906101000a900473ffffffffffffffffffffffffffffffffffffffff1673ffffffffffffffffffffffffffffffffffffffff1663501883016040518163ffffffff1660e01b815260040160206040518083038186803b158015610f2157600080fd5b505afa158015610f35573d6000803e3d6000fd5b505050506040513d6020811015610f4b57600080fd5b8101908080519060200190929190505050811115610fb4576040517f08c379a0000000000000000000000000000000000000000000000000000000008152600401808060200182810382526025815260200180611b986025913960400191505060405180910390fd5b600160009054906101000a900473ffffffffffffffffffffffffffffffffffffffff1673ffffffffffffffffffffffffffffffffffffffff1663f3fef3a330836040518363ffffffff1660e01b8152600401808373ffffffffffffffffffffffffffffffffffffffff1673ffffffffffffffffffffffffffffffffffffffff16815260200182815260200192505050600060405180830381600087803b15801561105d57600080fd5b505af1158015611071573d6000803e3d6000fd5b505050506110ab61109a8260096000600b5481526020019081526020016000206001015461191c565b600c5461175090919063ffffffff16565b600c819055506110e76110d68260096000600b5481526020019081526020016000206002015461191c565b600d5461175090919063ffffffff16565b600d819055506111236111128260096000600b5481526020019081526020016000206003015461191c565b600e5461175090919063ffffffff16565b600e8190555050565b600e548111156111a4576040517f08c379a00000000000000000000000000000000000000000000000000000000081526004018080602001828103825260198152602001807f4e6f7420656e6f756768204c494e4b20746f20746f702d75700000000000000081525060200191505060405180910390fd5b600060096000600b5481526020019081526020016000206007015482106111e55760096000600b5481526020019081526020016000206007015490506111e9565b8190505b6000600260009054906101000a900473ffffffffffffffffffffffffffffffffffffffff1673ffffffffffffffffffffffffffffffffffffffff166395b68fe7836040518263ffffffff1660e01b81526004018082815260200191505060206040518083038186803b15801561125e57600080fd5b505afa158015611272573d6000803e3d6000fd5b505050506040513d602081101561128857600080fd5b81019080805190602001909291905050509050600460009054906101000a900473ffffffffffffffffffffffffffffffffffffffff1673ffffffffffffffffffffffffffffffffffffffff1663095ea7b3600260009054906101000a900473ffffffffffffffffffffffffffffffffffffffff16846040518363ffffffff1660e01b8152600401808373ffffffffffffffffffffffffffffffffffffffff1673ffffffffffffffffffffffffffffffffffffffff16815260200182815260200192505050602060405180830381600087803b15801561136657600080fd5b505af115801561137a573d6000803e3d6000fd5b505050506040513d602081101561139057600080fd5b810190808051906020019092919050505050600260009054906101000a900473ffffffffffffffffffffffffffffffffffffffff1673ffffffffffffffffffffffffffffffffffffffff1663d4e4841d8284610e104201600760009054906101000a900473ffffffffffffffffffffffffffffffffffffffff166040518563ffffffff1660e01b8152600401808581526020018481526020018381526020018273ffffffffffffffffffffffffffffffffffffffff1673ffffffffffffffffffffffffffffffffffffffff168152602001945050505050602060405180830381600087803b15801561148157600080fd5b505af1158015611495573d6000803e3d6000fd5b505050506040513d60208110156114ab57600080fd5b8101908080519060200190929190505050506114d282600e5461195490919063ffffffff16565b600e81905550505050565b600d54811015611538576040517f08c379a0000000000000000000000000000000000000000000000000000000008152600401808060200182810382526027815260200180611be36027913960400191505060405180910390fd5b600560009054906101000a900473ffffffffffffffffffffffffffffffffffffffff1673ffffffffffffffffffffffffffffffffffffffff1663095ea7b3600860009054906101000a900473ffffffffffffffffffffffffffffffffffffffff16606484016040518363ffffffff1660e01b8152600401808373ffffffffffffffffffffffffffffffffffffffff1673ffffffffffffffffffffffffffffffffffffffff16815260200182815260200192505050602060405180830381600087803b15801561160657600080fd5b505af115801561161a573d6000803e3d6000fd5b505050506040513d602081101561163057600080fd5b810190808051906020019092919050505050600360009054906101000a900473ffffffffffffffffffffffffffffffffffffffff1673ffffffffffffffffffffffffffffffffffffffff1663d2d0e066600560009054906101000a900473ffffffffffffffffffffffffffffffffffffffff168360006040518463ffffffff1660e01b8152600401808473ffffffffffffffffffffffffffffffffffffffff1673ffffffffffffffffffffffffffffffffffffffff1681526020018381526020018261ffff1681526020019350505050600060405180830381600087803b15801561171a57600080fd5b505af115801561172e573d6000803e3d6000fd5b5050505061174781600d5461195490919063ffffffff16565b600d8190555050565b6000808284019050838110156117ce576040517f08c379a000000000000000000000000000000000000000000000000000000000815260040180806020018281038252601b8152602001807f536166654d6174683a206164646974696f6e206f766572666c6f77000000000081525060200191505060405180910390fd5b8091505092915050565b600073ffffffffffffffffffffffffffffffffffffffff168173ffffffffffffffffffffffffffffffffffffffff16141561185e576040517f08c379a0000000000000000000000000000000000000000000000000000000008152600401808060200182810382526026815260200180611bbd6026913960400191505060405180910390fd5b8073ffffffffffffffffffffffffffffffffffffffff166000809054906101000a900473ffffffffffffffffffffffffffffffffffffffff1673ffffffffffffffffffffffffffffffffffffffff167f8be0079c531659141344cd1fd0a4f28419497f9722a3daafe3b4186f6b6457e060405160405180910390a3806000806101000a81548173ffffffffffffffffffffffffffffffffffffffff021916908373ffffffffffffffffffffffffffffffffffffffff16021790555050565b6000806119336064856119dd90919063ffffffff16565b90506119488382611a6c90919063ffffffff16565b90508091505092915050565b6000828211156119cc576040517f08c379a000000000000000000000000000000000000000000000000000000000815260040180806020018281038252601e8152602001807f536166654d6174683a207375627472616374696f6e206f766572666c6f77000081525060200191505060405180910390fd5b600082840390508091505092915050565b6000808211611a54576040517f08c379a000000000000000000000000000000000000000000000000000000000815260040180806020018281038252601a8152602001807f536166654d6174683a206469766973696f6e206279207a65726f00000000000081525060200191505060405180910390fd5b6000828481611a5f57fe5b0490508091505092915050565b600080831415611a7f5760009050611aec565b6000828402905082848281611a9057fe5b0414611ae7576040517f08c379a0000000000000000000000000000000000000000000000000000000008152600401808060200182810382526021815260200180611c0a6021913960400191505060405180910390fd5b809150505b92915050565b828054600181600116156101000203166002900490600052602060002090601f016020900481019282601f10611b3357805160ff1916838001178555611b61565b82800160010185558215611b61579182015b82811115611b60578251825591602001919060010190611b45565b5b509050611b6e9190611b72565b5090565b611b9491905b80821115611b90576000816000905550600101611b78565b5090565b9056fe4e6f7420656e6f756768204c494e4b20696e206f7261636c6520746f2077697468647261774f776e61626c653a206e6577206f776e657220697320746865207a65726f20616464726573734e6f7420656e6f75676820616c6c6f63617465642041617665204465706f7369742066756e6473536166654d6174683a206d756c7469706c69636174696f6e206f766572666c6f7750657263656e7420706172616d657465727320646f206e6f7420657175616c20313030a265627a7a72315820fa0309128edd4081bc6498c77044f142fce277054b84915a57a078021d6c672164736f6c634300050c0032",
  "source": "pragma solidity ^0.5.0;\r\n\r\nimport \"../contracts/IFlannel.sol\";\r\n\r\n/// @title Flannel Main Contract\r\n/// @author hill399 (github.com/hill399)\r\n/// @notice Extension of Chainlink oracle contract to allow for additional features.\r\ncontract Flannel is IFlannel {\r\n\r\n    /// @notice Constructor to set default contract values.\r\n    /// @param _uniswapExchange address of Uniswap exchange contract.\r\n    /// @param _stdLinkToken address of Chainlink (LINK) token.\r\n    /// @param _aaveLinkToken address of Aave Link token.\r\n    /// @param _aLinkToken address for the aLink Interest Bearing Token.\r\n    /// @param _oracle address of user-deployed oracle contract.\r\n    constructor\r\n    (\r\n    address _uniswapExchange,\r\n    address _stdLinkToken,\r\n    address _aaveLinkToken,\r\n    address _aLinkToken,\r\n    address _oracle,\r\n    address _linkNode,\r\n    address _lendingPool,\r\n    address _lendingPoolApproval\r\n    )\r\n    public\r\n    {\r\n        linkExchangeInterface = UniswapExchangeInterface(_uniswapExchange);\r\n        stdLinkTokenInterface = LinkTokenInterface(_stdLinkToken);\r\n        aaveLinkTokenInterface = LinkTokenInterface(_aaveLinkToken);\r\n        aLinkTokenInterface = AToken(_aLinkToken);\r\n        oracle = Oracle(_oracle);\r\n        linkNode = _linkNode;\r\n\r\n        lendingPool = LendingPool(_lendingPool);\r\n        lendingPoolApproval = _lendingPoolApproval;\r\n\r\n        /* Create default param account */\r\n        /* Fix those token mod values */\r\n        userStoredParams[0] = thresholds(\"Default\", 20, 60, 20, 5 * ETHER, 1 * ETHER, 10 * ETHER, 300 * FINNEY);\r\n        paramCounter = 1;\r\n        paramsInUse = 0;\r\n    }\r\n\r\n    /// @notice Restricts certain calls to node address only.\r\n    modifier onlyNodeAddress()\r\n    {\r\n        require(msg.sender == linkNode, \"Only node address can call this\");\r\n        _;\r\n    }\r\n\r\n    function flannelCoordinator()\r\n    public\r\n    onlyNodeAddress()\r\n    {\r\n        uint256 availableFunds = oracle.withdrawable();\r\n        if(availableFunds >= userStoredParams[paramsInUse].linkThreshold){\r\n           _withdrawFromOracle(availableFunds);\r\n        }\r\n\r\n        if(linkNode.balance <= userStoredParams[paramsInUse].ethThreshold){\r\n           require(linkNode != address(0), \"Invalid LinkNode Address\");\r\n           _linkToEthTopUp(topUpBalance);\r\n        }\r\n\r\n        if(aaveBalance <= userStoredParams[paramsInUse].aaveThreshold){\r\n           _depositToAave(aaveBalance);\r\n        }\r\n    }\r\n\r\n    /// @notice Create new parameter settings to distribute withdrawn LINK.\r\n    /// @param _paramsName Reference name of params.\r\n    /// @param _pcUntouched % to leave untouched in contract.\r\n    /// @param _pcAave % to deposited to Aave.\r\n    /// @param _pcTopUp % to allocate to node top-up.\r\n    /// @param _linkThreshold LINK value in wei to determine when to withdraw from Oracle contract.\r\n    /// @param _ethThreshold ETH value in wei to determine when to top-up LINK node.\r\n    /// @param _aaveThreshold LINK value in wei to determine when to trigger Aave deposit.\r\n    /// @param _ethTopUp ETH value in wei to top-up LINK node when triggered.\r\n    /// @dev Only owner can call this.\r\n    /// @dev Function selector :\r\n    function createNewAllowance(\r\n    string memory _paramsName,\r\n    uint256 _pcUntouched,\r\n    uint256 _pcAave,\r\n    uint256 _pcTopUp,\r\n    uint256 _linkThreshold,\r\n    uint256 _ethThreshold,\r\n    uint256 _aaveThreshold,\r\n    uint256 _ethTopUp)\r\n    public\r\n    onlyOwner\r\n    {\r\n        uint256 pcTemp = _pcUntouched.add(_pcAave);\r\n        pcTemp = pcTemp.add(_pcTopUp);\r\n        require(pcTemp == 100, \"Percent parameters do not equal 100\");\r\n        userStoredParams[paramCounter] = thresholds(_paramsName, _pcUntouched, _pcAave, _pcTopUp, _linkThreshold, _ethThreshold, _aaveThreshold, _ethTopUp);\r\n        paramsInUse = paramCounter;\r\n        paramCounter = paramCounter.add(1);\r\n    }\r\n\r\n    /// @notice Change address of oracle contract (in case of re-deployment).\r\n    /// @param _liveOracle new address of oracle contract.\r\n    function configureOracleSetup(address _liveOracle, address _linkNode)\r\n    public\r\n    onlyOwner\r\n    {\r\n        oracle = Oracle(_liveOracle);\r\n        linkNode = _linkNode;\r\n    }\r\n\r\n    /// @notice Set threshold parameter set to use.\r\n    /// @param _paramNo new address of oracle contract.\r\n    function setParametersInUse(uint256 _paramNo)\r\n    public\r\n    onlyOwner\r\n    {\r\n        require(_paramNo < paramCounter, \"Invalid parameter set\");\r\n        paramsInUse = _paramNo;\r\n    }\r\n\r\n    /// @notice Renounce ownership of oracle contract back to owner of this contract.\r\n    /// @dev Only owner of contract may call this.\r\n    function revertOracleOwnership()\r\n    public\r\n    onlyOwner\r\n    {\r\n        oracle.transferOwnership(msg.sender);\r\n    }\r\n\r\n}",
  "sourcePath": "C:/Users/CHILL/truffle_u/Flannel/truffle/contracts/Flannel.sol",
  "compiler": {
    "name": "solc",
    "version": "0.5.12+commit.7709ece9.Emscripten.clang"
  },
  "schemaVersion": "3.0.21",
  "updatedAt": "2020-01-28T08:50:38.032Z",
  "devdoc": {
    "author": "hill399 (github.com/hill399)",
    "methods": {
      "configureOracleSetup(address,address)": {
        "params": {
          "_liveOracle": "new address of oracle contract."
        }
      },
      "constructor": {
        "params": {
          "_aLinkToken": "address for the aLink Interest Bearing Token.",
          "_aaveLinkToken": "address of Aave Link token.",
          "_oracle": "address of user-deployed oracle contract.",
          "_stdLinkToken": "address of Chainlink (LINK) token.",
          "_uniswapExchange": "address of Uniswap exchange contract."
        }
      },
      "createNewAllowance(string,uint256,uint256,uint256,uint256,uint256,uint256,uint256)": {
        "details": "Only owner can call this.Function selector :",
        "params": {
          "_aaveThreshold": "LINK value in wei to determine when to trigger Aave deposit.",
          "_ethThreshold": "ETH value in wei to determine when to top-up LINK node.",
          "_ethTopUp": "ETH value in wei to top-up LINK node when triggered.",
          "_linkThreshold": "LINK value in wei to determine when to withdraw from Oracle contract.",
          "_paramsName": "Reference name of params.",
          "_pcAave": "% to deposited to Aave.",
          "_pcTopUp": "% to allocate to node top-up.",
          "_pcUntouched": "% to leave untouched in contract."
        }
      },
      "isOwner()": {
        "details": "Returns true if the caller is the current owner."
      },
      "owner()": {
        "details": "Returns the address of the current owner."
      },
      "revertOracleOwnership()": {
        "details": "Only owner of contract may call this."
      },
      "setParametersInUse(uint256)": {
        "params": {
          "_paramNo": "new address of oracle contract."
        }
      },
      "transferOwnership(address)": {
        "details": "Transfers ownership of the contract to a new account (`newOwner`). Can only be called by the current owner."
      }
    },
    "title": "Flannel Main Contract"
  },
  "userdoc": {
    "methods": {
      "configureOracleSetup(address,address)": {
        "notice": "Change address of oracle contract (in case of re-deployment)."
      },
      "constructor": "Constructor to set default contract values.",
      "createNewAllowance(string,uint256,uint256,uint256,uint256,uint256,uint256,uint256)": {
        "notice": "Create new parameter settings to distribute withdrawn LINK."
      },
      "revertOracleOwnership()": {
        "notice": "Renounce ownership of oracle contract back to owner of this contract."
      },
      "setParametersInUse(uint256)": {
        "notice": "Set threshold parameter set to use."
      }
    },
    "notice": "Extension of Chainlink oracle contract to allow for additional features."
  }
}