{
  "contractName": "Flannel",
  "abi": [
    {
      "inputs": [
        {
          "internalType": "address",
          "name": "_uniswapExchange",
          "type": "address"
        },
        {
          "internalType": "address",
          "name": "_stdLinkToken",
          "type": "address"
        },
        {
          "internalType": "address",
          "name": "_aaveLinkToken",
          "type": "address"
        },
        {
          "internalType": "address",
          "name": "_aLinkToken",
          "type": "address"
        },
        {
          "internalType": "address",
          "name": "_oracle",
          "type": "address"
        },
        {
          "internalType": "address",
          "name": "_linkNode",
          "type": "address"
        },
        {
          "internalType": "address",
          "name": "_lendingPool",
          "type": "address"
        },
        {
          "internalType": "address",
          "name": "_lendingPoolApproval",
          "type": "address"
        }
      ],
      "payable": false,
      "stateMutability": "nonpayable",
      "type": "constructor"
    },
    {
      "anonymous": false,
      "inputs": [
        {
          "indexed": true,
          "internalType": "address",
          "name": "previousOwner",
          "type": "address"
        },
        {
          "indexed": true,
          "internalType": "address",
          "name": "newOwner",
          "type": "address"
        }
      ],
      "name": "OwnershipTransferred",
      "type": "event"
    },
    {
      "constant": true,
      "inputs": [],
      "name": "isOwner",
      "outputs": [
        {
          "internalType": "bool",
          "name": "",
          "type": "bool"
        }
      ],
      "payable": false,
      "stateMutability": "view",
      "type": "function"
    },
    {
      "constant": true,
      "inputs": [],
      "name": "owner",
      "outputs": [
        {
          "internalType": "address",
          "name": "",
          "type": "address"
        }
      ],
      "payable": false,
      "stateMutability": "view",
      "type": "function"
    },
    {
      "constant": true,
      "inputs": [],
      "name": "paramCounter",
      "outputs": [
        {
          "internalType": "uint256",
          "name": "",
          "type": "uint256"
        }
      ],
      "payable": false,
      "stateMutability": "view",
      "type": "function"
    },
    {
      "constant": true,
      "inputs": [],
      "name": "paramsInUse",
      "outputs": [
        {
          "internalType": "uint256",
          "name": "",
          "type": "uint256"
        }
      ],
      "payable": false,
      "stateMutability": "view",
      "type": "function"
    },
    {
      "constant": false,
      "inputs": [
        {
          "internalType": "address",
          "name": "newOwner",
          "type": "address"
        }
      ],
      "name": "transferOwnership",
      "outputs": [],
      "payable": false,
      "stateMutability": "nonpayable",
      "type": "function"
    },
    {
      "constant": true,
      "inputs": [
        {
          "internalType": "uint256",
          "name": "",
          "type": "uint256"
        }
      ],
      "name": "userStoredParams",
      "outputs": [
        {
          "internalType": "string",
          "name": "paramsName",
          "type": "string"
        },
        {
          "internalType": "uint256",
          "name": "pcUntouched",
          "type": "uint256"
        },
        {
          "internalType": "uint256",
          "name": "pcAave",
          "type": "uint256"
        },
        {
          "internalType": "uint256",
          "name": "pcTopUp",
          "type": "uint256"
        },
        {
          "internalType": "uint256",
          "name": "linkThreshold",
          "type": "uint256"
        },
        {
          "internalType": "uint256",
          "name": "ethThreshold",
          "type": "uint256"
        },
        {
          "internalType": "uint256",
          "name": "ethTopUp",
          "type": "uint256"
        }
      ],
      "payable": false,
      "stateMutability": "view",
      "type": "function"
    },
    {
      "constant": false,
      "inputs": [
        {
          "internalType": "string",
          "name": "_paramsName",
          "type": "string"
        },
        {
          "internalType": "uint256",
          "name": "_pcUntouched",
          "type": "uint256"
        },
        {
          "internalType": "uint256",
          "name": "_pcAave",
          "type": "uint256"
        },
        {
          "internalType": "uint256",
          "name": "_pcTopUp",
          "type": "uint256"
        },
        {
          "internalType": "uint256",
          "name": "_linkThreshold",
          "type": "uint256"
        },
        {
          "internalType": "uint256",
          "name": "_ethThreshold",
          "type": "uint256"
        },
        {
          "internalType": "uint256",
          "name": "_ethTopUp",
          "type": "uint256"
        }
      ],
      "name": "createNewAllowance",
      "outputs": [],
      "payable": false,
      "stateMutability": "nonpayable",
      "type": "function"
    },
    {
      "constant": false,
      "inputs": [],
      "name": "withdrawFromOracle",
      "outputs": [],
      "payable": false,
      "stateMutability": "nonpayable",
      "type": "function"
    },
    {
      "constant": false,
      "inputs": [],
      "name": "depositToAave",
      "outputs": [],
      "payable": false,
      "stateMutability": "nonpayable",
      "type": "function"
    },
    {
      "constant": false,
      "inputs": [],
      "name": "withdrawFromAave",
      "outputs": [],
      "payable": false,
      "stateMutability": "nonpayable",
      "type": "function"
    },
    {
      "constant": false,
      "inputs": [],
      "name": "linkToEthTopUp",
      "outputs": [],
      "payable": false,
      "stateMutability": "nonpayable",
      "type": "function"
    },
    {
      "constant": false,
      "inputs": [
        {
          "internalType": "address",
          "name": "_liveOracle",
          "type": "address"
        },
        {
          "internalType": "address",
          "name": "_linkNode",
          "type": "address"
        }
      ],
      "name": "configureOracleSetup",
      "outputs": [],
      "payable": false,
      "stateMutability": "nonpayable",
      "type": "function"
    },
    {
      "constant": false,
      "inputs": [],
      "name": "revertOracleOwnership",
      "outputs": [],
      "payable": false,
      "stateMutability": "nonpayable",
      "type": "function"
    }
  ],
  "bytecode": "0x60806040523480156200001157600080fd5b5060405162001ea538038062001ea583398181016040526101008110156200003857600080fd5b810190808051906020019092919080519060200190929190805190602001909291908051906020019092919080519060200190929190805190602001909291908051906020019092919080519060200190929190505050336000806101000a81548173ffffffffffffffffffffffffffffffffffffffff021916908373ffffffffffffffffffffffffffffffffffffffff1602179055506000809054906101000a900473ffffffffffffffffffffffffffffffffffffffff1673ffffffffffffffffffffffffffffffffffffffff16600073ffffffffffffffffffffffffffffffffffffffff167f8be0079c531659141344cd1fd0a4f28419497f9722a3daafe3b4186f6b6457e060405160405180910390a387600260006101000a81548173ffffffffffffffffffffffffffffffffffffffff021916908373ffffffffffffffffffffffffffffffffffffffff16021790555086600460006101000a81548173ffffffffffffffffffffffffffffffffffffffff021916908373ffffffffffffffffffffffffffffffffffffffff16021790555085600560006101000a81548173ffffffffffffffffffffffffffffffffffffffff021916908373ffffffffffffffffffffffffffffffffffffffff16021790555084600660006101000a81548173ffffffffffffffffffffffffffffffffffffffff021916908373ffffffffffffffffffffffffffffffffffffffff16021790555083600160006101000a81548173ffffffffffffffffffffffffffffffffffffffff021916908373ffffffffffffffffffffffffffffffffffffffff16021790555082600760006101000a81548173ffffffffffffffffffffffffffffffffffffffff021916908373ffffffffffffffffffffffffffffffffffffffff16021790555081600360006101000a81548173ffffffffffffffffffffffffffffffffffffffff021916908373ffffffffffffffffffffffffffffffffffffffff16021790555080600860006101000a81548173ffffffffffffffffffffffffffffffffffffffff021916908373ffffffffffffffffffffffffffffffffffffffff1602179055506040518060e001604052806040518060400160405280600781526020017f44656661756c7400000000000000000000000000000000000000000000000000815250815260200160148152602001603c815260200160148152602001670de0b6b3a7640000600a02815260200166038d7ea4c68000600a02815260200166038d7ea4c680006032028152506009600080815260200190815260200160002060008201518160000190805190602001906200040e9291906200046c565b506020820151816001015560408201518160020155606082015181600301556080820151816004015560a0820151816005015560c082015181600601559050506001600a819055506000600b8190555050505050505050506200051b565b828054600181600116156101000203166002900490600052602060002090601f016020900481019282601f10620004af57805160ff1916838001178555620004e0565b82800160010185558215620004e0579182015b82811115620004df578251825591602001919060010190620004c2565b5b509050620004ef9190620004f3565b5090565b6200051891905b8082111562000514576000816000905550600101620004fa565b5090565b90565b61197a806200052b6000396000f3fe608060405234801561001057600080fd5b50600436106100cf5760003560e01c80638da5cb5b1161008c578063d26106e311610066578063d26106e31461029b578063d610bf0f146102a5578063d9ae185214610309578063f2fde38b146103da576100cf565b80638da5cb5b146102115780638f32d59b1461025b578063b8a9897f1461027d576100cf565b806306197c1c146100d45780630cbfef9f146100de5780631ac92375146100e85780632b3501f2146101df5780635bac1e0d146101fd57806361ff4fac14610207575b600080fd5b6100dc61041e565b005b6100e66107be565b005b6101dd600480360360e08110156100fe57600080fd5b810190808035906020019064010000000081111561011b57600080fd5b82018360208201111561012d57600080fd5b8035906020019184600183028401116401000000008311171561014f57600080fd5b91908080601f016020809104026020016040519081016040528093929190818152602001838380828437600081840152601f19601f8201169050808301925050505050505091929192908035906020019092919080359060200190929190803590602001909291908035906020019092919080359060200190929190803590602001909291905050506108f3565b005b6101e7610ac5565b6040518082815260200191505060405180910390f35b610205610acb565b005b61020f610f46565b005b610219611174565b604051808273ffffffffffffffffffffffffffffffffffffffff1673ffffffffffffffffffffffffffffffffffffffff16815260200191505060405180910390f35b61026361119d565b604051808215151515815260200191505060405180910390f35b6102856111f4565b6040518082815260200191505060405180910390f35b6102a36111fa565b005b610307600480360360408110156102bb57600080fd5b81019080803573ffffffffffffffffffffffffffffffffffffffff169060200190929190803573ffffffffffffffffffffffffffffffffffffffff16906020019092919050505061142b565b005b6103356004803603602081101561031f57600080fd5b810190808035906020019092919050505061152b565b6040518080602001888152602001878152602001868152602001858152602001848152602001838152602001828103825289818151815260200191508051906020019080838360005b8381101561039957808201518184015260208101905061037e565b50505050905090810190601f1680156103c65780820380516001836020036101000a031916815260200191505b509850505050505050505060405180910390f35b61041c600480360360208110156103f057600080fd5b81019080803573ffffffffffffffffffffffffffffffffffffffff169060200190929190505050611605565b005b600760009054906101000a900473ffffffffffffffffffffffffffffffffffffffff1673ffffffffffffffffffffffffffffffffffffffff163373ffffffffffffffffffffffffffffffffffffffff16146104e1576040517f08c379a000000000000000000000000000000000000000000000000000000000815260040180806020018281038252601f8152602001807f4f6e6c79206e6f646520616464726573732063616e2063616c6c20746869730081525060200191505060405180910390fd5b6000600460009054906101000a900473ffffffffffffffffffffffffffffffffffffffff1673ffffffffffffffffffffffffffffffffffffffff166370a08231306040518263ffffffff1660e01b8152600401808273ffffffffffffffffffffffffffffffffffffffff1673ffffffffffffffffffffffffffffffffffffffff168152602001915050602060405180830381600087803b15801561058457600080fd5b505af1158015610598573d6000803e3d6000fd5b505050506040513d60208110156105ae57600080fd5b81019080805190602001909291905050509050600560009054906101000a900473ffffffffffffffffffffffffffffffffffffffff1673ffffffffffffffffffffffffffffffffffffffff1663095ea7b3600860009054906101000a900473ffffffffffffffffffffffffffffffffffffffff16606484016040518363ffffffff1660e01b8152600401808373ffffffffffffffffffffffffffffffffffffffff1673ffffffffffffffffffffffffffffffffffffffff16815260200182815260200192505050602060405180830381600087803b15801561068f57600080fd5b505af11580156106a3573d6000803e3d6000fd5b505050506040513d60208110156106b957600080fd5b810190808051906020019092919050505050600360009054906101000a900473ffffffffffffffffffffffffffffffffffffffff1673ffffffffffffffffffffffffffffffffffffffff1663d2d0e066600560009054906101000a900473ffffffffffffffffffffffffffffffffffffffff168360006040518463ffffffff1660e01b8152600401808473ffffffffffffffffffffffffffffffffffffffff1673ffffffffffffffffffffffffffffffffffffffff1681526020018381526020018261ffff1681526020019350505050600060405180830381600087803b1580156107a357600080fd5b505af11580156107b7573d6000803e3d6000fd5b5050505050565b6107c661119d565b610838576040517f08c379a00000000000000000000000000000000000000000000000000000000081526004018080602001828103825260208152602001807f4f776e61626c653a2063616c6c6572206973206e6f7420746865206f776e657281525060200191505060405180910390fd5b600160009054906101000a900473ffffffffffffffffffffffffffffffffffffffff1673ffffffffffffffffffffffffffffffffffffffff1663f2fde38b336040518263ffffffff1660e01b8152600401808273ffffffffffffffffffffffffffffffffffffffff1673ffffffffffffffffffffffffffffffffffffffff168152602001915050600060405180830381600087803b1580156108d957600080fd5b505af11580156108ed573d6000803e3d6000fd5b50505050565b6108fb61119d565b61096d576040517f08c379a00000000000000000000000000000000000000000000000000000000081526004018080602001828103825260208152602001807f4f776e61626c653a2063616c6c6572206973206e6f7420746865206f776e657281525060200191505060405180910390fd5b6000610982868861168b90919063ffffffff16565b9050610997858261168b90919063ffffffff16565b9050606481146109f2576040517f08c379a00000000000000000000000000000000000000000000000000000000081526004018080602001828103825260238152602001806119236023913960400191505060405180910390fd5b6040518060e001604052808981526020018881526020018781526020018681526020018581526020018481526020018381525060096000600a5481526020019081526020016000206000820151816000019080519060200190610a56929190611857565b506020820151816001015560408201518160020155606082015181600301556080820151816004015560a0820151816005015560c08201518160060155905050600a54600b81905550610ab56001600a5461168b90919063ffffffff16565b600a819055505050505050505050565b600b5481565b600760009054906101000a900473ffffffffffffffffffffffffffffffffffffffff1673ffffffffffffffffffffffffffffffffffffffff163373ffffffffffffffffffffffffffffffffffffffff1614610b8e576040517f08c379a000000000000000000000000000000000000000000000000000000000815260040180806020018281038252601f8152602001807f4f6e6c79206e6f646520616464726573732063616e2063616c6c20746869730081525060200191505060405180910390fd5b6000600460009054906101000a900473ffffffffffffffffffffffffffffffffffffffff1673ffffffffffffffffffffffffffffffffffffffff166370a08231306040518263ffffffff1660e01b8152600401808273ffffffffffffffffffffffffffffffffffffffff1673ffffffffffffffffffffffffffffffffffffffff168152602001915050602060405180830381600087803b158015610c3157600080fd5b505af1158015610c45573d6000803e3d6000fd5b505050506040513d6020811015610c5b57600080fd5b810190808051906020019092919050505090506000600260009054906101000a900473ffffffffffffffffffffffffffffffffffffffff1673ffffffffffffffffffffffffffffffffffffffff166395b68fe7836040518263ffffffff1660e01b81526004018082815260200191505060206040518083038186803b158015610ce357600080fd5b505afa158015610cf7573d6000803e3d6000fd5b505050506040513d6020811015610d0d57600080fd5b81019080805190602001909291905050509050600460009054906101000a900473ffffffffffffffffffffffffffffffffffffffff1673ffffffffffffffffffffffffffffffffffffffff1663095ea7b3600260009054906101000a900473ffffffffffffffffffffffffffffffffffffffff16846040518363ffffffff1660e01b8152600401808373ffffffffffffffffffffffffffffffffffffffff1673ffffffffffffffffffffffffffffffffffffffff16815260200182815260200192505050602060405180830381600087803b158015610deb57600080fd5b505af1158015610dff573d6000803e3d6000fd5b505050506040513d6020811015610e1557600080fd5b810190808051906020019092919050505050600260009054906101000a900473ffffffffffffffffffffffffffffffffffffffff1673ffffffffffffffffffffffffffffffffffffffff1663d4e4841d8284610e104201600760009054906101000a900473ffffffffffffffffffffffffffffffffffffffff166040518563ffffffff1660e01b8152600401808581526020018481526020018381526020018273ffffffffffffffffffffffffffffffffffffffff1673ffffffffffffffffffffffffffffffffffffffff168152602001945050505050602060405180830381600087803b158015610f0657600080fd5b505af1158015610f1a573d6000803e3d6000fd5b505050506040513d6020811015610f3057600080fd5b8101908080519060200190929190505050505050565b600760009054906101000a900473ffffffffffffffffffffffffffffffffffffffff1673ffffffffffffffffffffffffffffffffffffffff163373ffffffffffffffffffffffffffffffffffffffff1614611009576040517f08c379a000000000000000000000000000000000000000000000000000000000815260040180806020018281038252601f8152602001807f4f6e6c79206e6f646520616464726573732063616e2063616c6c20746869730081525060200191505060405180910390fd5b6000600160009054906101000a900473ffffffffffffffffffffffffffffffffffffffff1673ffffffffffffffffffffffffffffffffffffffff1663501883016040518163ffffffff1660e01b815260040160206040518083038186803b15801561107357600080fd5b505afa158015611087573d6000803e3d6000fd5b505050506040513d602081101561109d57600080fd5b81019080805190602001909291905050509050600160009054906101000a900473ffffffffffffffffffffffffffffffffffffffff1673ffffffffffffffffffffffffffffffffffffffff1663f3fef3a330836040518363ffffffff1660e01b8152600401808373ffffffffffffffffffffffffffffffffffffffff1673ffffffffffffffffffffffffffffffffffffffff16815260200182815260200192505050600060405180830381600087803b15801561115957600080fd5b505af115801561116d573d6000803e3d6000fd5b5050505050565b60008060009054906101000a900473ffffffffffffffffffffffffffffffffffffffff16905090565b60008060009054906101000a900473ffffffffffffffffffffffffffffffffffffffff1673ffffffffffffffffffffffffffffffffffffffff163373ffffffffffffffffffffffffffffffffffffffff1614905090565b600a5481565b600760009054906101000a900473ffffffffffffffffffffffffffffffffffffffff1673ffffffffffffffffffffffffffffffffffffffff163373ffffffffffffffffffffffffffffffffffffffff16146112bd576040517f08c379a000000000000000000000000000000000000000000000000000000000815260040180806020018281038252601f8152602001807f4f6e6c79206e6f646520616464726573732063616e2063616c6c20746869730081525060200191505060405180910390fd5b6000600660009054906101000a900473ffffffffffffffffffffffffffffffffffffffff1673ffffffffffffffffffffffffffffffffffffffff166370a08231306040518263ffffffff1660e01b8152600401808273ffffffffffffffffffffffffffffffffffffffff1673ffffffffffffffffffffffffffffffffffffffff16815260200191505060206040518083038186803b15801561135e57600080fd5b505afa158015611372573d6000803e3d6000fd5b505050506040513d602081101561138857600080fd5b81019080805190602001909291905050509050600660009054906101000a900473ffffffffffffffffffffffffffffffffffffffff1673ffffffffffffffffffffffffffffffffffffffff1663db006a75826040518263ffffffff1660e01b815260040180828152602001915050600060405180830381600087803b15801561141057600080fd5b505af1158015611424573d6000803e3d6000fd5b5050505050565b61143361119d565b6114a5576040517f08c379a00000000000000000000000000000000000000000000000000000000081526004018080602001828103825260208152602001807f4f776e61626c653a2063616c6c6572206973206e6f7420746865206f776e657281525060200191505060405180910390fd5b81600160006101000a81548173ffffffffffffffffffffffffffffffffffffffff021916908373ffffffffffffffffffffffffffffffffffffffff16021790555080600760006101000a81548173ffffffffffffffffffffffffffffffffffffffff021916908373ffffffffffffffffffffffffffffffffffffffff1602179055505050565b6009602052806000526040600020600091509050806000018054600181600116156101000203166002900480601f0160208091040260200160405190810160405280929190818152602001828054600181600116156101000203166002900480156115d75780601f106115ac576101008083540402835291602001916115d7565b820191906000526020600020905b8154815290600101906020018083116115ba57829003601f168201915b5050505050908060010154908060020154908060030154908060040154908060050154908060060154905087565b61160d61119d565b61167f576040517f08c379a00000000000000000000000000000000000000000000000000000000081526004018080602001828103825260208152602001807f4f776e61626c653a2063616c6c6572206973206e6f7420746865206f776e657281525060200191505060405180910390fd5b61168881611713565b50565b600080828401905083811015611709576040517f08c379a000000000000000000000000000000000000000000000000000000000815260040180806020018281038252601b8152602001807f536166654d6174683a206164646974696f6e206f766572666c6f77000000000081525060200191505060405180910390fd5b8091505092915050565b600073ffffffffffffffffffffffffffffffffffffffff168173ffffffffffffffffffffffffffffffffffffffff161415611799576040517f08c379a00000000000000000000000000000000000000000000000000000000081526004018080602001828103825260268152602001806118fd6026913960400191505060405180910390fd5b8073ffffffffffffffffffffffffffffffffffffffff166000809054906101000a900473ffffffffffffffffffffffffffffffffffffffff1673ffffffffffffffffffffffffffffffffffffffff167f8be0079c531659141344cd1fd0a4f28419497f9722a3daafe3b4186f6b6457e060405160405180910390a3806000806101000a81548173ffffffffffffffffffffffffffffffffffffffff021916908373ffffffffffffffffffffffffffffffffffffffff16021790555050565b828054600181600116156101000203166002900490600052602060002090601f016020900481019282601f1061189857805160ff19168380011785556118c6565b828001600101855582156118c6579182015b828111156118c55782518255916020019190600101906118aa565b5b5090506118d391906118d7565b5090565b6118f991905b808211156118f55760008160009055506001016118dd565b5090565b9056fe4f776e61626c653a206e6577206f776e657220697320746865207a65726f206164647265737350657263656e7420706172616d657465727320646f206e6f7420657175616c20313030a265627a7a72315820620adfeb426c54cc0f1a86f6a47c05cd1af32b1c1b889b9d78e1aaf9c63408ab64736f6c634300050c0032",
  "source": "pragma solidity ^0.5.0;\n\nimport \"chainlink/v0.5/contracts/Oracle.sol\";\nimport \"../contracts/UniswapExchangeInterface.sol\";\nimport \"../contracts/AaveLendingInterface.sol\";\nimport \"../contracts/ATokenInterface.sol\";\n\n/// @title Flannel Main Contract\n/// @author hill399 (github.com/hill399)\n/// @notice Extension of Chainlink oracle contract to allow for additional features.\ncontract Flannel is Ownable {\n\n    using SafeMath for uint256;\n\n    Oracle oracle;\n    UniswapExchangeInterface internal linkExchangeInterface;\n    LendingPool internal lendingPool;\n\n    LinkTokenInterface internal stdLinkTokenInterface;\n    LinkTokenInterface internal aaveLinkTokenInterface;\n    AToken internal aLinkTokenInterface;\n\n    uint256 constant FINNEY = 1 * 10 ** 15;\n    uint256 constant ETHER = 1 * 10 ** 18;\n\n    /* Address of user node */\n    address linkNode;\n\n    /* Lending pool approval address */\n    address lendingPoolApproval;\n\n    /* Struct to customise and store allowances */\n    struct thresholds {\n        string paramsName;\n        uint256 pcUntouched;\n        uint256 pcAave;\n        uint256 pcTopUp;\n        uint256 linkThreshold;\n        uint256 ethThreshold;\n        uint256 ethTopUp;\n    }\n\n    /* Mapping to hold customised allowances */\n    mapping(uint => thresholds) public userStoredParams;\n    uint256 public paramCounter;\n    uint256 public paramsInUse;\n\n    /// @notice Constructor to set default contract values.\n    /// @param _uniswapExchange address of Uniswap exchange contract.\n    /// @param _stdLinkToken address of Chainlink (LINK) token.\n    /// @param _aaveLinkToken address of Aave Link token.\n    /// @param _aLinkToken address for the aLink Interest Bearing Token.\n    /// @param _oracle address of user-deployed oracle contract.\n    constructor\n    (\n    address _uniswapExchange,\n    address _stdLinkToken,\n    address _aaveLinkToken,\n    address _aLinkToken,\n    address _oracle,\n    address _linkNode,\n    address _lendingPool,\n    address _lendingPoolApproval\n    )\n    public\n    {\n        linkExchangeInterface = UniswapExchangeInterface(_uniswapExchange);\n        stdLinkTokenInterface = LinkTokenInterface(_stdLinkToken);\n        aaveLinkTokenInterface = LinkTokenInterface(_aaveLinkToken);\n        aLinkTokenInterface = AToken(_aLinkToken);\n        oracle = Oracle(_oracle);\n        linkNode = _linkNode;\n\n        lendingPool = LendingPool(_lendingPool);\n        lendingPoolApproval = _lendingPoolApproval;\n\n        /* Create default param account */\n        /* Fix those token mod values */\n        userStoredParams[0] = thresholds(\"Default\", 20, 60, 20, 10 * ETHER, 10 * FINNEY, 50 * FINNEY);\n        paramCounter = 1;\n        paramsInUse = 0;\n    }\n\n    /// @notice Restricts certain calls to node address only.\n    modifier onlyNodeAddress()\n    {\n        require(msg.sender == linkNode, \"Only node address can call this\");\n        _;\n    }\n\n    /// @notice Create new parameter settings to distribute withdrawn LINK.\n    /// @param _paramsName Reference name of params.\n    /// @param _pcUntouched % to leave untouched in contract.\n    /// @param _pcAave % to deposited to Aave.\n    /// @param _pcTopUp % to allocate to node top-up.\n    /// @param _linkThreshold LINK value in wei to determine when to withdraw from Oracle contract.\n    /// @param _ethThreshold ETH value in wei to determine when to top-up LINK node.\n    /// @param _ethTopUp ETH value in wei to top-up LINK node when triggered.\n    /// @dev Only owner can call this.\n    /// @dev Function selector :\n    function createNewAllowance(\n    string memory _paramsName,\n    uint256 _pcUntouched,\n    uint256 _pcAave,\n    uint256 _pcTopUp,\n    uint256 _linkThreshold,\n    uint256 _ethThreshold,\n    uint256 _ethTopUp)\n    public\n    onlyOwner\n    {\n        uint256 pcTemp = _pcUntouched.add(_pcAave);\n        pcTemp = pcTemp.add(_pcTopUp);\n        require(pcTemp == 100, \"Percent parameters do not equal 100\");\n        userStoredParams[paramCounter] = thresholds(_paramsName, _pcUntouched, _pcAave, _pcTopUp, _linkThreshold, _ethThreshold, _ethTopUp);\n        paramsInUse = paramCounter;\n        paramCounter = paramCounter.add(1);\n    }\n\n\n    /// @notice Withdraw earned LINK balance from deployed oracle contract.\n    /// @dev Only node address can call this.\n    /// @dev Function selector : 0x61ff4fac\n    function withdrawFromOracle()\n    public\n    onlyNodeAddress()\n    {\n        uint256 availableFunds = oracle.withdrawable();\n        oracle.withdraw(address(this), availableFunds);\n    }\n\n    /// @notice Deposit withdrawn LINK into Aave Protocol\n    /// @dev Only node address can call this.\n    /// @dev Function selector : 0x06197c1c\n    function depositToAave()\n    public\n    onlyNodeAddress()\n    {\n        uint256 contractLinkBalance = stdLinkTokenInterface.balanceOf(address(this));\n        aaveLinkTokenInterface.approve(lendingPoolApproval, contractLinkBalance + 100);\n\n        lendingPool.deposit(address(aaveLinkTokenInterface), contractLinkBalance, 0);\n    }\n\n    /// @notice Withdraw deposited LINK into Aave Protocol\n    /// @dev Only node address can call this.\n    /// @dev Function selector : 0xd26106e3\n    function withdrawFromAave()\n    public\n    onlyNodeAddress()\n    {\n        uint256 contractaLinkBalance = aLinkTokenInterface.balanceOf(address(this));\n        aLinkTokenInterface.redeem(contractaLinkBalance);\n    }\n\n    /// @notice Convert LINK balance to ETH via Uniswap and send to node.\n    /// @dev Only node address can call this.\n    /// @dev Function selector : 0x5bac1e0d\n    function linkToEthTopUp()\n    public\n    onlyNodeAddress()\n    {\n        // get link balance from erc20 contract\n        uint256 contractLinkBalance = stdLinkTokenInterface.balanceOf(address(this));\n\n        uint256 exchangeRate = linkExchangeInterface.getTokenToEthInputPrice(contractLinkBalance);\n        // Approve uniswap for transfer\n        stdLinkTokenInterface.approve(address(linkExchangeInterface), contractLinkBalance);\n        // Send to node address\n        linkExchangeInterface.tokenToEthTransferOutput(exchangeRate, contractLinkBalance, (now + 1 hours), linkNode);\n    }\n\n    /// @notice Change address of oracle contract (in case of re-deployment).\n    /// @param _liveOracle new address of oracle contract.\n    function configureOracleSetup(address _liveOracle, address _linkNode)\n    public\n    onlyOwner\n    {\n        oracle = Oracle(_liveOracle);\n        linkNode = _linkNode;\n    }\n\n    /// @notice Renounce ownership of oracle contract back to owner of this contract.\n    /// @dev Only owner of contract may call this.\n    function revertOracleOwnership()\n    public\n    onlyOwner\n    {\n        oracle.transferOwnership(msg.sender);\n    }\n}",
  "sourcePath": "C:/Users/CHILL/truffle_u/Flannel/truffle/contracts/Flannel.sol",
  "compiler": {
    "name": "solc",
    "version": "0.5.12+commit.7709ece9.Emscripten.clang"
  },
  "schemaVersion": "3.0.20",
  "updatedAt": "2020-01-25T13:35:32.521Z",
  "networkType": "ethereum",
  "devdoc": {
    "author": "hill399 (github.com/hill399)",
    "methods": {
      "configureOracleSetup(address,address)": {
        "params": {
          "_liveOracle": "new address of oracle contract."
        }
      },
      "constructor": {
        "params": {
          "_aLinkToken": "address for the aLink Interest Bearing Token.",
          "_aaveLinkToken": "address of Aave Link token.",
          "_oracle": "address of user-deployed oracle contract.",
          "_stdLinkToken": "address of Chainlink (LINK) token.",
          "_uniswapExchange": "address of Uniswap exchange contract."
        }
      },
      "createNewAllowance(string,uint256,uint256,uint256,uint256,uint256,uint256)": {
        "details": "Only owner can call this.Function selector :",
        "params": {
          "_ethThreshold": "ETH value in wei to determine when to top-up LINK node.",
          "_ethTopUp": "ETH value in wei to top-up LINK node when triggered.",
          "_linkThreshold": "LINK value in wei to determine when to withdraw from Oracle contract.",
          "_paramsName": "Reference name of params.",
          "_pcAave": "% to deposited to Aave.",
          "_pcTopUp": "% to allocate to node top-up.",
          "_pcUntouched": "% to leave untouched in contract."
        }
      },
      "depositToAave()": {
        "details": "Only node address can call this.Function selector : 0x06197c1c"
      },
      "isOwner()": {
        "details": "Returns true if the caller is the current owner."
      },
      "linkToEthTopUp()": {
        "details": "Only node address can call this.Function selector : 0x5bac1e0d"
      },
      "owner()": {
        "details": "Returns the address of the current owner."
      },
      "revertOracleOwnership()": {
        "details": "Only owner of contract may call this."
      },
      "transferOwnership(address)": {
        "details": "Transfers ownership of the contract to a new account (`newOwner`). Can only be called by the current owner."
      },
      "withdrawFromAave()": {
        "details": "Only node address can call this.Function selector : 0xd26106e3"
      },
      "withdrawFromOracle()": {
        "details": "Only node address can call this.Function selector : 0x61ff4fac"
      }
    },
    "title": "Flannel Main Contract"
  },
  "userdoc": {
    "methods": {
      "configureOracleSetup(address,address)": {
        "notice": "Change address of oracle contract (in case of re-deployment)."
      },
      "constructor": "Constructor to set default contract values.",
      "createNewAllowance(string,uint256,uint256,uint256,uint256,uint256,uint256)": {
        "notice": "Create new parameter settings to distribute withdrawn LINK."
      },
      "depositToAave()": {
        "notice": "Deposit withdrawn LINK into Aave Protocol"
      },
      "linkToEthTopUp()": {
        "notice": "Convert LINK balance to ETH via Uniswap and send to node."
      },
      "revertOracleOwnership()": {
        "notice": "Renounce ownership of oracle contract back to owner of this contract."
      },
      "withdrawFromAave()": {
        "notice": "Withdraw deposited LINK into Aave Protocol"
      },
      "withdrawFromOracle()": {
        "notice": "Withdraw earned LINK balance from deployed oracle contract."
      }
    },
    "notice": "Extension of Chainlink oracle contract to allow for additional features."
  }
}