{
  "contractName": "Flannel",
  "abi": [
    {
      "inputs": [
        {
          "internalType": "address",
          "name": "_uniswapExchange",
          "type": "address"
        },
        {
          "internalType": "address",
          "name": "_stdLinkToken",
          "type": "address"
        },
        {
          "internalType": "address",
          "name": "_aaveLinkToken",
          "type": "address"
        },
        {
          "internalType": "address",
          "name": "_aLinkToken",
          "type": "address"
        },
        {
          "internalType": "address",
          "name": "_oracle",
          "type": "address"
        },
        {
          "internalType": "address",
          "name": "_linkNode",
          "type": "address"
        },
        {
          "internalType": "address",
          "name": "_lendingPool",
          "type": "address"
        },
        {
          "internalType": "address",
          "name": "_lendingPoolApproval",
          "type": "address"
        },
        {
          "internalType": "uint256",
          "name": "_userThreshold",
          "type": "uint256"
        }
      ],
      "payable": false,
      "stateMutability": "nonpayable",
      "type": "constructor"
    },
    {
      "anonymous": false,
      "inputs": [
        {
          "indexed": true,
          "internalType": "address",
          "name": "previousOwner",
          "type": "address"
        },
        {
          "indexed": true,
          "internalType": "address",
          "name": "newOwner",
          "type": "address"
        }
      ],
      "name": "OwnershipTransferred",
      "type": "event"
    },
    {
      "constant": true,
      "inputs": [],
      "name": "isOwner",
      "outputs": [
        {
          "internalType": "bool",
          "name": "",
          "type": "bool"
        }
      ],
      "payable": false,
      "stateMutability": "view",
      "type": "function"
    },
    {
      "constant": true,
      "inputs": [],
      "name": "owner",
      "outputs": [
        {
          "internalType": "address",
          "name": "",
          "type": "address"
        }
      ],
      "payable": false,
      "stateMutability": "view",
      "type": "function"
    },
    {
      "constant": false,
      "inputs": [
        {
          "internalType": "address",
          "name": "newOwner",
          "type": "address"
        }
      ],
      "name": "transferOwnership",
      "outputs": [],
      "payable": false,
      "stateMutability": "nonpayable",
      "type": "function"
    },
    {
      "constant": false,
      "inputs": [],
      "name": "withdrawFromOracle",
      "outputs": [],
      "payable": false,
      "stateMutability": "nonpayable",
      "type": "function"
    },
    {
      "constant": false,
      "inputs": [],
      "name": "depositToAave",
      "outputs": [],
      "payable": false,
      "stateMutability": "nonpayable",
      "type": "function"
    },
    {
      "constant": false,
      "inputs": [],
      "name": "withdrawFromAave",
      "outputs": [],
      "payable": false,
      "stateMutability": "nonpayable",
      "type": "function"
    },
    {
      "constant": false,
      "inputs": [],
      "name": "linkToEthTopUp",
      "outputs": [],
      "payable": false,
      "stateMutability": "nonpayable",
      "type": "function"
    },
    {
      "constant": false,
      "inputs": [
        {
          "internalType": "address",
          "name": "_liveOracle",
          "type": "address"
        },
        {
          "internalType": "address",
          "name": "_linkNode",
          "type": "address"
        }
      ],
      "name": "configureOracleSetup",
      "outputs": [],
      "payable": false,
      "stateMutability": "nonpayable",
      "type": "function"
    },
    {
      "constant": false,
      "inputs": [
        {
          "internalType": "uint256",
          "name": "_newThreshold",
          "type": "uint256"
        }
      ],
      "name": "setUserThreshold",
      "outputs": [],
      "payable": false,
      "stateMutability": "nonpayable",
      "type": "function"
    },
    {
      "constant": false,
      "inputs": [],
      "name": "revertOracleOwnership",
      "outputs": [],
      "payable": false,
      "stateMutability": "nonpayable",
      "type": "function"
    }
  ],
  "bytecode": "0x608060405234801561001057600080fd5b50604051611767380380611767833981810160405261012081101561003457600080fd5b81019080805190602001909291908051906020019092919080519060200190929190805190602001909291908051906020019092919080519060200190929190805190602001909291908051906020019092919080519060200190929190505050336000806101000a81548173ffffffffffffffffffffffffffffffffffffffff021916908373ffffffffffffffffffffffffffffffffffffffff1602179055506000809054906101000a900473ffffffffffffffffffffffffffffffffffffffff1673ffffffffffffffffffffffffffffffffffffffff16600073ffffffffffffffffffffffffffffffffffffffff167f8be0079c531659141344cd1fd0a4f28419497f9722a3daafe3b4186f6b6457e060405160405180910390a388600260006101000a81548173ffffffffffffffffffffffffffffffffffffffff021916908373ffffffffffffffffffffffffffffffffffffffff16021790555087600460006101000a81548173ffffffffffffffffffffffffffffffffffffffff021916908373ffffffffffffffffffffffffffffffffffffffff16021790555086600560006101000a81548173ffffffffffffffffffffffffffffffffffffffff021916908373ffffffffffffffffffffffffffffffffffffffff16021790555085600660006101000a81548173ffffffffffffffffffffffffffffffffffffffff021916908373ffffffffffffffffffffffffffffffffffffffff16021790555084600160006101000a81548173ffffffffffffffffffffffffffffffffffffffff021916908373ffffffffffffffffffffffffffffffffffffffff1602179055508060098190555083600760006101000a81548173ffffffffffffffffffffffffffffffffffffffff021916908373ffffffffffffffffffffffffffffffffffffffff16021790555082600360006101000a81548173ffffffffffffffffffffffffffffffffffffffff021916908373ffffffffffffffffffffffffffffffffffffffff16021790555081600860006101000a81548173ffffffffffffffffffffffffffffffffffffffff021916908373ffffffffffffffffffffffffffffffffffffffff1602179055505050505050505050506113ef806103786000396000f3fe608060405234801561001057600080fd5b506004361061009e5760003560e01c80638da5cb5b116100665780638da5cb5b146100f95780638f32d59b14610143578063d26106e314610165578063d610bf0f1461016f578063f2fde38b146101d35761009e565b806306197c1c146100a35780630cbfef9f146100ad57806359beba08146100b75780635bac1e0d146100e557806361ff4fac146100ef575b600080fd5b6100ab610217565b005b6100b56105b7565b005b6100e3600480360360208110156100cd57600080fd5b81019080803590602001909291905050506106ec565b005b6100ed610770565b005b6100f7610beb565b005b610101610e19565b604051808273ffffffffffffffffffffffffffffffffffffffff1673ffffffffffffffffffffffffffffffffffffffff16815260200191505060405180910390f35b61014b610e42565b604051808215151515815260200191505060405180910390f35b61016d610e99565b005b6101d16004803603604081101561018557600080fd5b81019080803573ffffffffffffffffffffffffffffffffffffffff169060200190929190803573ffffffffffffffffffffffffffffffffffffffff1690602001909291905050506110ca565b005b610215600480360360208110156101e957600080fd5b81019080803573ffffffffffffffffffffffffffffffffffffffff1690602001909291905050506111ca565b005b600760009054906101000a900473ffffffffffffffffffffffffffffffffffffffff1673ffffffffffffffffffffffffffffffffffffffff163373ffffffffffffffffffffffffffffffffffffffff16146102da576040517f08c379a000000000000000000000000000000000000000000000000000000000815260040180806020018281038252601f8152602001807f4f6e6c79206e6f646520616464726573732063616e2063616c6c20746869730081525060200191505060405180910390fd5b6000600460009054906101000a900473ffffffffffffffffffffffffffffffffffffffff1673ffffffffffffffffffffffffffffffffffffffff166370a08231306040518263ffffffff1660e01b8152600401808273ffffffffffffffffffffffffffffffffffffffff1673ffffffffffffffffffffffffffffffffffffffff168152602001915050602060405180830381600087803b15801561037d57600080fd5b505af1158015610391573d6000803e3d6000fd5b505050506040513d60208110156103a757600080fd5b81019080805190602001909291905050509050600560009054906101000a900473ffffffffffffffffffffffffffffffffffffffff1673ffffffffffffffffffffffffffffffffffffffff1663095ea7b3600860009054906101000a900473ffffffffffffffffffffffffffffffffffffffff16606484016040518363ffffffff1660e01b8152600401808373ffffffffffffffffffffffffffffffffffffffff1673ffffffffffffffffffffffffffffffffffffffff16815260200182815260200192505050602060405180830381600087803b15801561048857600080fd5b505af115801561049c573d6000803e3d6000fd5b505050506040513d60208110156104b257600080fd5b810190808051906020019092919050505050600360009054906101000a900473ffffffffffffffffffffffffffffffffffffffff1673ffffffffffffffffffffffffffffffffffffffff1663d2d0e066600560009054906101000a900473ffffffffffffffffffffffffffffffffffffffff168360006040518463ffffffff1660e01b8152600401808473ffffffffffffffffffffffffffffffffffffffff1673ffffffffffffffffffffffffffffffffffffffff1681526020018381526020018261ffff1681526020019350505050600060405180830381600087803b15801561059c57600080fd5b505af11580156105b0573d6000803e3d6000fd5b5050505050565b6105bf610e42565b610631576040517f08c379a00000000000000000000000000000000000000000000000000000000081526004018080602001828103825260208152602001807f4f776e61626c653a2063616c6c6572206973206e6f7420746865206f776e657281525060200191505060405180910390fd5b600160009054906101000a900473ffffffffffffffffffffffffffffffffffffffff1673ffffffffffffffffffffffffffffffffffffffff1663f2fde38b336040518263ffffffff1660e01b8152600401808273ffffffffffffffffffffffffffffffffffffffff1673ffffffffffffffffffffffffffffffffffffffff168152602001915050600060405180830381600087803b1580156106d257600080fd5b505af11580156106e6573d6000803e3d6000fd5b50505050565b6106f4610e42565b610766576040517f08c379a00000000000000000000000000000000000000000000000000000000081526004018080602001828103825260208152602001807f4f776e61626c653a2063616c6c6572206973206e6f7420746865206f776e657281525060200191505060405180910390fd5b8060098190555050565b600760009054906101000a900473ffffffffffffffffffffffffffffffffffffffff1673ffffffffffffffffffffffffffffffffffffffff163373ffffffffffffffffffffffffffffffffffffffff1614610833576040517f08c379a000000000000000000000000000000000000000000000000000000000815260040180806020018281038252601f8152602001807f4f6e6c79206e6f646520616464726573732063616e2063616c6c20746869730081525060200191505060405180910390fd5b6000600460009054906101000a900473ffffffffffffffffffffffffffffffffffffffff1673ffffffffffffffffffffffffffffffffffffffff166370a08231306040518263ffffffff1660e01b8152600401808273ffffffffffffffffffffffffffffffffffffffff1673ffffffffffffffffffffffffffffffffffffffff168152602001915050602060405180830381600087803b1580156108d657600080fd5b505af11580156108ea573d6000803e3d6000fd5b505050506040513d602081101561090057600080fd5b810190808051906020019092919050505090506000600260009054906101000a900473ffffffffffffffffffffffffffffffffffffffff1673ffffffffffffffffffffffffffffffffffffffff166395b68fe7836040518263ffffffff1660e01b81526004018082815260200191505060206040518083038186803b15801561098857600080fd5b505afa15801561099c573d6000803e3d6000fd5b505050506040513d60208110156109b257600080fd5b81019080805190602001909291905050509050600460009054906101000a900473ffffffffffffffffffffffffffffffffffffffff1673ffffffffffffffffffffffffffffffffffffffff1663095ea7b3600260009054906101000a900473ffffffffffffffffffffffffffffffffffffffff16846040518363ffffffff1660e01b8152600401808373ffffffffffffffffffffffffffffffffffffffff1673ffffffffffffffffffffffffffffffffffffffff16815260200182815260200192505050602060405180830381600087803b158015610a9057600080fd5b505af1158015610aa4573d6000803e3d6000fd5b505050506040513d6020811015610aba57600080fd5b810190808051906020019092919050505050600260009054906101000a900473ffffffffffffffffffffffffffffffffffffffff1673ffffffffffffffffffffffffffffffffffffffff1663d4e4841d8284610e104201600760009054906101000a900473ffffffffffffffffffffffffffffffffffffffff166040518563ffffffff1660e01b8152600401808581526020018481526020018381526020018273ffffffffffffffffffffffffffffffffffffffff1673ffffffffffffffffffffffffffffffffffffffff168152602001945050505050602060405180830381600087803b158015610bab57600080fd5b505af1158015610bbf573d6000803e3d6000fd5b505050506040513d6020811015610bd557600080fd5b8101908080519060200190929190505050505050565b600760009054906101000a900473ffffffffffffffffffffffffffffffffffffffff1673ffffffffffffffffffffffffffffffffffffffff163373ffffffffffffffffffffffffffffffffffffffff1614610cae576040517f08c379a000000000000000000000000000000000000000000000000000000000815260040180806020018281038252601f8152602001807f4f6e6c79206e6f646520616464726573732063616e2063616c6c20746869730081525060200191505060405180910390fd5b6000600160009054906101000a900473ffffffffffffffffffffffffffffffffffffffff1673ffffffffffffffffffffffffffffffffffffffff1663501883016040518163ffffffff1660e01b815260040160206040518083038186803b158015610d1857600080fd5b505afa158015610d2c573d6000803e3d6000fd5b505050506040513d6020811015610d4257600080fd5b81019080805190602001909291905050509050600160009054906101000a900473ffffffffffffffffffffffffffffffffffffffff1673ffffffffffffffffffffffffffffffffffffffff1663f3fef3a330836040518363ffffffff1660e01b8152600401808373ffffffffffffffffffffffffffffffffffffffff1673ffffffffffffffffffffffffffffffffffffffff16815260200182815260200192505050600060405180830381600087803b158015610dfe57600080fd5b505af1158015610e12573d6000803e3d6000fd5b5050505050565b60008060009054906101000a900473ffffffffffffffffffffffffffffffffffffffff16905090565b60008060009054906101000a900473ffffffffffffffffffffffffffffffffffffffff1673ffffffffffffffffffffffffffffffffffffffff163373ffffffffffffffffffffffffffffffffffffffff1614905090565b600760009054906101000a900473ffffffffffffffffffffffffffffffffffffffff1673ffffffffffffffffffffffffffffffffffffffff163373ffffffffffffffffffffffffffffffffffffffff1614610f5c576040517f08c379a000000000000000000000000000000000000000000000000000000000815260040180806020018281038252601f8152602001807f4f6e6c79206e6f646520616464726573732063616e2063616c6c20746869730081525060200191505060405180910390fd5b6000600660009054906101000a900473ffffffffffffffffffffffffffffffffffffffff1673ffffffffffffffffffffffffffffffffffffffff166370a08231306040518263ffffffff1660e01b8152600401808273ffffffffffffffffffffffffffffffffffffffff1673ffffffffffffffffffffffffffffffffffffffff16815260200191505060206040518083038186803b158015610ffd57600080fd5b505afa158015611011573d6000803e3d6000fd5b505050506040513d602081101561102757600080fd5b81019080805190602001909291905050509050600660009054906101000a900473ffffffffffffffffffffffffffffffffffffffff1673ffffffffffffffffffffffffffffffffffffffff1663db006a75826040518263ffffffff1660e01b815260040180828152602001915050600060405180830381600087803b1580156110af57600080fd5b505af11580156110c3573d6000803e3d6000fd5b5050505050565b6110d2610e42565b611144576040517f08c379a00000000000000000000000000000000000000000000000000000000081526004018080602001828103825260208152602001807f4f776e61626c653a2063616c6c6572206973206e6f7420746865206f776e657281525060200191505060405180910390fd5b81600160006101000a81548173ffffffffffffffffffffffffffffffffffffffff021916908373ffffffffffffffffffffffffffffffffffffffff16021790555080600760006101000a81548173ffffffffffffffffffffffffffffffffffffffff021916908373ffffffffffffffffffffffffffffffffffffffff1602179055505050565b6111d2610e42565b611244576040517f08c379a00000000000000000000000000000000000000000000000000000000081526004018080602001828103825260208152602001807f4f776e61626c653a2063616c6c6572206973206e6f7420746865206f776e657281525060200191505060405180910390fd5b61124d81611250565b50565b600073ffffffffffffffffffffffffffffffffffffffff168173ffffffffffffffffffffffffffffffffffffffff1614156112d6576040517f08c379a00000000000000000000000000000000000000000000000000000000081526004018080602001828103825260268152602001806113956026913960400191505060405180910390fd5b8073ffffffffffffffffffffffffffffffffffffffff166000809054906101000a900473ffffffffffffffffffffffffffffffffffffffff1673ffffffffffffffffffffffffffffffffffffffff167f8be0079c531659141344cd1fd0a4f28419497f9722a3daafe3b4186f6b6457e060405160405180910390a3806000806101000a81548173ffffffffffffffffffffffffffffffffffffffff021916908373ffffffffffffffffffffffffffffffffffffffff1602179055505056fe4f776e61626c653a206e6577206f776e657220697320746865207a65726f2061646472657373a265627a7a723158202f898cd7af30f6770728a41e8c568952c33a5a6d636c56ab560bfefd1fc75b2664736f6c634300050c0032",
  "source": "pragma solidity ^0.5.0;\n\nimport \"chainlink/v0.5/contracts/Oracle.sol\";\nimport \"../contracts/UniswapExchangeInterface.sol\";\nimport \"../contracts/AaveLendingInterface.sol\";\nimport \"../contracts/ATokenInterface.sol\";\n\n/// @title Flannel Main Contract\n/// @author hill399 (github.com/hill399)\n/// @notice Extension of Chainlink oracle contract to allow for additional features.\ncontract Flannel is Ownable {\n\n    Oracle oracle;\n    UniswapExchangeInterface internal linkExchangeInterface;\n    LendingPool internal lendingPool;\n\n    LinkTokenInterface internal stdLinkTokenInterface;\n    LinkTokenInterface internal aaveLinkTokenInterface;\n    AToken internal aLinkTokenInterface;\n\n    /* Address of user node */\n    address linkNode;\n\n    /* Lending pool approval address */\n    address lendingPoolApproval;\n\n    /* Link threshold to trigger action */\n    uint256 userThreshold;\n\n    /* Counter to serialise calls */\n    uint256 runCounter;\n\n    /// @notice Constructor to set default contract values.\n    /// @param _uniswapExchange address of Uniswap exchange contract.\n    /// @param _stdLinkToken address of Chainlink (LINK) token.\n    /// @param _aaveLinkToken address of Aave Link token.\n    /// @param _aLinkToken address for the aLink Interest Bearing Token.\n    /// @param _oracle address of user-deployed oracle contract.\n    /// @param _userThreshold limit in LINK (wei) in which features will trigger\n    constructor\n    (\n    address _uniswapExchange,\n    address _stdLinkToken,\n    address _aaveLinkToken,\n    address _aLinkToken,\n    address _oracle,\n    address _linkNode,\n    address _lendingPool,\n    address _lendingPoolApproval,\n    uint256 _userThreshold\n    )\n    public\n    {\n        linkExchangeInterface = UniswapExchangeInterface(_uniswapExchange);\n        stdLinkTokenInterface = LinkTokenInterface(_stdLinkToken);\n        aaveLinkTokenInterface = LinkTokenInterface(_aaveLinkToken);\n        aLinkTokenInterface = AToken(_aLinkToken);\n        oracle = Oracle(_oracle);\n        userThreshold = _userThreshold;\n        linkNode = _linkNode;\n\n        lendingPool = LendingPool(_lendingPool);\n        lendingPoolApproval = _lendingPoolApproval;\n    }\n\n    /// @notice Restricts certain calls to node address only.\n    modifier onlyNodeAddress()\n    {\n        require(msg.sender == linkNode, \"Only node address can call this\");\n        _;\n    }\n\n    /// @notice Withdraw earned LINK balance from deployed oracle contract.\n    /// @dev Only node address can call this.\n    /// @dev Function selector : 0x61ff4fac\n    function withdrawFromOracle()\n    public\n    onlyNodeAddress()\n    {\n        uint256 availableFunds = oracle.withdrawable();\n        oracle.withdraw(address(this), availableFunds);\n    }\n\n    /// @notice Deposit withdrawn LINK into Aave Protocol\n    /// @dev Only node address can call this.\n    /// @dev Function selector : 0x06197c1c\n    function depositToAave()\n    public\n    onlyNodeAddress()\n    {\n        uint256 contractLinkBalance = stdLinkTokenInterface.balanceOf(address(this));\n        aaveLinkTokenInterface.approve(lendingPoolApproval, contractLinkBalance + 100);\n\n        lendingPool.deposit(address(aaveLinkTokenInterface), contractLinkBalance, 0);\n    }\n\n    /// @notice Withdraw deposited LINK into Aave Protocol\n    /// @dev Only node address can call this.\n    /// @dev Function selector : 0xd26106e3\n    function withdrawFromAave()\n    public\n    onlyNodeAddress()\n    {\n        uint256 contractaLinkBalance = aLinkTokenInterface.balanceOf(address(this));\n        aLinkTokenInterface.redeem(contractaLinkBalance);\n    }\n\n    /// @notice Convert LINK balance to ETH via Uniswap and send to node.\n    /// @dev Only node address can call this.\n    /// @dev Function selector : 0x5bac1e0d\n    function linkToEthTopUp()\n    public\n    onlyNodeAddress()\n    {\n        // get link balance from erc20 contract\n        uint256 contractLinkBalance = stdLinkTokenInterface.balanceOf(address(this));\n\n        uint256 exchangeRate = linkExchangeInterface.getTokenToEthInputPrice(contractLinkBalance);\n        // Approve uniswap for transfer\n        stdLinkTokenInterface.approve(address(linkExchangeInterface), contractLinkBalance);\n        // Send to node address\n        linkExchangeInterface.tokenToEthTransferOutput(exchangeRate, contractLinkBalance, (now + 1 hours), linkNode);\n    }\n\n    /// @notice Change address of oracle contract (in case of re-deployment).\n    /// @param _liveOracle new address of oracle contract.\n    function configureOracleSetup(address _liveOracle, address _linkNode)\n    public\n    onlyOwner\n    {\n        oracle = Oracle(_liveOracle);\n        linkNode = _linkNode;\n    }\n\n\n    // This threshold needs to be better aligned to handle deposits as percentages.\n    /// @notice Change threshold trigger level for withdrawals.\n    /// @param _newThreshold new trigger threshold (in wei).\n    function setUserThreshold(uint256 _newThreshold)\n    public\n    onlyOwner\n    {\n        userThreshold = _newThreshold;\n    }\n\n    /// @notice Renounce ownership of oracle contract back to owner of this contract.\n    /// @dev Only owner of contract may call this.\n    function revertOracleOwnership()\n    public\n    onlyOwner\n    {\n        oracle.transferOwnership(msg.sender);\n    }\n}",
  "sourcePath": "C:/Users/CHILL/truffle_u/Flannel/truffle/contracts/Flannel.sol",
  "compiler": {
    "name": "solc",
    "version": "0.5.12+commit.7709ece9.Emscripten.clang"
  },
  "schemaVersion": "3.0.21",
  "updatedAt": "2020-01-24T15:35:16.956Z",
  "devdoc": {
    "author": "hill399 (github.com/hill399)",
    "methods": {
      "configureOracleSetup(address,address)": {
        "params": {
          "_liveOracle": "new address of oracle contract."
        }
      },
      "constructor": {
        "params": {
          "_aLinkToken": "address for the aLink Interest Bearing Token.",
          "_aaveLinkToken": "address of Aave Link token.",
          "_oracle": "address of user-deployed oracle contract.",
          "_stdLinkToken": "address of Chainlink (LINK) token.",
          "_uniswapExchange": "address of Uniswap exchange contract.",
          "_userThreshold": "limit in LINK (wei) in which features will trigger"
        }
      },
      "depositToAave()": {
        "details": "Only node address can call this.Function selector : 0x06197c1c"
      },
      "isOwner()": {
        "details": "Returns true if the caller is the current owner."
      },
      "linkToEthTopUp()": {
        "details": "Only node address can call this.Function selector : 0x5bac1e0d"
      },
      "owner()": {
        "details": "Returns the address of the current owner."
      },
      "revertOracleOwnership()": {
        "details": "Only owner of contract may call this."
      },
      "setUserThreshold(uint256)": {
        "params": {
          "_newThreshold": "new trigger threshold (in wei)."
        }
      },
      "transferOwnership(address)": {
        "details": "Transfers ownership of the contract to a new account (`newOwner`). Can only be called by the current owner."
      },
      "withdrawFromAave()": {
        "details": "Only node address can call this.Function selector : 0xd26106e3"
      },
      "withdrawFromOracle()": {
        "details": "Only node address can call this.Function selector : 0x61ff4fac"
      }
    },
    "title": "Flannel Main Contract"
  },
  "userdoc": {
    "methods": {
      "configureOracleSetup(address,address)": {
        "notice": "Change address of oracle contract (in case of re-deployment)."
      },
      "constructor": "Constructor to set default contract values.",
      "depositToAave()": {
        "notice": "Deposit withdrawn LINK into Aave Protocol"
      },
      "linkToEthTopUp()": {
        "notice": "Convert LINK balance to ETH via Uniswap and send to node."
      },
      "revertOracleOwnership()": {
        "notice": "Renounce ownership of oracle contract back to owner of this contract."
      },
      "setUserThreshold(uint256)": {
        "notice": "Change threshold trigger level for withdrawals."
      },
      "withdrawFromAave()": {
        "notice": "Withdraw deposited LINK into Aave Protocol"
      },
      "withdrawFromOracle()": {
        "notice": "Withdraw earned LINK balance from deployed oracle contract."
      }
    },
    "notice": "Extension of Chainlink oracle contract to allow for additional features."
  }
}