{
  "contractName": "IFlannel",
  "abi": [
    {
      "anonymous": false,
      "inputs": [
        {
          "indexed": true,
          "internalType": "address",
          "name": "previousOwner",
          "type": "address"
        },
        {
          "indexed": true,
          "internalType": "address",
          "name": "newOwner",
          "type": "address"
        }
      ],
      "name": "OwnershipTransferred",
      "type": "event"
    },
    {
      "constant": true,
      "inputs": [],
      "name": "aaveBalance",
      "outputs": [
        {
          "internalType": "uint256",
          "name": "",
          "type": "uint256"
        }
      ],
      "payable": false,
      "stateMutability": "view",
      "type": "function"
    },
    {
      "constant": true,
      "inputs": [],
      "name": "isOwner",
      "outputs": [
        {
          "internalType": "bool",
          "name": "",
          "type": "bool"
        }
      ],
      "payable": false,
      "stateMutability": "view",
      "type": "function"
    },
    {
      "constant": true,
      "inputs": [],
      "name": "owner",
      "outputs": [
        {
          "internalType": "address",
          "name": "",
          "type": "address"
        }
      ],
      "payable": false,
      "stateMutability": "view",
      "type": "function"
    },
    {
      "constant": true,
      "inputs": [],
      "name": "paramCounter",
      "outputs": [
        {
          "internalType": "uint256",
          "name": "",
          "type": "uint256"
        }
      ],
      "payable": false,
      "stateMutability": "view",
      "type": "function"
    },
    {
      "constant": true,
      "inputs": [],
      "name": "paramsInUse",
      "outputs": [
        {
          "internalType": "uint256",
          "name": "",
          "type": "uint256"
        }
      ],
      "payable": false,
      "stateMutability": "view",
      "type": "function"
    },
    {
      "constant": true,
      "inputs": [],
      "name": "storeBalance",
      "outputs": [
        {
          "internalType": "uint256",
          "name": "",
          "type": "uint256"
        }
      ],
      "payable": false,
      "stateMutability": "view",
      "type": "function"
    },
    {
      "constant": true,
      "inputs": [],
      "name": "topUpBalance",
      "outputs": [
        {
          "internalType": "uint256",
          "name": "",
          "type": "uint256"
        }
      ],
      "payable": false,
      "stateMutability": "view",
      "type": "function"
    },
    {
      "constant": false,
      "inputs": [
        {
          "internalType": "address",
          "name": "newOwner",
          "type": "address"
        }
      ],
      "name": "transferOwnership",
      "outputs": [],
      "payable": false,
      "stateMutability": "nonpayable",
      "type": "function"
    },
    {
      "constant": true,
      "inputs": [
        {
          "internalType": "uint256",
          "name": "",
          "type": "uint256"
        }
      ],
      "name": "userStoredParams",
      "outputs": [
        {
          "internalType": "string",
          "name": "paramsName",
          "type": "string"
        },
        {
          "internalType": "uint256",
          "name": "pcUntouched",
          "type": "uint256"
        },
        {
          "internalType": "uint256",
          "name": "pcAave",
          "type": "uint256"
        },
        {
          "internalType": "uint256",
          "name": "pcTopUp",
          "type": "uint256"
        },
        {
          "internalType": "uint256",
          "name": "linkThreshold",
          "type": "uint256"
        },
        {
          "internalType": "uint256",
          "name": "ethThreshold",
          "type": "uint256"
        },
        {
          "internalType": "uint256",
          "name": "aaveThreshold",
          "type": "uint256"
        },
        {
          "internalType": "uint256",
          "name": "ethTopUp",
          "type": "uint256"
        }
      ],
      "payable": false,
      "stateMutability": "view",
      "type": "function"
    }
  ],
  "bytecode": "0x6080604052336000806101000a81548173ffffffffffffffffffffffffffffffffffffffff021916908373ffffffffffffffffffffffffffffffffffffffff1602179055506000809054906101000a900473ffffffffffffffffffffffffffffffffffffffff1673ffffffffffffffffffffffffffffffffffffffff16600073ffffffffffffffffffffffffffffffffffffffff167f8be0079c531659141344cd1fd0a4f28419497f9722a3daafe3b4186f6b6457e060405160405180910390a3610659806100cf6000396000f3fe608060405234801561001057600080fd5b50600436106100935760003560e01c80638f32d59b116100665780638f32d59b1461013c578063b8a9897f1461015e578063bf5c88ff1461017c578063d9ae18521461019a578063f2fde38b1461027257610093565b80632a1d5e47146100985780632b3501f2146100b65780637efff887146100d45780638da5cb5b146100f2575b600080fd5b6100a06102b6565b6040518082815260200191505060405180910390f35b6100be6102bc565b6040518082815260200191505060405180910390f35b6100dc6102c2565b6040518082815260200191505060405180910390f35b6100fa6102c8565b604051808273ffffffffffffffffffffffffffffffffffffffff1673ffffffffffffffffffffffffffffffffffffffff16815260200191505060405180910390f35b6101446102f1565b604051808215151515815260200191505060405180910390f35b610166610348565b6040518082815260200191505060405180910390f35b61018461034e565b6040518082815260200191505060405180910390f35b6101c6600480360360208110156101b057600080fd5b8101908080359060200190929190505050610354565b604051808060200189815260200188815260200187815260200186815260200185815260200184815260200183815260200182810382528a818151815260200191508051906020019080838360005b83811015610230578082015181840152602081019050610215565b50505050905090810190601f16801561025d5780820380516001836020036101000a031916815260200191505b50995050505050505050505060405180910390f35b6102b46004803603602081101561028857600080fd5b81019080803573ffffffffffffffffffffffffffffffffffffffff169060200190929190505050610434565b005b600d5481565b600b5481565b600e5481565b60008060009054906101000a900473ffffffffffffffffffffffffffffffffffffffff16905090565b60008060009054906101000a900473ffffffffffffffffffffffffffffffffffffffff1673ffffffffffffffffffffffffffffffffffffffff163373ffffffffffffffffffffffffffffffffffffffff1614905090565b600a5481565b600c5481565b6009602052806000526040600020600091509050806000018054600181600116156101000203166002900480601f0160208091040260200160405190810160405280929190818152602001828054600181600116156101000203166002900480156104005780601f106103d557610100808354040283529160200191610400565b820191906000526020600020905b8154815290600101906020018083116103e357829003601f168201915b5050505050908060010154908060020154908060030154908060040154908060050154908060060154908060070154905088565b61043c6102f1565b6104ae576040517f08c379a00000000000000000000000000000000000000000000000000000000081526004018080602001828103825260208152602001807f4f776e61626c653a2063616c6c6572206973206e6f7420746865206f776e657281525060200191505060405180910390fd5b6104b7816104ba565b50565b600073ffffffffffffffffffffffffffffffffffffffff168173ffffffffffffffffffffffffffffffffffffffff161415610540576040517f08c379a00000000000000000000000000000000000000000000000000000000081526004018080602001828103825260268152602001806105ff6026913960400191505060405180910390fd5b8073ffffffffffffffffffffffffffffffffffffffff166000809054906101000a900473ffffffffffffffffffffffffffffffffffffffff1673ffffffffffffffffffffffffffffffffffffffff167f8be0079c531659141344cd1fd0a4f28419497f9722a3daafe3b4186f6b6457e060405160405180910390a3806000806101000a81548173ffffffffffffffffffffffffffffffffffffffff021916908373ffffffffffffffffffffffffffffffffffffffff1602179055505056fe4f776e61626c653a206e6577206f776e657220697320746865207a65726f2061646472657373a265627a7a72315820fafd9057c81a868d205504a05e001e047b3c221550ead9d95e58a5e751961a5764736f6c634300050c0032",
  "source": "pragma solidity ^0.5.0;\r\n\r\nimport \"chainlink/v0.5/contracts/Oracle.sol\";\r\nimport \"../contracts/UniswapExchangeInterface.sol\";\r\nimport \"../contracts/AaveLendingInterface.sol\";\r\nimport \"../contracts/ATokenInterface.sol\";\r\n\r\n/// @title Flannel Internal Contract\r\n/// @author hill399 (github.com/hill399)\r\n/// @notice Extension of Chainlink oracle contract to allow for additional features.\r\ncontract IFlannel is Ownable {\r\n\r\n    using SafeMath for uint256;\r\n\r\n    Oracle internal oracle;\r\n    UniswapExchangeInterface internal linkExchangeInterface;\r\n    LendingPool internal lendingPool;\r\n\r\n    LinkTokenInterface internal stdLinkTokenInterface;\r\n    LinkTokenInterface internal aaveLinkTokenInterface;\r\n    AToken internal aLinkTokenInterface;\r\n\r\n    uint256 constant FINNEY = 1 * 10 ** 15;\r\n    uint256 constant ETHER = 1 * 10 ** 18;\r\n\r\n    /* Address of user node */\r\n    address internal linkNode;\r\n\r\n    /* Lending pool approval address */\r\n    address internal lendingPoolApproval;\r\n\r\n    /* Struct to customise and store allowances */\r\n    struct thresholds {\r\n        string paramsName;\r\n        uint256 pcUntouched;\r\n        uint256 pcAave;\r\n        uint256 pcTopUp;\r\n        uint256 linkThreshold;\r\n        uint256 ethThreshold;\r\n        uint256 aaveThreshold;\r\n        uint256 ethTopUp;\r\n    }\r\n\r\n    /* Mapping to hold customised allowances */\r\n    mapping(uint => thresholds) public userStoredParams;\r\n    uint256 public paramCounter;\r\n    uint256 public paramsInUse;\r\n\r\n    uint256 public storeBalance;\r\n    uint256 public aaveBalance;\r\n    uint256 public topUpBalance;\r\n\r\n    /// @notice Withdraw earned LINK balance from deployed oracle contract.\r\n    /// @dev Only node address can call this.\r\n    /// @dev Function selector : 0x61ff4fac\r\n    function _withdrawFromOracle(uint256 _amount)\r\n    internal\r\n    {\r\n        require(_amount <= oracle.withdrawable(), \"Not enough LINK in oracle to withdraw\");\r\n        oracle.withdraw(address(this), _amount);\r\n        storeBalance = storeBalance.add(_percentHelper(_amount, userStoredParams[paramsInUse].pcUntouched));\r\n        aaveBalance = aaveBalance.add(_percentHelper(_amount, userStoredParams[paramsInUse].pcAave));\r\n        topUpBalance = topUpBalance.add(_percentHelper(_amount, userStoredParams[paramsInUse].pcTopUp));\r\n    }\r\n\r\n    /// @notice Deposit withdrawn LINK into Aave Protocol\r\n    /// @dev On testnet, Aave utilise their own LINK token. On test launch, a given amount is send to Flannel so that \"representative\"\r\n    ///      transactions can be made.\r\n    /// @dev Only node address can call this.\r\n    /// @dev Function selector : 0x06197c1c\r\n    function _depositToAave(uint256 _amount)\r\n    internal\r\n    {\r\n        require(_amount >= aaveBalance, \"Not enough allocated Aave Deposit funds\");\r\n        // Approve for aaveLINK tokens to be moved by the lending interface.\r\n        aaveLinkTokenInterface.approve(lendingPoolApproval, _amount + 100);\r\n        // Deposit aaveLINK into interest bearing contract.\r\n        lendingPool.deposit(address(aaveLinkTokenInterface), _amount, 0);\r\n        aaveBalance = aaveBalance.sub(_amount);\r\n    }\r\n\r\n    /// @notice Withdraw deposited LINK into Aave Protocol\r\n    /// @dev Only node address can call this.\r\n    /// @dev Function selector : 0xd26106e3\r\n    function _withdrawFromAave(uint256 _amount)\r\n    internal\r\n    {\r\n        // Catch that _amount is greater thzan contract aLINK balance.\r\n        require(_amount <= aLinkTokenInterface.balanceOf(address(this)), \"Not enough aLINK in contract\");\r\n        // Redeem LINK using aLINK redeem function.\r\n        aLinkTokenInterface.redeem(_amount);\r\n    }\r\n\r\n    /// @notice Convert LINK balance to ETH via Uniswap and send to node.\r\n    /// @dev Only node address can call this.\r\n    /// @dev Function selector : 0x5bac1e0d\r\n    function _linkToEthTopUp(uint256 _amount)\r\n    internal\r\n    {\r\n        require(_amount <= topUpBalance, \"Not enough LINK to top-up\");\r\n        // Catch if topUpBalance is less than ethTopUp\r\n        uint256 topBalance;\r\n        if(_amount >= userStoredParams[paramsInUse].ethTopUp) {\r\n            topBalance = userStoredParams[paramsInUse].ethTopUp;\r\n        } else {\r\n            topBalance = _amount;\r\n        }\r\n        // Get current LINK -> ETH conversion rate\r\n        uint256 exchangeRate = linkExchangeInterface.getTokenToEthInputPrice(topBalance);\r\n        // Approve uniswap for transfer\r\n        stdLinkTokenInterface.approve(address(linkExchangeInterface), topBalance);\r\n        // Send to node address\r\n        linkExchangeInterface.tokenToEthTransferOutput(exchangeRate, topBalance, (now + 1 hours), linkNode);\r\n        // Reset topUpBalance\r\n        topUpBalance = topUpBalance.sub(topBalance);\r\n    }\r\n\r\n    function _percentHelper(uint256 _value, uint256 _percentage)\r\n    internal\r\n    pure\r\n    returns\r\n    (uint256)\r\n    {\r\n        uint256 tmpPer = _value.div(100);\r\n        tmpPer = tmpPer.mul(_percentage);\r\n        return tmpPer;\r\n    }\r\n}",
  "sourcePath": "C:\\Users\\CHILL\\truffle_u\\Flannel\\truffle\\contracts\\IFlannel.sol",
  "compiler": {
    "name": "solc",
    "version": "0.5.12+commit.7709ece9.Emscripten.clang"
  },
  "schemaVersion": "3.0.21",
  "updatedAt": "2020-01-28T08:50:38.064Z",
  "devdoc": {
    "author": "hill399 (github.com/hill399)",
    "methods": {
      "isOwner()": {
        "details": "Returns true if the caller is the current owner."
      },
      "owner()": {
        "details": "Returns the address of the current owner."
      },
      "transferOwnership(address)": {
        "details": "Transfers ownership of the contract to a new account (`newOwner`). Can only be called by the current owner."
      }
    },
    "title": "Flannel Internal Contract"
  },
  "userdoc": {
    "methods": {},
    "notice": "Extension of Chainlink oracle contract to allow for additional features."
  }
}