{
  "contractName": "TestnetConsumer",
  "abi": [
    {
      "inputs": [
        {
          "internalType": "address",
          "name": "_link",
          "type": "address"
        }
      ],
      "payable": false,
      "stateMutability": "nonpayable",
      "type": "constructor"
    },
    {
      "anonymous": false,
      "inputs": [
        {
          "indexed": true,
          "internalType": "bytes32",
          "name": "id",
          "type": "bytes32"
        }
      ],
      "name": "ChainlinkCancelled",
      "type": "event"
    },
    {
      "anonymous": false,
      "inputs": [
        {
          "indexed": true,
          "internalType": "bytes32",
          "name": "id",
          "type": "bytes32"
        }
      ],
      "name": "ChainlinkFulfilled",
      "type": "event"
    },
    {
      "anonymous": false,
      "inputs": [
        {
          "indexed": true,
          "internalType": "bytes32",
          "name": "id",
          "type": "bytes32"
        }
      ],
      "name": "ChainlinkRequested",
      "type": "event"
    },
    {
      "anonymous": false,
      "inputs": [
        {
          "indexed": true,
          "internalType": "address",
          "name": "previousOwner",
          "type": "address"
        },
        {
          "indexed": true,
          "internalType": "address",
          "name": "newOwner",
          "type": "address"
        }
      ],
      "name": "OwnershipTransferred",
      "type": "event"
    },
    {
      "anonymous": false,
      "inputs": [
        {
          "indexed": true,
          "internalType": "bytes32",
          "name": "requestId",
          "type": "bytes32"
        },
        {
          "indexed": true,
          "internalType": "int256",
          "name": "change",
          "type": "int256"
        }
      ],
      "name": "RequestEthereumChangeFulfilled",
      "type": "event"
    },
    {
      "anonymous": false,
      "inputs": [
        {
          "indexed": true,
          "internalType": "bytes32",
          "name": "requestId",
          "type": "bytes32"
        },
        {
          "indexed": true,
          "internalType": "bytes32",
          "name": "market",
          "type": "bytes32"
        }
      ],
      "name": "RequestEthereumLastMarket",
      "type": "event"
    },
    {
      "anonymous": false,
      "inputs": [
        {
          "indexed": true,
          "internalType": "bytes32",
          "name": "requestId",
          "type": "bytes32"
        },
        {
          "indexed": true,
          "internalType": "uint256",
          "name": "price",
          "type": "uint256"
        }
      ],
      "name": "RequestEthereumPriceFulfilled",
      "type": "event"
    },
    {
      "constant": true,
      "inputs": [],
      "name": "changeDay",
      "outputs": [
        {
          "internalType": "int256",
          "name": "",
          "type": "int256"
        }
      ],
      "payable": false,
      "stateMutability": "view",
      "type": "function"
    },
    {
      "constant": true,
      "inputs": [],
      "name": "currentPrice",
      "outputs": [
        {
          "internalType": "uint256",
          "name": "",
          "type": "uint256"
        }
      ],
      "payable": false,
      "stateMutability": "view",
      "type": "function"
    },
    {
      "constant": true,
      "inputs": [],
      "name": "isOwner",
      "outputs": [
        {
          "internalType": "bool",
          "name": "",
          "type": "bool"
        }
      ],
      "payable": false,
      "stateMutability": "view",
      "type": "function"
    },
    {
      "constant": true,
      "inputs": [],
      "name": "lastMarket",
      "outputs": [
        {
          "internalType": "bytes32",
          "name": "",
          "type": "bytes32"
        }
      ],
      "payable": false,
      "stateMutability": "view",
      "type": "function"
    },
    {
      "constant": true,
      "inputs": [],
      "name": "owner",
      "outputs": [
        {
          "internalType": "address",
          "name": "",
          "type": "address"
        }
      ],
      "payable": false,
      "stateMutability": "view",
      "type": "function"
    },
    {
      "constant": false,
      "inputs": [
        {
          "internalType": "address",
          "name": "newOwner",
          "type": "address"
        }
      ],
      "name": "transferOwnership",
      "outputs": [],
      "payable": false,
      "stateMutability": "nonpayable",
      "type": "function"
    },
    {
      "constant": false,
      "inputs": [
        {
          "internalType": "address",
          "name": "_oracle",
          "type": "address"
        },
        {
          "internalType": "string",
          "name": "_jobId",
          "type": "string"
        }
      ],
      "name": "requestEthereumPrice",
      "outputs": [],
      "payable": false,
      "stateMutability": "nonpayable",
      "type": "function"
    },
    {
      "constant": false,
      "inputs": [
        {
          "internalType": "address",
          "name": "_oracle",
          "type": "address"
        },
        {
          "internalType": "string",
          "name": "_jobId",
          "type": "string"
        }
      ],
      "name": "requestEthereumChange",
      "outputs": [],
      "payable": false,
      "stateMutability": "nonpayable",
      "type": "function"
    },
    {
      "constant": false,
      "inputs": [
        {
          "internalType": "address",
          "name": "_oracle",
          "type": "address"
        },
        {
          "internalType": "string",
          "name": "_jobId",
          "type": "string"
        }
      ],
      "name": "requestEthereumLastMarket",
      "outputs": [],
      "payable": false,
      "stateMutability": "nonpayable",
      "type": "function"
    },
    {
      "constant": false,
      "inputs": [
        {
          "internalType": "bytes32",
          "name": "_requestId",
          "type": "bytes32"
        },
        {
          "internalType": "uint256",
          "name": "_price",
          "type": "uint256"
        }
      ],
      "name": "fulfillEthereumPrice",
      "outputs": [],
      "payable": false,
      "stateMutability": "nonpayable",
      "type": "function"
    },
    {
      "constant": false,
      "inputs": [
        {
          "internalType": "bytes32",
          "name": "_requestId",
          "type": "bytes32"
        },
        {
          "internalType": "int256",
          "name": "_change",
          "type": "int256"
        }
      ],
      "name": "fulfillEthereumChange",
      "outputs": [],
      "payable": false,
      "stateMutability": "nonpayable",
      "type": "function"
    },
    {
      "constant": false,
      "inputs": [
        {
          "internalType": "bytes32",
          "name": "_requestId",
          "type": "bytes32"
        },
        {
          "internalType": "bytes32",
          "name": "_market",
          "type": "bytes32"
        }
      ],
      "name": "fulfillEthereumLastMarket",
      "outputs": [],
      "payable": false,
      "stateMutability": "nonpayable",
      "type": "function"
    },
    {
      "constant": true,
      "inputs": [],
      "name": "getChainlinkToken",
      "outputs": [
        {
          "internalType": "address",
          "name": "",
          "type": "address"
        }
      ],
      "payable": false,
      "stateMutability": "view",
      "type": "function"
    },
    {
      "constant": false,
      "inputs": [],
      "name": "withdrawLink",
      "outputs": [],
      "payable": false,
      "stateMutability": "nonpayable",
      "type": "function"
    },
    {
      "constant": false,
      "inputs": [
        {
          "internalType": "bytes32",
          "name": "_requestId",
          "type": "bytes32"
        },
        {
          "internalType": "uint256",
          "name": "_payment",
          "type": "uint256"
        },
        {
          "internalType": "bytes4",
          "name": "_callbackFunctionId",
          "type": "bytes4"
        },
        {
          "internalType": "uint256",
          "name": "_expiration",
          "type": "uint256"
        }
      ],
      "name": "cancelRequest",
      "outputs": [],
      "payable": false,
      "stateMutability": "nonpayable",
      "type": "function"
    }
  ],
  "bytecode": "0x6080604052600160045534801561001557600080fd5b506040516125e13803806125e18339818101604052602081101561003857600080fd5b810190808051906020019092919050505033600660006101000a81548173ffffffffffffffffffffffffffffffffffffffff021916908373ffffffffffffffffffffffffffffffffffffffff160217905550600660009054906101000a900473ffffffffffffffffffffffffffffffffffffffff1673ffffffffffffffffffffffffffffffffffffffff16600073ffffffffffffffffffffffffffffffffffffffff167f8be0079c531659141344cd1fd0a4f28419497f9722a3daafe3b4186f6b6457e060405160405180910390a36101168161011c60201b60201c565b50610160565b80600260006101000a81548173ffffffffffffffffffffffffffffffffffffffff021916908373ffffffffffffffffffffffffffffffffffffffff16021790555050565b6124728061016f6000396000f3fe608060405234801561001057600080fd5b50600436106100f55760003560e01c806392cdaaf311610097578063e9edbf0311610066578063e9edbf0314610454578063ec65d0f814610472578063f2fde38b146104dd578063f3bdf8ba14610521576100f5565b806392cdaaf3146102eb5780639d1b464a14610323578063a46fbe1a14610341578063ab643c1014610379576100f5565b8063619cba1a116100d3578063619cba1a1461019a5780638da5cb5b146102755780638dc654a2146102bf5780638f32d59b146102c9576100f5565b8063165d35e1146100fa5780632183abd11461014457806349556aff14610162575b600080fd5b6101026105fc565b604051808273ffffffffffffffffffffffffffffffffffffffff1673ffffffffffffffffffffffffffffffffffffffff16815260200191505060405180910390f35b61014c61060b565b6040518082815260200191505060405180910390f35b6101986004803603604081101561017857600080fd5b810190808035906020019092919080359060200190929190505050610611565b005b610273600480360360408110156101b057600080fd5b81019080803573ffffffffffffffffffffffffffffffffffffffff169060200190929190803590602001906401000000008111156101ed57600080fd5b8201836020820111156101ff57600080fd5b8035906020019184600183028401116401000000008311171561022157600080fd5b91908080601f016020809104026020016040519081016040528093929190818152602001838380828437600081840152601f19601f820116905080830192505050505050509192919290505050610766565b005b61027d61094f565b604051808273ffffffffffffffffffffffffffffffffffffffff1673ffffffffffffffffffffffffffffffffffffffff16815260200191505060405180910390f35b6102c7610979565b005b6102d1610bef565b604051808215151515815260200191505060405180910390f35b6103216004803603604081101561030157600080fd5b810190808035906020019092919080359060200190929190505050610c47565b005b61032b610d9c565b6040518082815260200191505060405180910390f35b6103776004803603604081101561035757600080fd5b810190808035906020019092919080359060200190929190505050610da2565b005b6104526004803603604081101561038f57600080fd5b81019080803573ffffffffffffffffffffffffffffffffffffffff169060200190929190803590602001906401000000008111156103cc57600080fd5b8201836020820111156103de57600080fd5b8035906020019184600183028401116401000000008311171561040057600080fd5b91908080601f016020809104026020016040519081016040528093929190818152602001838380828437600081840152601f19601f820116905080830192505050505050509192919290505050610ef7565b005b61045c6110dd565b6040518082815260200191505060405180910390f35b6104db6004803603608081101561048857600080fd5b81019080803590602001909291908035906020019092919080357bffffffffffffffffffffffffffffffffffffffffffffffffffffffff19169060200190929190803590602001909291905050506110e3565b005b61051f600480360360208110156104f357600080fd5b81019080803573ffffffffffffffffffffffffffffffffffffffff16906020019092919050505061116f565b005b6105fa6004803603604081101561053757600080fd5b81019080803573ffffffffffffffffffffffffffffffffffffffff1690602001909291908035906020019064010000000081111561057457600080fd5b82018360208201111561058657600080fd5b803590602001918460018302840111640100000000831117156105a857600080fd5b91908080601f016020809104026020016040519081016040528093929190818152602001838380828437600081840152601f19601f8201169050808301925050505050505091929192905050506111f5565b005b60006106066114ce565b905090565b60085481565b816005600082815260200190815260200160002060009054906101000a900473ffffffffffffffffffffffffffffffffffffffff1673ffffffffffffffffffffffffffffffffffffffff163373ffffffffffffffffffffffffffffffffffffffff16146106c9576040517f08c379a00000000000000000000000000000000000000000000000000000000081526004018080602001828103825260288152602001806123cd6028913960400191505060405180910390fd5b6005600082815260200190815260200160002060006101000a81549073ffffffffffffffffffffffffffffffffffffffff0219169055807f7cc135e0cebb02c3480ae5d74d377283180a2601f8f644edf7987b009316c63a60405160405180910390a281837f1a7783cfc5355cd0706abec2229662cda9cefcfc8aeb31fec8b391ba5eb67cbe60405160405180910390a381600981905550505050565b61076e610bef565b6107e0576040517f08c379a00000000000000000000000000000000000000000000000000000000081526004018080602001828103825260208152602001807f4f776e61626c653a2063616c6c6572206973206e6f7420746865206f776e657281525060200191505060405180910390fd5b6107e86122a3565b6108026107f4836114f8565b3063a46fbe1a60e01b611523565b90506108666040518060400160405280600381526020017f67657400000000000000000000000000000000000000000000000000000000008152506040518060800160405280604981526020016123f560499139836115549092919063ffffffff16565b6108e56040518060400160405280600481526020017f70617468000000000000000000000000000000000000000000000000000000008152506040518060400160405280601881526020017f5241572e4554482e5553442e4348414e47455043544441590000000000000000815250836115549092919063ffffffff16565b6109336040518060400160405280600581526020017f74696d6573000000000000000000000000000000000000000000000000000000815250633b9aca00836115879092919063ffffffff16565b6109498382670de0b6b3a76400006005026115ba565b50505050565b6000600660009054906101000a900473ffffffffffffffffffffffffffffffffffffffff16905090565b610981610bef565b6109f3576040517f08c379a00000000000000000000000000000000000000000000000000000000081526004018080602001828103825260208152602001807f4f776e61626c653a2063616c6c6572206973206e6f7420746865206f776e657281525060200191505060405180910390fd5b60006109fd6114ce565b90508073ffffffffffffffffffffffffffffffffffffffff1663a9059cbb338373ffffffffffffffffffffffffffffffffffffffff166370a08231306040518263ffffffff1660e01b8152600401808273ffffffffffffffffffffffffffffffffffffffff1673ffffffffffffffffffffffffffffffffffffffff168152602001915050602060405180830381600087803b158015610a9b57600080fd5b505af1158015610aaf573d6000803e3d6000fd5b505050506040513d6020811015610ac557600080fd5b81019080805190602001909291905050506040518363ffffffff1660e01b8152600401808373ffffffffffffffffffffffffffffffffffffffff1673ffffffffffffffffffffffffffffffffffffffff16815260200182815260200192505050602060405180830381600087803b158015610b3f57600080fd5b505af1158015610b53573d6000803e3d6000fd5b505050506040513d6020811015610b6957600080fd5b8101908080519060200190929190505050610bec576040517f08c379a00000000000000000000000000000000000000000000000000000000081526004018080602001828103825260128152602001807f556e61626c6520746f207472616e73666572000000000000000000000000000081525060200191505060405180910390fd5b50565b6000600660009054906101000a900473ffffffffffffffffffffffffffffffffffffffff1673ffffffffffffffffffffffffffffffffffffffff163373ffffffffffffffffffffffffffffffffffffffff1614905090565b816005600082815260200190815260200160002060009054906101000a900473ffffffffffffffffffffffffffffffffffffffff1673ffffffffffffffffffffffffffffffffffffffff163373ffffffffffffffffffffffffffffffffffffffff1614610cff576040517f08c379a00000000000000000000000000000000000000000000000000000000081526004018080602001828103825260288152602001806123cd6028913960400191505060405180910390fd5b6005600082815260200190815260200160002060006101000a81549073ffffffffffffffffffffffffffffffffffffffff0219169055807f7cc135e0cebb02c3480ae5d74d377283180a2601f8f644edf7987b009316c63a60405160405180910390a281837f794eb9e29f6750ede99e05248d997a9ab9fa23c4a7eaff8afa729080eb7c642860405160405180910390a381600781905550505050565b60075481565b816005600082815260200190815260200160002060009054906101000a900473ffffffffffffffffffffffffffffffffffffffff1673ffffffffffffffffffffffffffffffffffffffff163373ffffffffffffffffffffffffffffffffffffffff1614610e5a576040517f08c379a00000000000000000000000000000000000000000000000000000000081526004018080602001828103825260288152602001806123cd6028913960400191505060405180910390fd5b6005600082815260200190815260200160002060006101000a81549073ffffffffffffffffffffffffffffffffffffffff0219169055807f7cc135e0cebb02c3480ae5d74d377283180a2601f8f644edf7987b009316c63a60405160405180910390a281837f36f03c766dbeb725bf2a1e6cf2d934a02bf3cd9644b55767c8f41ef2d4af061260405160405180910390a381600881905550505050565b610eff610bef565b610f71576040517f08c379a00000000000000000000000000000000000000000000000000000000081526004018080602001828103825260208152602001807f4f776e61626c653a2063616c6c6572206973206e6f7420746865206f776e657281525060200191505060405180910390fd5b610f796122a3565b610f93610f85836114f8565b306392cdaaf360e01b611523565b9050610ff76040518060400160405280600381526020017f67657400000000000000000000000000000000000000000000000000000000008152506040518060600160405280603f815260200161238e603f9139836115549092919063ffffffff16565b6110766040518060400160405280600481526020017f70617468000000000000000000000000000000000000000000000000000000008152506040518060400160405280600381526020017f5553440000000000000000000000000000000000000000000000000000000000815250836115549092919063ffffffff16565b6110c16040518060400160405280600581526020017f74696d65730000000000000000000000000000000000000000000000000000008152506064836115879092919063ffffffff16565b6110d78382670de0b6b3a76400006005026115ba565b50505050565b60095481565b6110eb610bef565b61115d576040517f08c379a00000000000000000000000000000000000000000000000000000000081526004018080602001828103825260208152602001807f4f776e61626c653a2063616c6c6572206973206e6f7420746865206f776e657281525060200191505060405180910390fd5b61116984848484611872565b50505050565b611177610bef565b6111e9576040517f08c379a00000000000000000000000000000000000000000000000000000000081526004018080602001828103825260208152602001807f4f776e61626c653a2063616c6c6572206973206e6f7420746865206f776e657281525060200191505060405180910390fd5b6111f2816119d5565b50565b6111fd610bef565b61126f576040517f08c379a00000000000000000000000000000000000000000000000000000000081526004018080602001828103825260208152602001807f4f776e61626c653a2063616c6c6572206973206e6f7420746865206f776e657281525060200191505060405180910390fd5b6112776122a3565b611291611283836114f8565b306349556aff60e01b611523565b90506112f56040518060400160405280600381526020017f67657400000000000000000000000000000000000000000000000000000000008152506040518060800160405280604981526020016123f560499139836115549092919063ffffffff16565b6060600460405190808252806020026020018201604052801561132c57816020015b60608152602001906001900390816113175790505b5090506040518060400160405280600381526020017f52415700000000000000000000000000000000000000000000000000000000008152508160008151811061137257fe5b60200260200101819052506040518060400160405280600381526020017f4554480000000000000000000000000000000000000000000000000000000000815250816001815181106113c057fe5b60200260200101819052506040518060400160405280600381526020017f55534400000000000000000000000000000000000000000000000000000000008152508160028151811061140e57fe5b60200260200101819052506040518060400160405280600a81526020017f4c4153544d41524b4554000000000000000000000000000000000000000000008152508160038151811061145c57fe5b60200260200101819052506114b16040518060400160405280600481526020017f70617468000000000000000000000000000000000000000000000000000000008152508284611b1b9092919063ffffffff16565b6114c78483670de0b6b3a76400006005026115ba565b5050505050565b6000600260009054906101000a900473ffffffffffffffffffffffffffffffffffffffff16905090565b60006060829050600081511415611515576000801b91505061151e565b60208301519150505b919050565b61152b6122a3565b6115336122a3565b61154a85858584611b98909392919063ffffffff16565b9150509392505050565b61156b828460800151611c4890919063ffffffff16565b611582818460800151611c4890919063ffffffff16565b505050565b61159e828460800151611c4890919063ffffffff16565b6115b5818460800151611c6d90919063ffffffff16565b505050565b600030600454604051602001808373ffffffffffffffffffffffffffffffffffffffff1673ffffffffffffffffffffffffffffffffffffffff1660601b815260140182815260200192505050604051602081830303815290604052805190602001209050600454836060018181525050836005600083815260200190815260200160002060006101000a81548173ffffffffffffffffffffffffffffffffffffffff021916908373ffffffffffffffffffffffffffffffffffffffff160217905550807fb5e6e01e79f91267dc17b4e6314d5d4d03593d2ceee0fbb452b750bd70ea5af960405160405180910390a2600260009054906101000a900473ffffffffffffffffffffffffffffffffffffffff1673ffffffffffffffffffffffffffffffffffffffff16634000aea085846116f287611cb9565b6040518463ffffffff1660e01b8152600401808473ffffffffffffffffffffffffffffffffffffffff1673ffffffffffffffffffffffffffffffffffffffff16815260200183815260200180602001828103825283818151815260200191508051906020019080838360005b8381101561177957808201518184015260208101905061175e565b50505050905090810190601f1680156117a65780820380516001836020036101000a031916815260200191505b50945050505050602060405180830381600087803b1580156117c757600080fd5b505af11580156117db573d6000803e3d6000fd5b505050506040513d60208110156117f157600080fd5b8101908080519060200190929190505050611857576040517f08c379a000000000000000000000000000000000000000000000000000000000815260040180806020018281038252602381526020018061236b6023913960400191505060405180910390fd5b60016004600082825401925050819055508090509392505050565b60006005600086815260200190815260200160002060009054906101000a900473ffffffffffffffffffffffffffffffffffffffff1690506005600086815260200190815260200160002060006101000a81549073ffffffffffffffffffffffffffffffffffffffff0219169055847fe1fe3afa0f7f761ff0a8b89086790efd5140d2907ebd5b7ff6bfcb5e075fd4c560405160405180910390a28073ffffffffffffffffffffffffffffffffffffffff16636ee4d553868686866040518563ffffffff1660e01b815260040180858152602001848152602001837bffffffffffffffffffffffffffffffffffffffffffffffffffffffff19167bffffffffffffffffffffffffffffffffffffffffffffffffffffffff19168152602001828152602001945050505050600060405180830381600087803b1580156119b657600080fd5b505af11580156119ca573d6000803e3d6000fd5b505050505050505050565b600073ffffffffffffffffffffffffffffffffffffffff168173ffffffffffffffffffffffffffffffffffffffff161415611a5b576040517f08c379a00000000000000000000000000000000000000000000000000000000081526004018080602001828103825260268152602001806123456026913960400191505060405180910390fd5b8073ffffffffffffffffffffffffffffffffffffffff16600660009054906101000a900473ffffffffffffffffffffffffffffffffffffffff1673ffffffffffffffffffffffffffffffffffffffff167f8be0079c531659141344cd1fd0a4f28419497f9722a3daafe3b4186f6b6457e060405160405180910390a380600660006101000a81548173ffffffffffffffffffffffffffffffffffffffff021916908373ffffffffffffffffffffffffffffffffffffffff16021790555050565b611b32828460800151611c4890919063ffffffff16565b611b3f8360800151611ec0565b60008090505b8151811015611b8557611b78828281518110611b5d57fe5b60200260200101518560800151611c4890919063ffffffff16565b8080600101915050611b45565b50611b938360800151611ece565b505050565b611ba06122a3565b611bb08560800151610100611edc565b508385600001818152505082856020019073ffffffffffffffffffffffffffffffffffffffff16908173ffffffffffffffffffffffffffffffffffffffff16815250508185604001907bffffffffffffffffffffffffffffffffffffffffffffffffffffffff191690817bffffffffffffffffffffffffffffffffffffffffffffffffffffffff191681525050849050949350505050565b611c558260038351611f30565b611c68818361207590919063ffffffff16565b505050565b60008112611c8657611c8182600083611f30565b611cb5565b611cb4826001837fffffffffffffffffffffffffffffffffffffffffffffffffffffffffffffffff03611f30565b5b5050565b6060600360009054906101000a900473ffffffffffffffffffffffffffffffffffffffff1673ffffffffffffffffffffffffffffffffffffffff166340429946905060e01b60008084600001518560200151866040015187606001516001896080015160000151604051602401808973ffffffffffffffffffffffffffffffffffffffff1673ffffffffffffffffffffffffffffffffffffffff1681526020018881526020018781526020018673ffffffffffffffffffffffffffffffffffffffff1673ffffffffffffffffffffffffffffffffffffffff168152602001857bffffffffffffffffffffffffffffffffffffffffffffffffffffffff19167bffffffffffffffffffffffffffffffffffffffffffffffffffffffff1916815260200184815260200183815260200180602001828103825283818151815260200191508051906020019080838360005b83811015611e23578082015181840152602081019050611e08565b50505050905090810190601f168015611e505780820380516001836020036101000a031916815260200191505b509950505050505050505050604051602081830303815290604052907bffffffffffffffffffffffffffffffffffffffffffffffffffffffff19166020820180517bffffffffffffffffffffffffffffffffffffffffffffffffffffffff83818316178352505050509050919050565b611ecb816004612097565b50565b611ed9816007612097565b50565b611ee4612310565b600060208381611ef057fe5b0614611f095760208281611f0057fe5b06602003820191505b81836020018181525050604051808452600081528281016020016040525082905092915050565b60178111611f5d57611f578160058460ff16901b60ff1617846120b990919063ffffffff16565b50612070565b60ff8111611f9f57611f82601860058460ff16901b17846120b990919063ffffffff16565b50611f99816001856120d99092919063ffffffff16565b5061206f565b61ffff8111611fe257611fc5601960058460ff16901b17846120b990919063ffffffff16565b50611fdc816002856120d99092919063ffffffff16565b5061206e565b63ffffffff81116120275761200a601a60058460ff16901b17846120b990919063ffffffff16565b50612021816004856120d99092919063ffffffff16565b5061206d565b67ffffffffffffffff811161206c57612053601b60058460ff16901b17846120b990919063ffffffff16565b5061206a816008856120d99092919063ffffffff16565b505b5b5b5b5b505050565b61207d612310565b61208f838460000151518485516120fb565b905092915050565b6120b4601f60058360ff16901b17836120b990919063ffffffff16565b505050565b6120c1612310565b6120d183846000015151846121b4565b905092915050565b6120e1612310565b6120f2848560000151518585612202565b90509392505050565b612103612310565b825182111561211157600080fd5b8460200151828501111561213c5761213b8560026121358860200151888701612263565b0261227f565b5b60008086518051876020830101935080888701111561215b5787860182525b60208701925050505b602084106121875780518252602082019150602081019050602084039350612164565b60006001856020036101000a03905080198251168184511681811785525050879350505050949350505050565b6121bc612310565b836020015183106121d9576121d884600286602001510261227f565b5b83518051602085830101848153818614156121f5576001820183525b5050508390509392505050565b61220a612310565b84602001518483011115612228576122278560028685010261227f565b5b60006001836101000a03905085518386820101858319825116178152815185880111156122555784870182525b505085915050949350505050565b60008183111561227557829050612279565b8190505b92915050565b6060826000015190506122928383611edc565b5061229d8382612075565b50505050565b6040518060a0016040528060008019168152602001600073ffffffffffffffffffffffffffffffffffffffff16815260200160007bffffffffffffffffffffffffffffffffffffffffffffffffffffffff191681526020016000815260200161230a61232a565b81525090565b604051806040016040528060608152602001600081525090565b60405180604001604052806060815260200160008152509056fe4f776e61626c653a206e6577206f776e657220697320746865207a65726f2061646472657373756e61626c6520746f207472616e73666572416e6443616c6c20746f206f7261636c6568747470733a2f2f6d696e2d6170692e63727970746f636f6d706172652e636f6d2f646174612f70726963653f6673796d3d455448267473796d733d555344536f75726365206d75737420626520746865206f7261636c65206f6620746865207265717565737468747470733a2f2f6d696e2d6170692e63727970746f636f6d706172652e636f6d2f646174612f70726963656d756c746966756c6c3f6673796d733d455448267473796d733d555344a265627a7a72315820c3532fdaa8a12f3605907d4559f3eb4b77bb1b4681ddd885df33197e6760611d64736f6c634300050c0032",
  "source": "pragma solidity ^0.5.0;\n\nimport \"chainlink/v0.5/contracts/ChainlinkClient.sol\";\nimport \"chainlink/v0.5/contracts/vendor/Ownable.sol\";\n\ncontract TestnetConsumer is ChainlinkClient, Ownable {\n  uint256 constant private ORACLE_PAYMENT = 5 * LINK;\n\n  uint256 public currentPrice;\n  int256 public changeDay;\n  bytes32 public lastMarket;\n\n  event RequestEthereumPriceFulfilled(\n    bytes32 indexed requestId,\n    uint256 indexed price\n  );\n\n  event RequestEthereumChangeFulfilled(\n    bytes32 indexed requestId,\n    int256 indexed change\n  );\n\n  event RequestEthereumLastMarket(\n    bytes32 indexed requestId,\n    bytes32 indexed market\n  );\n\n  constructor(address _link) public Ownable() {\n    setChainlinkToken(_link);\n  }\n\n  function requestEthereumPrice(address _oracle, string memory _jobId)\n    public\n    onlyOwner\n  {\n    Chainlink.Request memory req = buildChainlinkRequest(stringToBytes32(_jobId), address(this), this.fulfillEthereumPrice.selector);\n    req.add(\"get\", \"https://min-api.cryptocompare.com/data/price?fsym=ETH&tsyms=USD\");\n    req.add(\"path\", \"USD\");\n    req.addInt(\"times\", 100);\n    sendChainlinkRequestTo(_oracle, req, ORACLE_PAYMENT);\n  }\n\n  function requestEthereumChange(address _oracle, string memory _jobId)\n    public\n    onlyOwner\n  {\n    Chainlink.Request memory req = buildChainlinkRequest(stringToBytes32(_jobId), address(this), this.fulfillEthereumChange.selector);\n    req.add(\"get\", \"https://min-api.cryptocompare.com/data/pricemultifull?fsyms=ETH&tsyms=USD\");\n    req.add(\"path\", \"RAW.ETH.USD.CHANGEPCTDAY\");\n    req.addInt(\"times\", 1000000000);\n    sendChainlinkRequestTo(_oracle, req, ORACLE_PAYMENT);\n  }\n\n  function requestEthereumLastMarket(address _oracle, string memory _jobId)\n    public\n    onlyOwner\n  {\n    Chainlink.Request memory req = buildChainlinkRequest(stringToBytes32(_jobId), address(this), this.fulfillEthereumLastMarket.selector);\n    req.add(\"get\", \"https://min-api.cryptocompare.com/data/pricemultifull?fsyms=ETH&tsyms=USD\");\n    string[] memory path = new string[](4);\n    path[0] = \"RAW\";\n    path[1] = \"ETH\";\n    path[2] = \"USD\";\n    path[3] = \"LASTMARKET\";\n    req.addStringArray(\"path\", path);\n    sendChainlinkRequestTo(_oracle, req, ORACLE_PAYMENT);\n  }\n\n  function fulfillEthereumPrice(bytes32 _requestId, uint256 _price)\n    public\n    recordChainlinkFulfillment(_requestId)\n  {\n    emit RequestEthereumPriceFulfilled(_requestId, _price);\n    currentPrice = _price;\n  }\n\n  function fulfillEthereumChange(bytes32 _requestId, int256 _change)\n    public\n    recordChainlinkFulfillment(_requestId)\n  {\n    emit RequestEthereumChangeFulfilled(_requestId, _change);\n    changeDay = _change;\n  }\n\n  function fulfillEthereumLastMarket(bytes32 _requestId, bytes32 _market)\n    public\n    recordChainlinkFulfillment(_requestId)\n  {\n    emit RequestEthereumLastMarket(_requestId, _market);\n    lastMarket = _market;\n  }\n\n  function getChainlinkToken() public view returns (address) {\n    return chainlinkTokenAddress();\n  }\n\n  function withdrawLink() public onlyOwner {\n    LinkTokenInterface link = LinkTokenInterface(chainlinkTokenAddress());\n    require(link.transfer(msg.sender, link.balanceOf(address(this))), \"Unable to transfer\");\n  }\n\n  function cancelRequest(\n    bytes32 _requestId,\n    uint256 _payment,\n    bytes4 _callbackFunctionId,\n    uint256 _expiration\n  )\n    public\n    onlyOwner\n  {\n    cancelChainlinkRequest(_requestId, _payment, _callbackFunctionId, _expiration);\n  }\n\n  function stringToBytes32(string memory source) private pure returns (bytes32 result) {\n    bytes memory tempEmptyStringTest = bytes(source);\n    if (tempEmptyStringTest.length == 0) {\n      return 0x0;\n    }\n\n    assembly { // solhint-disable-line no-inline-assembly\n      result := mload(add(source, 32))\n    }\n  }\n\n}",
  "sourcePath": "C:/Users/CHILL/truffle_u/Flannel/truffle/contracts/TestnetConsumer.sol",
  "compiler": {
    "name": "solc",
    "version": "0.5.12+commit.7709ece9.Emscripten.clang"
  },
  "schemaVersion": "3.0.21",
  "updatedAt": "2020-01-24T15:35:16.964Z",
  "devdoc": {
    "methods": {
      "isOwner()": {
        "details": "Returns true if the caller is the current owner."
      },
      "owner()": {
        "details": "Returns the address of the current owner."
      },
      "transferOwnership(address)": {
        "details": "Transfers ownership of the contract to a new account (`newOwner`). Can only be called by the current owner."
      }
    }
  },
  "userdoc": {
    "methods": {}
  }
}